Archive member included to satisfy reference by file (symbol)

d:/rt-threadstudio/repo/extract/toolchain_support_packages/wch/risc-v-gcc-wch/8.2.0/bin/../lib/gcc/riscv-none-embed/8.2.0/../../../../riscv-none-embed/lib/rv32imafc/ilp32f\libc_nano.a(lib_a-assert.o)
                              ./lvgl/src/extra/libs/qrcode/qrcodegen.o (__assert_func)
d:/rt-threadstudio/repo/extract/toolchain_support_packages/wch/risc-v-gcc-wch/8.2.0/bin/../lib/gcc/riscv-none-embed/8.2.0/../../../../riscv-none-embed/lib/rv32imafc/ilp32f\libc_nano.a(lib_a-atoi.o)
                              ./rt-thread/components/finsh/finsh_token.o (atoi)
d:/rt-threadstudio/repo/extract/toolchain_support_packages/wch/risc-v-gcc-wch/8.2.0/bin/../lib/gcc/riscv-none-embed/8.2.0/../../../../riscv-none-embed/lib/rv32imafc/ilp32f\libc_nano.a(lib_a-fclose.o)
                              ./rt-thread/components/libc/compilers/newlib/stdio.o (fclose)
d:/rt-threadstudio/repo/extract/toolchain_support_packages/wch/risc-v-gcc-wch/8.2.0/bin/../lib/gcc/riscv-none-embed/8.2.0/../../../../riscv-none-embed/lib/rv32imafc/ilp32f\libc_nano.a(lib_a-fflush.o)
                              d:/rt-threadstudio/repo/extract/toolchain_support_packages/wch/risc-v-gcc-wch/8.2.0/bin/../lib/gcc/riscv-none-embed/8.2.0/../../../../riscv-none-embed/lib/rv32imafc/ilp32f\libc_nano.a(lib_a-fclose.o) (__sflush_r)
d:/rt-threadstudio/repo/extract/toolchain_support_packages/wch/risc-v-gcc-wch/8.2.0/bin/../lib/gcc/riscv-none-embed/8.2.0/../../../../riscv-none-embed/lib/rv32imafc/ilp32f\libc_nano.a(lib_a-fileno.o)
                              ./rt-thread/components/libc/compilers/newlib/stdio.o (fileno)
d:/rt-threadstudio/repo/extract/toolchain_support_packages/wch/risc-v-gcc-wch/8.2.0/bin/../lib/gcc/riscv-none-embed/8.2.0/../../../../riscv-none-embed/lib/rv32imafc/ilp32f\libc_nano.a(lib_a-findfp.o)
                              d:/rt-threadstudio/repo/extract/toolchain_support_packages/wch/risc-v-gcc-wch/8.2.0/bin/../lib/gcc/riscv-none-embed/8.2.0/../../../../riscv-none-embed/lib/rv32imafc/ilp32f\libc_nano.a(lib_a-fclose.o) (__sinit)
d:/rt-threadstudio/repo/extract/toolchain_support_packages/wch/risc-v-gcc-wch/8.2.0/bin/../lib/gcc/riscv-none-embed/8.2.0/../../../../riscv-none-embed/lib/rv32imafc/ilp32f\libc_nano.a(lib_a-fopen.o)
                              ./rt-thread/components/libc/compilers/newlib/stdio.o (fopen)
d:/rt-threadstudio/repo/extract/toolchain_support_packages/wch/risc-v-gcc-wch/8.2.0/bin/../lib/gcc/riscv-none-embed/8.2.0/../../../../riscv-none-embed/lib/rv32imafc/ilp32f\libc_nano.a(lib_a-fprintf.o)
                              d:/rt-threadstudio/repo/extract/toolchain_support_packages/wch/risc-v-gcc-wch/8.2.0/bin/../lib/gcc/riscv-none-embed/8.2.0/../../../../riscv-none-embed/lib/rv32imafc/ilp32f\libc_nano.a(lib_a-assert.o) (fiprintf)
d:/rt-threadstudio/repo/extract/toolchain_support_packages/wch/risc-v-gcc-wch/8.2.0/bin/../lib/gcc/riscv-none-embed/8.2.0/../../../../riscv-none-embed/lib/rv32imafc/ilp32f\libc_nano.a(lib_a-fseek.o)
                              d:/rt-threadstudio/repo/extract/toolchain_support_packages/wch/risc-v-gcc-wch/8.2.0/bin/../lib/gcc/riscv-none-embed/8.2.0/../../../../riscv-none-embed/lib/rv32imafc/ilp32f\libc_nano.a(lib_a-fopen.o) (_fseek_r)
d:/rt-threadstudio/repo/extract/toolchain_support_packages/wch/risc-v-gcc-wch/8.2.0/bin/../lib/gcc/riscv-none-embed/8.2.0/../../../../riscv-none-embed/lib/rv32imafc/ilp32f\libc_nano.a(lib_a-fseeko.o)
                              d:/rt-threadstudio/repo/extract/toolchain_support_packages/wch/risc-v-gcc-wch/8.2.0/bin/../lib/gcc/riscv-none-embed/8.2.0/../../../../riscv-none-embed/lib/rv32imafc/ilp32f\libc_nano.a(lib_a-fseek.o) (_fseeko_r)
d:/rt-threadstudio/repo/extract/toolchain_support_packages/wch/risc-v-gcc-wch/8.2.0/bin/../lib/gcc/riscv-none-embed/8.2.0/../../../../riscv-none-embed/lib/rv32imafc/ilp32f\libc_nano.a(lib_a-fwalk.o)
                              d:/rt-threadstudio/repo/extract/toolchain_support_packages/wch/risc-v-gcc-wch/8.2.0/bin/../lib/gcc/riscv-none-embed/8.2.0/../../../../riscv-none-embed/lib/rv32imafc/ilp32f\libc_nano.a(lib_a-findfp.o) (_fwalk)
d:/rt-threadstudio/repo/extract/toolchain_support_packages/wch/risc-v-gcc-wch/8.2.0/bin/../lib/gcc/riscv-none-embed/8.2.0/../../../../riscv-none-embed/lib/rv32imafc/ilp32f\libc_nano.a(lib_a-impure.o)
                              ./rt-thread/components/libc/compilers/newlib/stdio.o (_global_impure_ptr)
d:/rt-threadstudio/repo/extract/toolchain_support_packages/wch/risc-v-gcc-wch/8.2.0/bin/../lib/gcc/riscv-none-embed/8.2.0/../../../../riscv-none-embed/lib/rv32imafc/ilp32f\libc_nano.a(lib_a-makebuf.o)
                              d:/rt-threadstudio/repo/extract/toolchain_support_packages/wch/risc-v-gcc-wch/8.2.0/bin/../lib/gcc/riscv-none-embed/8.2.0/../../../../riscv-none-embed/lib/rv32imafc/ilp32f\libc_nano.a(lib_a-fseeko.o) (__smakebuf_r)
d:/rt-threadstudio/repo/extract/toolchain_support_packages/wch/risc-v-gcc-wch/8.2.0/bin/../lib/gcc/riscv-none-embed/8.2.0/../../../../riscv-none-embed/lib/rv32imafc/ilp32f\libc_nano.a(lib_a-memcmp.o)
                              ./rt-thread/components/finsh/shell.o (memcmp)
d:/rt-threadstudio/repo/extract/toolchain_support_packages/wch/risc-v-gcc-wch/8.2.0/bin/../lib/gcc/riscv-none-embed/8.2.0/../../../../riscv-none-embed/lib/rv32imafc/ilp32f\libc_nano.a(lib_a-memcpy.o)
                              ./rt-thread/components/finsh/cmd.o (memcpy)
d:/rt-threadstudio/repo/extract/toolchain_support_packages/wch/risc-v-gcc-wch/8.2.0/bin/../lib/gcc/riscv-none-embed/8.2.0/../../../../riscv-none-embed/lib/rv32imafc/ilp32f\libc_nano.a(lib_a-memmove.o)
                              ./lvgl/src/extra/libs/qrcode/qrcodegen.o (memmove)
d:/rt-threadstudio/repo/extract/toolchain_support_packages/wch/risc-v-gcc-wch/8.2.0/bin/../lib/gcc/riscv-none-embed/8.2.0/../../../../riscv-none-embed/lib/rv32imafc/ilp32f\libc_nano.a(lib_a-memset.o)
                              ./rt-thread/components/finsh/finsh_compiler.o (memset)
d:/rt-threadstudio/repo/extract/toolchain_support_packages/wch/risc-v-gcc-wch/8.2.0/bin/../lib/gcc/riscv-none-embed/8.2.0/../../../../riscv-none-embed/lib/rv32imafc/ilp32f\libc_nano.a(lib_a-nano-vfprintf.o)
                              d:/rt-threadstudio/repo/extract/toolchain_support_packages/wch/risc-v-gcc-wch/8.2.0/bin/../lib/gcc/riscv-none-embed/8.2.0/../../../../riscv-none-embed/lib/rv32imafc/ilp32f\libc_nano.a(lib_a-fprintf.o) (_vfprintf_r)
d:/rt-threadstudio/repo/extract/toolchain_support_packages/wch/risc-v-gcc-wch/8.2.0/bin/../lib/gcc/riscv-none-embed/8.2.0/../../../../riscv-none-embed/lib/rv32imafc/ilp32f\libc_nano.a(lib_a-nano-vfprintf_i.o)
                              d:/rt-threadstudio/repo/extract/toolchain_support_packages/wch/risc-v-gcc-wch/8.2.0/bin/../lib/gcc/riscv-none-embed/8.2.0/../../../../riscv-none-embed/lib/rv32imafc/ilp32f\libc_nano.a(lib_a-nano-vfprintf.o) (_printf_i)
d:/rt-threadstudio/repo/extract/toolchain_support_packages/wch/risc-v-gcc-wch/8.2.0/bin/../lib/gcc/riscv-none-embed/8.2.0/../../../../riscv-none-embed/lib/rv32imafc/ilp32f\libc_nano.a(lib_a-printf.o)
                              ./libraries/hal_libraries/ch32v307_hal/source/ch32v30x_eth.o (printf)
d:/rt-threadstudio/repo/extract/toolchain_support_packages/wch/risc-v-gcc-wch/8.2.0/bin/../lib/gcc/riscv-none-embed/8.2.0/../../../../riscv-none-embed/lib/rv32imafc/ilp32f\libc_nano.a(lib_a-puts.o)
                              ./libraries/hal_libraries/ch32v307_hal/source/ch32v30x_eth.o (puts)
d:/rt-threadstudio/repo/extract/toolchain_support_packages/wch/risc-v-gcc-wch/8.2.0/bin/../lib/gcc/riscv-none-embed/8.2.0/../../../../riscv-none-embed/lib/rv32imafc/ilp32f\libc_nano.a(lib_a-setvbuf.o)
                              ./rt-thread/components/libc/compilers/newlib/stdio.o (setvbuf)
d:/rt-threadstudio/repo/extract/toolchain_support_packages/wch/risc-v-gcc-wch/8.2.0/bin/../lib/gcc/riscv-none-embed/8.2.0/../../../../riscv-none-embed/lib/rv32imafc/ilp32f\libc_nano.a(lib_a-snprintf.o)
                              ./rt-thread/components/libc/compilers/newlib/stdio.o (snprintf)
d:/rt-threadstudio/repo/extract/toolchain_support_packages/wch/risc-v-gcc-wch/8.2.0/bin/../lib/gcc/riscv-none-embed/8.2.0/../../../../riscv-none-embed/lib/rv32imafc/ilp32f\libc_nano.a(lib_a-stdio.o)
                              d:/rt-threadstudio/repo/extract/toolchain_support_packages/wch/risc-v-gcc-wch/8.2.0/bin/../lib/gcc/riscv-none-embed/8.2.0/../../../../riscv-none-embed/lib/rv32imafc/ilp32f\libc_nano.a(lib_a-findfp.o) (__sread)
d:/rt-threadstudio/repo/extract/toolchain_support_packages/wch/risc-v-gcc-wch/8.2.0/bin/../lib/gcc/riscv-none-embed/8.2.0/../../../../riscv-none-embed/lib/rv32imafc/ilp32f\libc_nano.a(lib_a-strcat.o)
                              ./rt-thread/components/finsh/shell.o (strcat)
d:/rt-threadstudio/repo/extract/toolchain_support_packages/wch/risc-v-gcc-wch/8.2.0/bin/../lib/gcc/riscv-none-embed/8.2.0/../../../../riscv-none-embed/lib/rv32imafc/ilp32f\libc_nano.a(lib_a-strchr.o)
                              ./lvgl/src/extra/libs/qrcode/qrcodegen.o (strchr)
d:/rt-threadstudio/repo/extract/toolchain_support_packages/wch/risc-v-gcc-wch/8.2.0/bin/../lib/gcc/riscv-none-embed/8.2.0/../../../../riscv-none-embed/lib/rv32imafc/ilp32f\libc_nano.a(lib_a-strcmp.o)
                              ./rt-thread/components/finsh/finsh_token.o (strcmp)
d:/rt-threadstudio/repo/extract/toolchain_support_packages/wch/risc-v-gcc-wch/8.2.0/bin/../lib/gcc/riscv-none-embed/8.2.0/../../../../riscv-none-embed/lib/rv32imafc/ilp32f\libc_nano.a(lib_a-strcpy.o)
                              ./rt-thread/components/finsh/shell.o (strcpy)
d:/rt-threadstudio/repo/extract/toolchain_support_packages/wch/risc-v-gcc-wch/8.2.0/bin/../lib/gcc/riscv-none-embed/8.2.0/../../../../riscv-none-embed/lib/rv32imafc/ilp32f\libc_nano.a(lib_a-strlen.o)
                              ./rt-thread/components/finsh/cmd.o (strlen)
d:/rt-threadstudio/repo/extract/toolchain_support_packages/wch/risc-v-gcc-wch/8.2.0/bin/../lib/gcc/riscv-none-embed/8.2.0/../../../../riscv-none-embed/lib/rv32imafc/ilp32f\libc_nano.a(lib_a-strncmp.o)
                              ./rt-thread/components/finsh/cmd.o (strncmp)
d:/rt-threadstudio/repo/extract/toolchain_support_packages/wch/risc-v-gcc-wch/8.2.0/bin/../lib/gcc/riscv-none-embed/8.2.0/../../../../riscv-none-embed/lib/rv32imafc/ilp32f\libc_nano.a(lib_a-strncpy.o)
                              ./rt-thread/components/finsh/finsh_node.o (strncpy)
d:/rt-threadstudio/repo/extract/toolchain_support_packages/wch/risc-v-gcc-wch/8.2.0/bin/../lib/gcc/riscv-none-embed/8.2.0/../../../../riscv-none-embed/lib/rv32imafc/ilp32f\libc_nano.a(lib_a-strtol.o)
                              d:/rt-threadstudio/repo/extract/toolchain_support_packages/wch/risc-v-gcc-wch/8.2.0/bin/../lib/gcc/riscv-none-embed/8.2.0/../../../../riscv-none-embed/lib/rv32imafc/ilp32f\libc_nano.a(lib_a-atoi.o) (_strtol_r)
d:/rt-threadstudio/repo/extract/toolchain_support_packages/wch/risc-v-gcc-wch/8.2.0/bin/../lib/gcc/riscv-none-embed/8.2.0/../../../../riscv-none-embed/lib/rv32imafc/ilp32f\libc_nano.a(lib_a-wbuf.o)
                              d:/rt-threadstudio/repo/extract/toolchain_support_packages/wch/risc-v-gcc-wch/8.2.0/bin/../lib/gcc/riscv-none-embed/8.2.0/../../../../riscv-none-embed/lib/rv32imafc/ilp32f\libc_nano.a(lib_a-nano-vfprintf.o) (__swbuf_r)
d:/rt-threadstudio/repo/extract/toolchain_support_packages/wch/risc-v-gcc-wch/8.2.0/bin/../lib/gcc/riscv-none-embed/8.2.0/../../../../riscv-none-embed/lib/rv32imafc/ilp32f\libc_nano.a(lib_a-wsetup.o)
                              d:/rt-threadstudio/repo/extract/toolchain_support_packages/wch/risc-v-gcc-wch/8.2.0/bin/../lib/gcc/riscv-none-embed/8.2.0/../../../../riscv-none-embed/lib/rv32imafc/ilp32f\libc_nano.a(lib_a-nano-vfprintf.o) (__swsetup_r)
d:/rt-threadstudio/repo/extract/toolchain_support_packages/wch/risc-v-gcc-wch/8.2.0/bin/../lib/gcc/riscv-none-embed/8.2.0/../../../../riscv-none-embed/lib/rv32imafc/ilp32f\libc_nano.a(lib_a-abort.o)
                              d:/rt-threadstudio/repo/extract/toolchain_support_packages/wch/risc-v-gcc-wch/8.2.0/bin/../lib/gcc/riscv-none-embed/8.2.0/../../../../riscv-none-embed/lib/rv32imafc/ilp32f\libc_nano.a(lib_a-assert.o) (abort)
d:/rt-threadstudio/repo/extract/toolchain_support_packages/wch/risc-v-gcc-wch/8.2.0/bin/../lib/gcc/riscv-none-embed/8.2.0/../../../../riscv-none-embed/lib/rv32imafc/ilp32f\libc_nano.a(lib_a-flags.o)
                              d:/rt-threadstudio/repo/extract/toolchain_support_packages/wch/risc-v-gcc-wch/8.2.0/bin/../lib/gcc/riscv-none-embed/8.2.0/../../../../riscv-none-embed/lib/rv32imafc/ilp32f\libc_nano.a(lib_a-fopen.o) (__sflags)
d:/rt-threadstudio/repo/extract/toolchain_support_packages/wch/risc-v-gcc-wch/8.2.0/bin/../lib/gcc/riscv-none-embed/8.2.0/../../../../riscv-none-embed/lib/rv32imafc/ilp32f\libc_nano.a(lib_a-fvwrite.o)
                              d:/rt-threadstudio/repo/extract/toolchain_support_packages/wch/risc-v-gcc-wch/8.2.0/bin/../lib/gcc/riscv-none-embed/8.2.0/../../../../riscv-none-embed/lib/rv32imafc/ilp32f\libc_nano.a(lib_a-nano-vfprintf.o) (__sfvwrite_r)
d:/rt-threadstudio/repo/extract/toolchain_support_packages/wch/risc-v-gcc-wch/8.2.0/bin/../lib/gcc/riscv-none-embed/8.2.0/../../../../riscv-none-embed/lib/rv32imafc/ilp32f\libc_nano.a(lib_a-locale.o)
                              d:/rt-threadstudio/repo/extract/toolchain_support_packages/wch/risc-v-gcc-wch/8.2.0/bin/../lib/gcc/riscv-none-embed/8.2.0/../../../../riscv-none-embed/lib/rv32imafc/ilp32f\libc_nano.a(lib_a-strtol.o) (__locale_ctype_ptr_l)
d:/rt-threadstudio/repo/extract/toolchain_support_packages/wch/risc-v-gcc-wch/8.2.0/bin/../lib/gcc/riscv-none-embed/8.2.0/../../../../riscv-none-embed/lib/rv32imafc/ilp32f\libc_nano.a(lib_a-malloc.o)
                              d:/rt-threadstudio/repo/extract/toolchain_support_packages/wch/risc-v-gcc-wch/8.2.0/bin/../lib/gcc/riscv-none-embed/8.2.0/../../../../riscv-none-embed/lib/rv32imafc/ilp32f\libc_nano.a(lib_a-setvbuf.o) (malloc)
d:/rt-threadstudio/repo/extract/toolchain_support_packages/wch/risc-v-gcc-wch/8.2.0/bin/../lib/gcc/riscv-none-embed/8.2.0/../../../../riscv-none-embed/lib/rv32imafc/ilp32f\libc_nano.a(lib_a-mbtowc_r.o)
                              d:/rt-threadstudio/repo/extract/toolchain_support_packages/wch/risc-v-gcc-wch/8.2.0/bin/../lib/gcc/riscv-none-embed/8.2.0/../../../../riscv-none-embed/lib/rv32imafc/ilp32f\libc_nano.a(lib_a-locale.o) (__ascii_mbtowc)
d:/rt-threadstudio/repo/extract/toolchain_support_packages/wch/risc-v-gcc-wch/8.2.0/bin/../lib/gcc/riscv-none-embed/8.2.0/../../../../riscv-none-embed/lib/rv32imafc/ilp32f\libc_nano.a(lib_a-memchr.o)
                              d:/rt-threadstudio/repo/extract/toolchain_support_packages/wch/risc-v-gcc-wch/8.2.0/bin/../lib/gcc/riscv-none-embed/8.2.0/../../../../riscv-none-embed/lib/rv32imafc/ilp32f\libc_nano.a(lib_a-nano-vfprintf.o) (memchr)
d:/rt-threadstudio/repo/extract/toolchain_support_packages/wch/risc-v-gcc-wch/8.2.0/bin/../lib/gcc/riscv-none-embed/8.2.0/../../../../riscv-none-embed/lib/rv32imafc/ilp32f\libc_nano.a(lib_a-nano-svfprintf.o)
                              d:/rt-threadstudio/repo/extract/toolchain_support_packages/wch/risc-v-gcc-wch/8.2.0/bin/../lib/gcc/riscv-none-embed/8.2.0/../../../../riscv-none-embed/lib/rv32imafc/ilp32f\libc_nano.a(lib_a-snprintf.o) (_svfprintf_r)
d:/rt-threadstudio/repo/extract/toolchain_support_packages/wch/risc-v-gcc-wch/8.2.0/bin/../lib/gcc/riscv-none-embed/8.2.0/../../../../riscv-none-embed/lib/rv32imafc/ilp32f\libc_nano.a(lib_a-signal.o)
                              d:/rt-threadstudio/repo/extract/toolchain_support_packages/wch/risc-v-gcc-wch/8.2.0/bin/../lib/gcc/riscv-none-embed/8.2.0/../../../../riscv-none-embed/lib/rv32imafc/ilp32f\libc_nano.a(lib_a-abort.o) (raise)
d:/rt-threadstudio/repo/extract/toolchain_support_packages/wch/risc-v-gcc-wch/8.2.0/bin/../lib/gcc/riscv-none-embed/8.2.0/../../../../riscv-none-embed/lib/rv32imafc/ilp32f\libc_nano.a(lib_a-wctomb_r.o)
                              d:/rt-threadstudio/repo/extract/toolchain_support_packages/wch/risc-v-gcc-wch/8.2.0/bin/../lib/gcc/riscv-none-embed/8.2.0/../../../../riscv-none-embed/lib/rv32imafc/ilp32f\libc_nano.a(lib_a-locale.o) (__ascii_wctomb)
d:/rt-threadstudio/repo/extract/toolchain_support_packages/wch/risc-v-gcc-wch/8.2.0/bin/../lib/gcc/riscv-none-embed/8.2.0/../../../../riscv-none-embed/lib/rv32imafc/ilp32f\libc_nano.a(lib_a-ctype_.o)
                              d:/rt-threadstudio/repo/extract/toolchain_support_packages/wch/risc-v-gcc-wch/8.2.0/bin/../lib/gcc/riscv-none-embed/8.2.0/../../../../riscv-none-embed/lib/rv32imafc/ilp32f\libc_nano.a(lib_a-locale.o) (_ctype_)
d:/rt-threadstudio/repo/extract/toolchain_support_packages/wch/risc-v-gcc-wch/8.2.0/bin/../lib/gcc/riscv-none-embed/8.2.0/rv32imafc/ilp32f\libgcc.a(_ffssi2.o)
                              ./lvgl/src/misc/lv_tlsf.o (__ffssi2)
d:/rt-threadstudio/repo/extract/toolchain_support_packages/wch/risc-v-gcc-wch/8.2.0/bin/../lib/gcc/riscv-none-embed/8.2.0/rv32imafc/ilp32f\libgcc.a(_clz.o)
                              d:/rt-threadstudio/repo/extract/toolchain_support_packages/wch/risc-v-gcc-wch/8.2.0/bin/../lib/gcc/riscv-none-embed/8.2.0/rv32imafc/ilp32f\libgcc.a(_ffssi2.o) (__clz_tab)
d:/rt-threadstudio/repo/extract/toolchain_support_packages/wch/risc-v-gcc-wch/8.2.0/bin/../lib/gcc/riscv-none-embed/8.2.0/rv32imafc/ilp32f\libgcc.a(_clzsi2.o)
                              ./lvgl/src/misc/lv_tlsf.o (__clzsi2)
d:/rt-threadstudio/repo/extract/toolchain_support_packages/wch/risc-v-gcc-wch/8.2.0/bin/../lib/gcc/riscv-none-embed/8.2.0/rv32imafc/ilp32f\libgcc.a(_divdi3.o)
                              ./rt-thread/components/libc/compilers/common/time.o (__divdi3)
d:/rt-threadstudio/repo/extract/toolchain_support_packages/wch/risc-v-gcc-wch/8.2.0/bin/../lib/gcc/riscv-none-embed/8.2.0/rv32imafc/ilp32f\libgcc.a(_moddi3.o)
                              ./rt-thread/components/libc/compilers/common/time.o (__moddi3)
d:/rt-threadstudio/repo/extract/toolchain_support_packages/wch/risc-v-gcc-wch/8.2.0/bin/../lib/gcc/riscv-none-embed/8.2.0/rv32imafc/ilp32f\libgcc.a(_udivdi3.o)
                              ./rt-thread/components/libc/compilers/common/time.o (__udivdi3)
d:/rt-threadstudio/repo/extract/toolchain_support_packages/wch/risc-v-gcc-wch/8.2.0/bin/../lib/gcc/riscv-none-embed/8.2.0/rv32imafc/ilp32f\libgcc.a(_umoddi3.o)
                              ./lvgl/src/misc/lv_printf.o (__umoddi3)
d:/rt-threadstudio/repo/extract/toolchain_support_packages/wch/risc-v-gcc-wch/8.2.0/bin/../lib/gcc/riscv-none-embed/8.2.0/rv32imafc/ilp32f\libgcc.a(save-restore.o)
                              ./rt-thread/components/finsh/cmd.o (__riscv_save_12)

Discarded input sections

 .text          0x0000000000000000        0x0 ./rt-thread/src/clock.o
 .data          0x0000000000000000        0x0 ./rt-thread/src/clock.o
 .bss           0x0000000000000000        0x0 ./rt-thread/src/clock.o
 .text.rt_tick_set
                0x0000000000000000       0x2a ./rt-thread/src/clock.o
 .text.rt_tick_get_millisecond
                0x0000000000000000        0xa ./rt-thread/src/clock.o
 .text          0x0000000000000000        0x0 ./rt-thread/src/components.o
 .data          0x0000000000000000        0x0 ./rt-thread/src/components.o
 .bss           0x0000000000000000        0x0 ./rt-thread/src/components.o
 .text          0x0000000000000000        0x0 ./rt-thread/src/device.o
 .data          0x0000000000000000        0x0 ./rt-thread/src/device.o
 .bss           0x0000000000000000        0x0 ./rt-thread/src/device.o
 .text.rt_device_unregister
                0x0000000000000000       0x1a ./rt-thread/src/device.o
 .text.rt_device_create
                0x0000000000000000       0x3a ./rt-thread/src/device.o
 .text.rt_device_destroy
Memory Configuration

Name             Origin             Length             Attributes
FLASH            0x0000000000000000 0x0000000000040000 xr
RAM              0x0000000020000000 0x0000000000010000 xrw
*default*        0x0000000000000000 0xffffffffffffffff

Linker script and memory map

LOAD ./rt-thread/src/clock.o
LOAD ./rt-thread/src/components.o
LOAD ./rt-thread/src/device.o
LOAD ./rt-thread/src/idle.o
LOAD ./rt-thread/src/ipc.o
LOAD ./rt-thread/src/irq.o
LOAD ./rt-thread/src/kservice.o
LOAD ./rt-thread/src/mem.o
LOAD ./rt-thread/src/object.o
LOAD ./rt-thread/src/scheduler.o
LOAD ./rt-thread/src/thread.o
LOAD ./rt-thread/src/timer.o
LOAD ./rt-thread/components/libc/compilers/newlib/libc.o
LOAD ./rt-thread/components/libc/compilers/newlib/stdio.o
LOAD ./rt-thread/components/libc/compilers/newlib/syscalls.o
LOAD ./rt-thread/components/libc/compilers/common/stdlib.o
LOAD ./rt-thread/components/libc/compilers/common/time.o
LOAD ./rt-thread/components/finsh/cmd.o
LOAD ./rt-thread/components/finsh/finsh_compiler.o
LOAD ./rt-thread/components/finsh/finsh_error.o
LOAD ./rt-thread/components/finsh/finsh_heap.o
LOAD ./rt-thread/components/finsh/finsh_init.o
LOAD ./rt-thread/components/finsh/finsh_node.o
LOAD ./rt-thread/components/finsh/finsh_ops.o
LOAD ./rt-thread/components/finsh/finsh_parser.o
LOAD ./rt-thread/components/finsh/finsh_token.o
LOAD ./rt-thread/components/finsh/finsh_var.o
LOAD ./rt-thread/components/finsh/finsh_vm.o
LOAD ./rt-thread/components/finsh/msh.o
LOAD ./rt-thread/components/finsh/shell.o
LOAD ./rt-thread/components/drivers/src/completion.o
LOAD ./rt-thread/components/drivers/src/dataqueue.o
LOAD ./rt-thread/components/drivers/src/pipe.o
LOAD ./rt-thread/components/drivers/src/ringblk_buf.o
LOAD ./rt-thread/components/drivers/src/ringbuffer.o
LOAD ./rt-thread/components/drivers/src/waitqueue.o
LOAD ./rt-thread/components/drivers/src/workqueue.o
LOAD ./rt-thread/components/drivers/serial/serial.o
LOAD ./rt-thread/components/drivers/misc/pin.o
LOAD ./lvgl/src/widgets/lv_arc.o
LOAD ./lvgl/src/widgets/lv_bar.o
LOAD ./lvgl/src/widgets/lv_btn.o
LOAD ./lvgl/src/widgets/lv_btnmatrix.o
LOAD ./lvgl/src/widgets/lv_canvas.o
LOAD ./lvgl/src/widgets/lv_checkbox.o
LOAD ./lvgl/src/widgets/lv_dropdown.o
LOAD ./lvgl/src/widgets/lv_img.o
LOAD ./lvgl/src/widgets/lv_label.o
LOAD ./lvgl/src/widgets/lv_line.o
LOAD ./lvgl/src/widgets/lv_objx_templ.o
LOAD ./lvgl/src/widgets/lv_roller.o
LOAD ./lvgl/src/widgets/lv_slider.o
LOAD ./lvgl/src/widgets/lv_switch.o
LOAD ./lvgl/src/widgets/lv_table.o
LOAD ./lvgl/src/widgets/lv_textarea.o
LOAD ./lvgl/src/misc/lv_anim.o
LOAD ./lvgl/src/misc/lv_anim_timeline.o
LOAD ./lvgl/src/misc/lv_area.o
LOAD ./lvgl/src/misc/lv_async.o
LOAD ./lvgl/src/misc/lv_bidi.o
LOAD ./lvgl/src/misc/lv_color.o
LOAD ./lvgl/src/misc/lv_fs.o
LOAD ./lvgl/src/misc/lv_gc.o
LOAD ./lvgl/src/misc/lv_ll.o
LOAD ./lvgl/src/misc/lv_log.o
LOAD ./lvgl/src/misc/lv_lru.o
LOAD ./lvgl/src/misc/lv_math.o
LOAD ./lvgl/src/misc/lv_mem.o
LOAD ./lvgl/src/misc/lv_printf.o
LOAD ./lvgl/src/misc/lv_style.o
LOAD ./lvgl/src/misc/lv_style_gen.o
LOAD ./lvgl/src/misc/lv_templ.o
LOAD ./lvgl/src/misc/lv_timer.o
LOAD ./lvgl/src/misc/lv_tlsf.o
LOAD ./lvgl/src/misc/lv_txt.o
LOAD ./lvgl/src/misc/lv_txt_ap.o
LOAD ./lvgl/src/misc/lv_utils.o
LOAD ./lvgl/src/hal/lv_hal_disp.o
LOAD ./lvgl/src/hal/lv_hal_indev.o
LOAD ./lvgl/src/hal/lv_hal_tick.o
LOAD ./lvgl/src/font/lv_font.o
LOAD ./lvgl/src/font/lv_font_dejavu_16_persian_hebrew.o
LOAD ./lvgl/src/font/lv_font_fmt_txt.o
LOAD ./lvgl/src/font/lv_font_loader.o
LOAD ./lvgl/src/font/lv_font_montserrat_10.o
LOAD ./lvgl/src/font/lv_font_montserrat_12.o
LOAD ./lvgl/src/font/lv_font_montserrat_12_subpx.o
LOAD ./lvgl/src/font/lv_font_montserrat_14.o
LOAD ./lvgl/src/font/lv_font_montserrat_16.o
LOAD ./lvgl/src/font/lv_font_montserrat_18.o
LOAD ./lvgl/src/font/lv_font_montserrat_20.o
LOAD ./lvgl/src/font/lv_font_montserrat_22.o
LOAD ./lvgl/src/font/lv_font_montserrat_24.o
LOAD ./lvgl/src/font/lv_font_montserrat_26.o
LOAD ./lvgl/src/font/lv_font_montserrat_28.o
LOAD ./lvgl/src/font/lv_font_montserrat_28_compressed.o
LOAD ./lvgl/src/font/lv_font_montserrat_30.o
LOAD ./lvgl/src/font/lv_font_montserrat_32.o
LOAD ./lvgl/src/font/lv_font_montserrat_34.o
LOAD ./lvgl/src/font/lv_font_montserrat_36.o
LOAD ./lvgl/src/font/lv_font_montserrat_38.o
LOAD ./lvgl/src/font/lv_font_montserrat_40.o
LOAD ./lvgl/src/font/lv_font_montserrat_42.o
LOAD ./lvgl/src/font/lv_font_montserrat_44.o
LOAD ./lvgl/src/font/lv_font_montserrat_46.o
LOAD ./lvgl/src/font/lv_font_montserrat_48.o
LOAD ./lvgl/src/font/lv_font_montserrat_8.o
LOAD ./lvgl/src/font/lv_font_simsun_16_cjk.o
LOAD ./lvgl/src/font/lv_font_unscii_16.o
LOAD ./lvgl/src/font/lv_font_unscii_8.o
LOAD ./lvgl/src/extra/widgets/win/lv_win.o
LOAD ./lvgl/src/extra/widgets/tileview/lv_tileview.o
LOAD ./lvgl/src/extra/widgets/tabview/lv_tabview.o
LOAD ./lvgl/src/extra/widgets/spinner/lv_spinner.o
LOAD ./lvgl/src/extra/widgets/spinbox/lv_spinbox.o
LOAD ./lvgl/src/extra/widgets/span/lv_span.o
LOAD ./lvgl/src/extra/widgets/msgbox/lv_msgbox.o
LOAD ./lvgl/src/extra/widgets/meter/lv_meter.o
LOAD ./lvgl/src/extra/widgets/menu/lv_menu.o
LOAD ./lvgl/src/extra/widgets/list/lv_list.o
LOAD ./lvgl/src/extra/widgets/led/lv_led.o
LOAD ./lvgl/src/extra/widgets/keyboard/lv_keyboard.o
LOAD ./lvgl/src/extra/widgets/imgbtn/lv_imgbtn.o
LOAD ./lvgl/src/extra/widgets/colorwheel/lv_colorwheel.o
LOAD ./lvgl/src/extra/widgets/chart/lv_chart.o
LOAD ./lvgl/src/extra/widgets/calendar/lv_calendar.o
LOAD ./lvgl/src/extra/widgets/calendar/lv_calendar_header_arrow.o
LOAD ./lvgl/src/extra/widgets/calendar/lv_calendar_header_dropdown.o
LOAD ./lvgl/src/extra/widgets/animimg/lv_animimg.o
LOAD ./lvgl/src/extra/themes/mono/lv_theme_mono.o
LOAD ./lvgl/src/extra/themes/default/lv_theme_default.o
LOAD ./lvgl/src/extra/themes/basic/lv_theme_basic.o
LOAD ./lvgl/src/extra/others/snapshot/lv_snapshot.o
LOAD ./lvgl/src/extra/others/msg/lv_msg.o
LOAD ./lvgl/src/extra/others/monkey/lv_monkey.o
LOAD ./lvgl/src/extra/others/imgfont/lv_imgfont.o
LOAD ./lvgl/src/extra/others/gridnav/lv_gridnav.o
LOAD ./lvgl/src/extra/others/fragment/lv_fragment.o
LOAD ./lvgl/src/extra/others/fragment/lv_fragment_manager.o
LOAD ./lvgl/src/extra/libs/sjpg/lv_sjpg.o
LOAD ./lvgl/src/extra/libs/sjpg/tjpgd.o
LOAD ./lvgl/src/extra/libs/rlottie/lv_rlottie.o
LOAD ./lvgl/src/extra/libs/qrcode/lv_qrcode.o
LOAD ./lvgl/src/extra/libs/qrcode/qrcodegen.o
LOAD ./lvgl/src/extra/libs/png/lodepng.o
LOAD ./lvgl/src/extra/libs/png/lv_png.o
LOAD ./lvgl/src/extra/libs/gif/gifdec.o
LOAD ./lvgl/src/extra/libs/gif/lv_gif.o
LOAD ./lvgl/src/extra/libs/fsdrv/lv_fs_fatfs.o
LOAD ./lvgl/src/extra/libs/fsdrv/lv_fs_posix.o
LOAD ./lvgl/src/extra/libs/fsdrv/lv_fs_stdio.o
LOAD ./lvgl/src/extra/libs/fsdrv/lv_fs_win32.o
LOAD ./lvgl/src/extra/libs/freetype/lv_freetype.o
LOAD ./lvgl/src/extra/libs/ffmpeg/lv_ffmpeg.o
LOAD ./lvgl/src/extra/libs/bmp/lv_bmp.o
LOAD ./lvgl/src/extra/layouts/grid/lv_grid.o
LOAD ./lvgl/src/extra/layouts/flex/lv_flex.o
LOAD ./lvgl/src/extra/lv_extra.o
LOAD ./lvgl/src/draw/sw/lv_draw_sw.o
LOAD ./lvgl/src/draw/sw/lv_draw_sw_arc.o
LOAD ./lvgl/src/draw/sw/lv_draw_sw_blend.o
LOAD ./lvgl/src/draw/sw/lv_draw_sw_dither.o
LOAD ./lvgl/src/draw/sw/lv_draw_sw_gradient.o
LOAD ./lvgl/src/draw/sw/lv_draw_sw_img.o
LOAD ./lvgl/src/draw/sw/lv_draw_sw_letter.o
LOAD ./lvgl/src/draw/sw/lv_draw_sw_line.o
LOAD ./lvgl/src/draw/sw/lv_draw_sw_polygon.o
LOAD ./lvgl/src/draw/sw/lv_draw_sw_rect.o
LOAD ./lvgl/src/draw/stm32_dma2d/lv_gpu_stm32_dma2d.o
LOAD ./lvgl/src/draw/sdl/lv_draw_sdl.o
LOAD ./lvgl/src/draw/sdl/lv_draw_sdl_arc.o
LOAD ./lvgl/src/draw/sdl/lv_draw_sdl_bg.o
LOAD ./lvgl/src/draw/sdl/lv_draw_sdl_composite.o
LOAD ./lvgl/src/draw/sdl/lv_draw_sdl_img.o
LOAD ./lvgl/src/draw/sdl/lv_draw_sdl_label.o
LOAD ./lvgl/src/draw/sdl/lv_draw_sdl_line.o
LOAD ./lvgl/src/draw/sdl/lv_draw_sdl_mask.o
LOAD ./lvgl/src/draw/sdl/lv_draw_sdl_polygon.o
LOAD ./lvgl/src/draw/sdl/lv_draw_sdl_rect.o
LOAD ./lvgl/src/draw/sdl/lv_draw_sdl_stack_blur.o
LOAD ./lvgl/src/draw/sdl/lv_draw_sdl_texture_cache.o
LOAD ./lvgl/src/draw/sdl/lv_draw_sdl_utils.o
LOAD ./lvgl/src/draw/nxp_vglite/lv_gpu_nxp_vglite.o
LOAD ./lvgl/src/draw/nxp_pxp/lv_gpu_nxp_pxp.o
LOAD ./lvgl/src/draw/nxp_pxp/lv_gpu_nxp_pxp_osa.o
LOAD ./lvgl/src/draw/arm2d/lv_gpu_arm2d.o
LOAD ./lvgl/src/draw/lv_draw.o
LOAD ./lvgl/src/draw/lv_draw_arc.o
LOAD ./lvgl/src/draw/lv_draw_img.o
LOAD ./lvgl/src/draw/lv_draw_label.o
LOAD ./lvgl/src/draw/lv_draw_line.o
LOAD ./lvgl/src/draw/lv_draw_mask.o
LOAD ./lvgl/src/draw/lv_draw_rect.o
LOAD ./lvgl/src/draw/lv_draw_triangle.o
LOAD ./lvgl/src/draw/lv_img_buf.o
LOAD ./lvgl/src/draw/lv_img_cache.o
LOAD ./lvgl/src/draw/lv_img_decoder.o
LOAD ./lvgl/src/core/lv_disp.o
LOAD ./lvgl/src/core/lv_event.o
LOAD ./lvgl/src/core/lv_group.o
LOAD ./lvgl/src/core/lv_indev.o
LOAD ./lvgl/src/core/lv_indev_scroll.o
LOAD ./lvgl/src/core/lv_obj.o
LOAD ./lvgl/src/core/lv_obj_class.o
LOAD ./lvgl/src/core/lv_obj_draw.o
LOAD ./lvgl/src/core/lv_obj_pos.o
LOAD ./lvgl/src/core/lv_obj_scroll.o
LOAD ./lvgl/src/core/lv_obj_style.o
LOAD ./lvgl/src/core/lv_obj_style_gen.o
LOAD ./lvgl/src/core/lv_obj_tree.o
LOAD ./lvgl/src/core/lv_refr.o
LOAD ./lvgl/src/core/lv_theme.o
LOAD ./libraries/hal_libraries/ch32v307_hal/source/ch32v30x_adc.o
LOAD ./libraries/hal_libraries/ch32v307_hal/source/ch32v30x_bkp.o
LOAD ./libraries/hal_libraries/ch32v307_hal/source/ch32v30x_can.o
LOAD ./libraries/hal_libraries/ch32v307_hal/source/ch32v30x_crc.o
LOAD ./libraries/hal_libraries/ch32v307_hal/source/ch32v30x_dac.o
LOAD ./libraries/hal_libraries/ch32v307_hal/source/ch32v30x_dbgmcu.o
LOAD ./libraries/hal_libraries/ch32v307_hal/source/ch32v30x_dma.o
LOAD ./libraries/hal_libraries/ch32v307_hal/source/ch32v30x_dvp.o
LOAD ./libraries/hal_libraries/ch32v307_hal/source/ch32v30x_eth.o
LOAD ./libraries/hal_libraries/ch32v307_hal/source/ch32v30x_exti.o
LOAD ./libraries/hal_libraries/ch32v307_hal/source/ch32v30x_flash.o
LOAD ./libraries/hal_libraries/ch32v307_hal/source/ch32v30x_fsmc.o
LOAD ./libraries/hal_libraries/ch32v307_hal/source/ch32v30x_gpio.o
LOAD ./libraries/hal_libraries/ch32v307_hal/source/ch32v30x_i2c.o
LOAD ./libraries/hal_libraries/ch32v307_hal/source/ch32v30x_iwdg.o
LOAD ./libraries/hal_libraries/ch32v307_hal/source/ch32v30x_misc.o
LOAD ./libraries/hal_libraries/ch32v307_hal/source/ch32v30x_opa.o
LOAD ./libraries/hal_libraries/ch32v307_hal/source/ch32v30x_pwr.o
LOAD ./libraries/hal_libraries/ch32v307_hal/source/ch32v30x_rcc.o
LOAD ./libraries/hal_libraries/ch32v307_hal/source/ch32v30x_rng.o
LOAD ./libraries/hal_libraries/ch32v307_hal/source/ch32v30x_rtc.o
LOAD ./libraries/hal_libraries/ch32v307_hal/source/ch32v30x_sdio.o
LOAD ./libraries/hal_libraries/ch32v307_hal/source/ch32v30x_spi.o
LOAD ./libraries/hal_libraries/ch32v307_hal/source/ch32v30x_tim.o
LOAD ./libraries/hal_libraries/ch32v307_hal/source/ch32v30x_usart.o
LOAD ./libraries/hal_libraries/ch32v307_hal/source/ch32v30x_wwdg.o
LOAD ./libraries/hal_libraries/bmsis/source/ch32v30x_it.o
LOAD ./libraries/hal_libraries/bmsis/source/core_riscv.o
LOAD ./libraries/hal_libraries/bmsis/source/debug.o
LOAD ./libraries/hal_libraries/bmsis/source/startup_ch32v30x.o
LOAD ./libraries/hal_libraries/bmsis/source/system_ch32v30x.o
LOAD ./libraries/hal_drivers/drv_gpio.o
LOAD ./libraries/hal_drivers/drv_usart.o
LOAD ./libcpu/cpu/context_gcc.o
LOAD ./libcpu/cpu/cpuport.o
LOAD ./libcpu/cpu/interrupt_gcc.o
LOAD ./drivers/drv_common.o
LOAD ./drivers/drv_lcd.o
LOAD ./drivers/drv_touch.o
LOAD ./board/board.o
LOAD ./applications/lvgl/lv_demo.o
LOAD ./applications/lvgl/lv_port_disp.o
LOAD ./applications/lvgl/lv_port_indev.o
LOAD ./applications/demo/lvgl_test.o
LOAD ./applications/main.o
LOAD d:/rt-threadstudio/repo/extract/toolchain_support_packages/wch/risc-v-gcc-wch/8.2.0/bin/../lib/gcc/riscv-none-embed/8.2.0/../../../../riscv-none-embed/lib/rv32imafc/ilp32f\libc_nano.a
LOAD d:/rt-threadstudio/repo/extract/toolchain_support_packages/wch/risc-v-gcc-wch/8.2.0/bin/../lib/gcc/riscv-none-embed/8.2.0/../../../../riscv-none-embed/lib/rv32imafc/ilp32f\libm.a
LOAD d:/rt-threadstudio/repo/extract/toolchain_support_packages/wch/risc-v-gcc-wch/8.2.0/bin/../lib/gcc/riscv-none-embed/8.2.0/rv32imafc/ilp32f\libgcc.a
LOAD d:/rt-threadstudio/repo/extract/toolchain_support_packages/wch/risc-v-gcc-wch/8.2.0/bin/../lib/gcc/riscv-none-embed/8.2.0/../../../../riscv-none-embed/lib/rv32imafc/ilp32f\libg_nano.a
LOAD d:/rt-threadstudio/repo/extract/toolchain_support_packages/wch/risc-v-gcc-wch/8.2.0/bin/../lib/gcc/riscv-none-embed/8.2.0/../../../../riscv-none-embed/lib/rv32imafc/ilp32f\libc_nano.a
LOAD d:/rt-threadstudio/repo/extract/toolchain_support_packages/wch/risc-v-gcc-wch/8.2.0/bin/../lib/gcc/riscv-none-embed/8.2.0/rv32imafc/ilp32f\libgcc.a
START GROUP
LOAD d:/rt-threadstudio/repo/extract/toolchain_support_packages/wch/risc-v-gcc-wch/8.2.0/bin/../lib/gcc/riscv-none-embed/8.2.0/rv32imafc/ilp32f\libgcc.a
LOAD d:/rt-threadstudio/repo/extract/toolchain_support_packages/wch/risc-v-gcc-wch/8.2.0/bin/../lib/gcc/riscv-none-embed/8.2.0/../../../../riscv-none-embed/lib/rv32imafc/ilp32f\libc_nano.a
LOAD d:/rt-threadstudio/repo/extract/toolchain_support_packages/wch/risc-v-gcc-wch/8.2.0/bin/../lib/gcc/riscv-none-embed/8.2.0/../../../../riscv-none-embed/lib/rv32imafc/ilp32f\libnosys.a
END GROUP
START GROUP
LOAD d:/rt-threadstudio/repo/extract/toolchain_support_packages/wch/risc-v-gcc-wch/8.2.0/bin/../lib/gcc/riscv-none-embed/8.2.0/rv32imafc/ilp32f\libgcc.a
LOAD d:/rt-threadstudio/repo/extract/toolchain_support_packages/wch/risc-v-gcc-wch/8.2.0/bin/../lib/gcc/riscv-none-embed/8.2.0/../../../../riscv-none-embed/lib/rv32imafc/ilp32f\libc_nano.a
LOAD d:/rt-threadstudio/repo/extract/toolchain_support_packages/wch/risc-v-gcc-wch/8.2.0/bin/../lib/gcc/riscv-none-embed/8.2.0/../../../../riscv-none-embed/lib/rv32imafc/ilp32f\libnosys.a
END GROUP
                0x0000000000000800                __stack_size = 0x800
                [!provide]                        PROVIDE (_stack_size = __stack_size)

.init           0x0000000000000000       0x38
                0x0000000000000000                _sinit = .
                0x0000000000000000                . = ALIGN (0x4)
 *(SORT_NONE(.init))
 .init          0x0000000000000000       0x38 ./libraries/hal_libraries/bmsis/source/startup_ch32v30x.o
                0x0000000000000000                _start
                0x0000000000000038                . = ALIGN (0x4)
                0x0000000000000038                _einit = .

.vector         0x0000000000000038      0x1c8
 *(.vector)
 .vector        0x0000000000000038      0x1a0 ./libraries/hal_libraries/bmsis/source/startup_ch32v30x.o
                0x0000000000000200                . = ALIGN (0x40)
 *fill*         0x00000000000001d8       0x28 

.text           0x0000000000000200    0x35474
                0x0000000000000200                . = ALIGN (0x4)
 *(.text)
 .text          0x0000000000000200       0x74 ./libcpu/cpu/context_gcc.o
                0x0000000000000200                rt_hw_interrupt_disable
                0x0000000000000206                rt_hw_interrupt_enable
                0x000000000000020c                rt_hw_context_switch_to
                0x0000000000000228                rt_hw_context_switch_exit
 *fill*         0x0000000000000274        0x4 
 .text          0x0000000000000278       0xce ./libcpu/cpu/interrupt_gcc.o
                0x0000000000000278                SW_handler
 .text          0x0000000000000346       0xa8 d:/rt-threadstudio/repo/extract/toolchain_support_packages/wch/risc-v-gcc-wch/8.2.0/bin/../lib/gcc/riscv-none-embed/8.2.0/../../../../riscv-none-embed/lib/rv32imafc/ilp32f\libc_nano.a(lib_a-memset.o)
                0x0000000000000346                memset
 .text          0x00000000000003ee      0x11e d:/rt-threadstudio/repo/extract/toolchain_support_packages/wch/risc-v-gcc-wch/8.2.0/bin/../lib/gcc/riscv-none-embed/8.2.0/../../../../riscv-none-embed/lib/rv32imafc/ilp32f\libc_nano.a(lib_a-strcmp.o)
                0x00000000000003ee                strcmp
 .text          0x000000000000050c       0x60 d:/rt-threadstudio/repo/extract/toolchain_support_packages/wch/risc-v-gcc-wch/8.2.0/bin/../lib/gcc/riscv-none-embed/8.2.0/rv32imafc/ilp32f\libgcc.a(save-restore.o)
                0x000000000000050c                __riscv_save_12
                0x0000000000000514                __riscv_save_9
                0x0000000000000514                __riscv_save_11
                0x0000000000000514                __riscv_save_10
                0x0000000000000514                __riscv_save_8
                0x0000000000000522                __riscv_save_4
                0x0000000000000522                __riscv_save_6
                0x0000000000000522                __riscv_save_5
                0x0000000000000522                __riscv_save_7
                0x000000000000053c                __riscv_save_3
                0x000000000000053c                __riscv_save_2
                0x000000000000053c                __riscv_save_1
                0x000000000000053c                __riscv_save_0
                0x0000000000000548                __riscv_restore_12
                0x000000000000054c                __riscv_restore_11
                0x000000000000054c                __riscv_restore_9
                0x000000000000054c                __riscv_restore_10
                0x000000000000054c                __riscv_restore_8
                0x0000000000000556                __riscv_restore_5
                0x0000000000000556                __riscv_restore_7
                0x0000000000000556                __riscv_restore_6
                0x0000000000000556                __riscv_restore_4
                0x0000000000000560                __riscv_restore_3
                0x0000000000000560                __riscv_restore_0
                0x0000000000000560                __riscv_restore_2
                0x0000000000000560                __riscv_restore_1
 *(.text.*)
 .text.rt_tick_get
                0x000000000000056c        0x6 ./rt-thread/src/clock.o
                0x000000000000056c                rt_tick_get
 .text.rt_tick_increase
                0x0000000000000572       0x42 ./rt-thread/src/clock.o
                0x0000000000000572                rt_tick_increase
 .text.rt_tick_from_millisecond
                0x00000000000005b4       0x28 ./rt-thread/src/clock.o
                0x00000000000005b4                rt_tick_from_millisecond
 .text.rti_start
                0x00000000000005dc        0x4 ./rt-thread/src/components.o
 .text.rti_end  0x00000000000005e0        0x4 ./rt-thread/src/components.o
 .text.rti_board_start
                0x00000000000005e4        0x4 ./rt-thread/src/components.o
 .text.rti_board_end
                0x00000000000005e8        0x4 ./rt-thread/src/components.o
 .text.rt_components_board_init
                0x00000000000005ec       0x22 ./rt-thread/src/components.o
                0x00000000000005ec                rt_components_board_init
 .text.rt_components_init
                0x000000000000060e       0x22 ./rt-thread/src/components.o
                0x000000000000060e                rt_components_init
 .text.main_thread_entry
                0x0000000000000630        0xc ./rt-thread/src/components.o
                0x0000000000000630                main_thread_entry
 .text.rt_application_init
                0x000000000000063c       0x2a ./rt-thread/src/components.o
                0x000000000000063c                rt_application_init
 .text.rtthread_startup
                0x0000000000000666       0x26 ./rt-thread/src/components.o
                0x0000000000000666                rtthread_startup
 .text.entry    0x000000000000068c        0xa ./rt-thread/src/components.o
                0x000000000000068c                entry
 .text.rt_device_find
                0x0000000000000696        0xc ./rt-thread/src/device.o
                0x0000000000000696                rt_device_find
 .text.rt_device_register
                0x00000000000006a2       0x34 ./rt-thread/src/device.o
                0x00000000000006a2                rt_device_register
 .text.rt_device_open
                0x00000000000006d6       0x8e ./rt-thread/src/device.o
                0x00000000000006d6                rt_device_open
 .text.rt_device_close
                0x0000000000000764       0x3c ./rt-thread/src/device.o
                0x0000000000000764                rt_device_close
 .text.rt_device_read
                0x00000000000007a0       0x1e ./rt-thread/src/device.o
                0x00000000000007a0                rt_device_read
 .text.rt_device_write
                0x00000000000007be       0x1e ./rt-thread/src/device.o
                0x00000000000007be                rt_device_write
 .text.rt_device_set_rx_indicate
                0x00000000000007dc        0x6 ./rt-thread/src/device.o
                0x00000000000007dc                rt_device_set_rx_indicate
 .text.rt_thread_defunct_enqueue
                0x00000000000007e2       0x18 ./rt-thread/src/idle.o
                0x00000000000007e2                rt_thread_defunct_enqueue
 .text.rt_thread_defunct_dequeue
                0x00000000000007fa       0x22 ./rt-thread/src/idle.o
                0x00000000000007fa                rt_thread_defunct_dequeue
 .text.rt_thread_idle_entry
                0x000000000000081c       0x66 ./rt-thread/src/idle.o
 .text.rt_thread_idle_init
                0x0000000000000882       0x44 ./rt-thread/src/idle.o
                0x0000000000000882                rt_thread_idle_init
 .text.rt_ipc_list_resume.isra.0
                0x00000000000008c6        0xe ./rt-thread/src/ipc.o
 .text.rt_ipc_list_suspend
                0x00000000000008d4       0x5a ./rt-thread/src/ipc.o
 .text.rt_sem_init
                0x000000000000092e       0x2c ./rt-thread/src/ipc.o
                0x000000000000092e                rt_sem_init
 .text.rt_sem_take
                0x000000000000095a       0x86 ./rt-thread/src/ipc.o
                0x000000000000095a                rt_sem_take
 .text.rt_sem_release
                0x00000000000009e0       0x5a ./rt-thread/src/ipc.o
                0x00000000000009e0                rt_sem_release
 .text.rt_interrupt_enter
                0x0000000000000a3a       0x30 ./rt-thread/src/irq.o
                0x0000000000000a3a                rt_interrupt_enter
 .text.rt_interrupt_leave
                0x0000000000000a6a       0x30 ./rt-thread/src/irq.o
                0x0000000000000a6a                rt_interrupt_leave
 .text.rt_interrupt_get_nest
                0x0000000000000a9a       0x18 ./rt-thread/src/irq.o
                0x0000000000000a9a                rt_interrupt_get_nest
 .text.print_number
                0x0000000000000ab2      0x188 ./rt-thread/src/kservice.o
 .text.rt_set_errno
                0x0000000000000c3a       0x1c ./rt-thread/src/kservice.o
                0x0000000000000c3a                rt_set_errno
 .text.rt_memset
                0x0000000000000c56       0x88 ./rt-thread/src/kservice.o
                0x0000000000000c56                rt_memset
 .text.rt_memmove
                0x0000000000000cde       0x4a ./rt-thread/src/kservice.o
                0x0000000000000cde                rt_memmove
 .text.rt_strncpy
                0x0000000000000d28       0x2c ./rt-thread/src/kservice.o
                0x0000000000000d28                rt_strncpy
 .text.rt_strncmp
                0x0000000000000d54       0x2c ./rt-thread/src/kservice.o
                0x0000000000000d54                rt_strncmp
 .text.rt_vsnprintf
                0x0000000000000d80      0x356 ./rt-thread/src/kservice.o
                0x0000000000000d80                rt_vsnprintf
 .text.rt_vsprintf
                0x00000000000010d6       0x10 ./rt-thread/src/kservice.o
                0x00000000000010d6                rt_vsprintf
 .text.rt_sprintf
                0x00000000000010e6       0x1c ./rt-thread/src/kservice.o
                0x00000000000010e6                rt_sprintf
 .text.rt_console_get_device
                0x0000000000001102        0x6 ./rt-thread/src/kservice.o
                0x0000000000001102                rt_console_get_device
 .text.rt_console_set_device
                0x0000000000001108       0x36 ./rt-thread/src/kservice.o
                0x0000000000001108                rt_console_set_device
 .text.rt_hw_console_output
                0x000000000000113e        0x2 ./rt-thread/src/kservice.o
                0x000000000000113e                rt_hw_console_output
 .text.rt_kprintf
                0x0000000000001140       0x54 ./rt-thread/src/kservice.o
                0x0000000000001140                rt_kprintf
 .text.rt_show_version
                0x0000000000001194       0x3e ./rt-thread/src/kservice.o
                0x0000000000001194                rt_show_version
 .text.__rt_ffs
                0x00000000000011d2       0x58 ./rt-thread/src/kservice.o
                0x00000000000011d2                __rt_ffs
 .text.plug_holes
                0x000000000000122a       0x5c ./rt-thread/src/mem.o
 .text.list_mem
                0x0000000000001286       0x32 ./rt-thread/src/mem.o
                0x0000000000001286                list_mem
 .text.rt_system_heap_init
                0x00000000000012b8       0x7c ./rt-thread/src/mem.o
                0x00000000000012b8                rt_system_heap_init
 .text.rt_malloc
                0x0000000000001334      0x136 ./rt-thread/src/mem.o
                0x0000000000001334                rt_malloc
 .text.rt_calloc
                0x000000000000146a       0x24 ./rt-thread/src/mem.o
                0x000000000000146a                rt_calloc
 .text.rt_free  0x000000000000148e       0xaa ./rt-thread/src/mem.o
                0x000000000000148e                rt_free
 .text.rt_object_get_information
                0x0000000000001538       0x2a ./rt-thread/src/object.o
                0x0000000000001538                rt_object_get_information
 .text.rt_object_init
                0x0000000000001562       0x5e ./rt-thread/src/object.o
                0x0000000000001562                rt_object_init
 .text.rt_object_detach
                0x00000000000015c0       0x2e ./rt-thread/src/object.o
                0x00000000000015c0                rt_object_detach
 .text.rt_object_allocate
                0x00000000000015ee       0x56 ./rt-thread/src/object.o
                0x00000000000015ee                rt_object_allocate
 .text.rt_object_delete
                0x0000000000001644       0x32 ./rt-thread/src/object.o
                0x0000000000001644                rt_object_delete
 .text.rt_object_is_systemobject
                0x0000000000001676        0x8 ./rt-thread/src/object.o
                0x0000000000001676                rt_object_is_systemobject
 .text.rt_object_find
                0x000000000000167e       0x44 ./rt-thread/src/object.o
                0x000000000000167e                rt_object_find
 .text.rt_system_scheduler_init
                0x00000000000016c2       0x1c ./rt-thread/src/scheduler.o
                0x00000000000016c2                rt_system_scheduler_init
 .text.rt_schedule_insert_thread
                0x00000000000016de       0x60 ./rt-thread/src/scheduler.o
                0x00000000000016de                rt_schedule_insert_thread
 .text.rt_schedule_remove_thread
                0x000000000000173e       0x46 ./rt-thread/src/scheduler.o
                0x000000000000173e                rt_schedule_remove_thread
 .text.rt_system_scheduler_start
                0x0000000000001784       0x36 ./rt-thread/src/scheduler.o
                0x0000000000001784                rt_system_scheduler_start
 .text.rt_schedule
                0x00000000000017ba       0xea ./rt-thread/src/scheduler.o
                0x00000000000017ba                rt_schedule
 .text.rt_enter_critical
                0x00000000000018a4       0x1e ./rt-thread/src/scheduler.o
                0x00000000000018a4                rt_enter_critical
 .text.rt_exit_critical
                0x00000000000018c2       0x38 ./rt-thread/src/scheduler.o
                0x00000000000018c2                rt_exit_critical
 .text._rt_thread_cleanup_execute
                0x00000000000018fa       0x1e ./rt-thread/src/thread.o
 .text._rt_thread_exit
                0x0000000000001918       0x48 ./rt-thread/src/thread.o
 .text._rt_thread_init.isra.0
                0x0000000000001960       0x90 ./rt-thread/src/thread.o
 .text.rt_thread_timeout
                0x00000000000019f0       0x32 ./rt-thread/src/thread.o
                0x00000000000019f0                rt_thread_timeout
 .text.rt_thread_init
                0x0000000000001a22       0x32 ./rt-thread/src/thread.o
                0x0000000000001a22                rt_thread_init
 .text.rt_thread_self
                0x0000000000001a54        0x6 ./rt-thread/src/thread.o
                0x0000000000001a54                rt_thread_self
 .text.rt_thread_create
                0x0000000000001a5a       0x46 ./rt-thread/src/thread.o
                0x0000000000001a5a                rt_thread_create
 .text.rt_thread_suspend
                0x0000000000001aa0       0x4e ./rt-thread/src/thread.o
                0x0000000000001aa0                rt_thread_suspend
 .text.rt_thread_sleep
                0x0000000000001aee       0x44 ./rt-thread/src/thread.o
                0x0000000000001aee                rt_thread_sleep
 .text.rt_thread_delay
                0x0000000000001b32        0xa ./rt-thread/src/thread.o
                0x0000000000001b32                rt_thread_delay
 .text.rt_thread_mdelay
                0x0000000000001b3c        0xe ./rt-thread/src/thread.o
                0x0000000000001b3c                rt_thread_mdelay
 .text.rt_thread_resume
                0x0000000000001b4a       0x50 ./rt-thread/src/thread.o
                0x0000000000001b4a                rt_thread_resume
 .text.rt_thread_startup
                0x0000000000001b9a       0x2c ./rt-thread/src/thread.o
                0x0000000000001b9a                rt_thread_startup
 .text._rt_timer_remove.part.1
                0x0000000000001bc6       0x12 ./rt-thread/src/timer.o
 .text.rt_timer_init
                0x0000000000001bd8       0x3c ./rt-thread/src/timer.o
                0x0000000000001bd8                rt_timer_init
 .text.rt_timer_detach
                0x0000000000001c14       0x2c ./rt-thread/src/timer.o
                0x0000000000001c14                rt_timer_detach
 .text.rt_timer_start
                0x0000000000001c40       0x84 ./rt-thread/src/timer.o
                0x0000000000001c40                rt_timer_start
 .text.rt_timer_stop
                0x0000000000001cc4       0x3a ./rt-thread/src/timer.o
                0x0000000000001cc4                rt_timer_stop
 .text.rt_timer_control
                0x0000000000001cfe       0x68 ./rt-thread/src/timer.o
                0x0000000000001cfe                rt_timer_control
 .text.rt_timer_check
                0x0000000000001d66       0xb6 ./rt-thread/src/timer.o
                0x0000000000001d66                rt_timer_check
 .text.rt_system_timer_init
                0x0000000000001e1c        0xa ./rt-thread/src/timer.o
                0x0000000000001e1c                rt_system_timer_init
 .text.rt_system_timer_thread_init
                0x0000000000001e26        0x2 ./rt-thread/src/timer.o
                0x0000000000001e26                rt_system_timer_thread_init
 .text.libc_system_init
                0x0000000000001e28        0x4 ./rt-thread/components/libc/compilers/newlib/libc.o
                0x0000000000001e28                libc_system_init
 .text.rt_list_len
                0x0000000000001e2c       0x12 ./rt-thread/components/finsh/cmd.o
 .text.str_is_prefix
                0x0000000000001e3e       0x1c ./rt-thread/components/finsh/cmd.o
 .text.str_common
                0x0000000000001e5a       0x1e ./rt-thread/components/finsh/cmd.o
 .text.hello    0x0000000000001e78       0x16 ./rt-thread/components/finsh/cmd.o
                0x0000000000001e78                hello
 .text.clear    0x0000000000001e8e       0x16 ./rt-thread/components/finsh/cmd.o
 .text.show_wait_queue
                0x0000000000001ea4       0x36 ./rt-thread/components/finsh/cmd.o
 .text.version  0x0000000000001eda        0xe ./rt-thread/components/finsh/cmd.o
                0x0000000000001eda                version
 .text.list     0x0000000000001ee8       0xa6 ./rt-thread/components/finsh/cmd.o
                0x0000000000001ee8                list
 .text.list_get_next
                0x0000000000001f8e       0x7c ./rt-thread/components/finsh/cmd.o
 .text.object_split.constprop.2
                0x000000000000200a       0x1c ./rt-thread/components/finsh/cmd.o
 .text.list_mailbox
                0x0000000000002026       0xfc ./rt-thread/components/finsh/cmd.o
                0x0000000000002026                list_mailbox
 .text.list_device
                0x0000000000002122       0xca ./rt-thread/components/finsh/cmd.o
                0x0000000000002122                list_device
 .text.list_timer
                0x00000000000021ec       0xd8 ./rt-thread/components/finsh/cmd.o
                0x00000000000021ec                list_timer
 .text.list_thread
                0x00000000000022c4      0x146 ./rt-thread/components/finsh/cmd.o
                0x00000000000022c4                list_thread
 .text.list_mutex
                0x000000000000240a       0xbc ./rt-thread/components/finsh/cmd.o
                0x000000000000240a                list_mutex
 .text.list_event
                0x00000000000024c6       0xe6 ./rt-thread/components/finsh/cmd.o
                0x00000000000024c6                list_event
 .text.list_sem
                0x00000000000025ac       0xf2 ./rt-thread/components/finsh/cmd.o
                0x00000000000025ac                list_sem
 .text.list_msgqueue
                0x000000000000269e       0xf2 ./rt-thread/components/finsh/cmd.o
                0x000000000000269e                list_msgqueue
 .text.list_prefix
                0x0000000000002790      0x1ea ./rt-thread/components/finsh/cmd.o
                0x0000000000002790                list_prefix
 .text.finsh_type_check
                0x000000000000297a       0xe2 ./rt-thread/components/finsh/finsh_compiler.o
 .text.finsh_compile
                0x0000000000002a5c      0xf32 ./rt-thread/components/finsh/finsh_compiler.o
 .text.finsh_compiler_run
                0x000000000000398e       0x6a ./rt-thread/components/finsh/finsh_compiler.o
                0x000000000000398e                finsh_compiler_run
 .text.finsh_error_init
                0x00000000000039f8        0x8 ./rt-thread/components/finsh/finsh_error.o
                0x00000000000039f8                finsh_error_init
 .text.finsh_error_set
                0x0000000000003a00        0x8 ./rt-thread/components/finsh/finsh_error.o
                0x0000000000003a00                finsh_error_set
 .text.finsh_errno
                0x0000000000003a08        0x6 ./rt-thread/components/finsh/finsh_error.o
                0x0000000000003a08                finsh_errno
 .text.finsh_error_string
                0x0000000000003a0e       0x10 ./rt-thread/components/finsh/finsh_error.o
                0x0000000000003a0e                finsh_error_string
 .text.finsh_block_insert
                0x0000000000003a1e       0x24 ./rt-thread/components/finsh/finsh_heap.o
 .text.finsh_heap_init
                0x0000000000003a42       0x2a ./rt-thread/components/finsh/finsh_heap.o
                0x0000000000003a42                finsh_heap_init
 .text.finsh_heap_free
                0x0000000000003a6c       0xaa ./rt-thread/components/finsh/finsh_heap.o
                0x0000000000003a6c                finsh_heap_free
 .text.finsh_heap_allocate
                0x0000000000003b16       0xce ./rt-thread/components/finsh/finsh_heap.o
                0x0000000000003b16                finsh_heap_allocate
 .text.finsh_init
                0x0000000000003be4       0x1c ./rt-thread/components/finsh/finsh_init.o
                0x0000000000003be4                finsh_init
 .text.finsh_stack_bottom
                0x0000000000003c00        0x6 ./rt-thread/components/finsh/finsh_init.o
                0x0000000000003c00                finsh_stack_bottom
 .text.finsh_flush
                0x0000000000003c06       0x14 ./rt-thread/components/finsh/finsh_init.o
                0x0000000000003c06                finsh_flush
 .text.finsh_node_init
                0x0000000000003c1a       0x18 ./rt-thread/components/finsh/finsh_node.o
                0x0000000000003c1a                finsh_node_init
 .text.finsh_node_allocate
                0x0000000000003c32       0x2e ./rt-thread/components/finsh/finsh_node.o
                0x0000000000003c32                finsh_node_allocate
 .text.finsh_node_new_id
                0x0000000000003c60       0x62 ./rt-thread/components/finsh/finsh_node.o
                0x0000000000003c60                finsh_node_new_id
 .text.finsh_node_new_char
                0x0000000000003cc2       0x22 ./rt-thread/components/finsh/finsh_node.o
                0x0000000000003cc2                finsh_node_new_char
 .text.finsh_node_new_int
                0x0000000000003ce4       0x20 ./rt-thread/components/finsh/finsh_node.o
                0x0000000000003ce4                finsh_node_new_int
 .text.finsh_node_new_long
                0x0000000000003d04       0x20 ./rt-thread/components/finsh/finsh_node.o
                0x0000000000003d04                finsh_node_new_long
 .text.finsh_node_new_string
                0x0000000000003d24       0x4c ./rt-thread/components/finsh/finsh_node.o
                0x0000000000003d24                finsh_node_new_string
 .text.finsh_node_new_ptr
                0x0000000000003d70       0x20 ./rt-thread/components/finsh/finsh_node.o
                0x0000000000003d70                finsh_node_new_ptr
 .text.OP_no_op
                0x0000000000003d90        0x2 ./rt-thread/components/finsh/finsh_ops.o
                0x0000000000003d90                OP_no_op
 .text.OP_add_byte
                0x0000000000003d92       0x1a ./rt-thread/components/finsh/finsh_ops.o
                0x0000000000003d92                OP_add_byte
 .text.OP_add_word
                0x0000000000003dac       0x1a ./rt-thread/components/finsh/finsh_ops.o
                0x0000000000003dac                OP_add_word
 .text.OP_add_dword
                0x0000000000003dc6       0x1a ./rt-thread/components/finsh/finsh_ops.o
                0x0000000000003dc6                OP_add_dword
 .text.OP_sub_byte
                0x0000000000003de0       0x1a ./rt-thread/components/finsh/finsh_ops.o
                0x0000000000003de0                OP_sub_byte
 .text.OP_sub_word
                0x0000000000003dfa       0x1a ./rt-thread/components/finsh/finsh_ops.o
                0x0000000000003dfa                OP_sub_word
 .text.OP_sub_dword
                0x0000000000003e14       0x1a ./rt-thread/components/finsh/finsh_ops.o
                0x0000000000003e14                OP_sub_dword
 .text.OP_div_byte
                0x0000000000003e2e       0x1c ./rt-thread/components/finsh/finsh_ops.o
                0x0000000000003e2e                OP_div_byte
 .text.OP_div_word
                0x0000000000003e4a       0x1c ./rt-thread/components/finsh/finsh_ops.o
                0x0000000000003e4a                OP_div_word
 .text.OP_div_dword
                0x0000000000003e66       0x1c ./rt-thread/components/finsh/finsh_ops.o
                0x0000000000003e66                OP_div_dword
 .text.OP_mod_byte
                0x0000000000003e82       0x1c ./rt-thread/components/finsh/finsh_ops.o
                0x0000000000003e82                OP_mod_byte
 .text.OP_mod_word
                0x0000000000003e9e       0x1c ./rt-thread/components/finsh/finsh_ops.o
                0x0000000000003e9e                OP_mod_word
 .text.OP_mod_dword
                0x0000000000003eba       0x1c ./rt-thread/components/finsh/finsh_ops.o
                0x0000000000003eba                OP_mod_dword
 .text.OP_mul_byte
                0x0000000000003ed6       0x1c ./rt-thread/components/finsh/finsh_ops.o
                0x0000000000003ed6                OP_mul_byte
 .text.OP_mul_word
                0x0000000000003ef2       0x1c ./rt-thread/components/finsh/finsh_ops.o
                0x0000000000003ef2                OP_mul_word
 .text.OP_mul_dword
                0x0000000000003f0e       0x1c ./rt-thread/components/finsh/finsh_ops.o
                0x0000000000003f0e                OP_mul_dword
 .text.OP_and_byte
                0x0000000000003f2a       0x1a ./rt-thread/components/finsh/finsh_ops.o
                0x0000000000003f2a                OP_and_byte
 .text.OP_and_word
                0x0000000000003f44       0x1a ./rt-thread/components/finsh/finsh_ops.o
                0x0000000000003f44                OP_and_word
 .text.OP_and_dword
                0x0000000000003f5e       0x1a ./rt-thread/components/finsh/finsh_ops.o
                0x0000000000003f5e                OP_and_dword
 .text.OP_or_byte
                0x0000000000003f78       0x1a ./rt-thread/components/finsh/finsh_ops.o
                0x0000000000003f78                OP_or_byte
 .text.OP_or_word
                0x0000000000003f92       0x1a ./rt-thread/components/finsh/finsh_ops.o
                0x0000000000003f92                OP_or_word
 .text.OP_or_dword
                0x0000000000003fac       0x1a ./rt-thread/components/finsh/finsh_ops.o
                0x0000000000003fac                OP_or_dword
 .text.OP_xor_byte
                0x0000000000003fc6       0x1a ./rt-thread/components/finsh/finsh_ops.o
                0x0000000000003fc6                OP_xor_byte
 .text.OP_xor_word
                0x0000000000003fe0       0x1a ./rt-thread/components/finsh/finsh_ops.o
                0x0000000000003fe0                OP_xor_word
 .text.OP_xor_dword
                0x0000000000003ffa       0x1a ./rt-thread/components/finsh/finsh_ops.o
                0x0000000000003ffa                OP_xor_dword
 .text.OP_bw_byte
                0x0000000000004014       0x12 ./rt-thread/components/finsh/finsh_ops.o
                0x0000000000004014                OP_bw_byte
 .text.OP_bw_word
                0x0000000000004026       0x12 ./rt-thread/components/finsh/finsh_ops.o
                0x0000000000004026                OP_bw_word
 .text.OP_bw_dword
                0x0000000000004038       0x12 ./rt-thread/components/finsh/finsh_ops.o
                0x0000000000004038                OP_bw_dword
 .text.OP_shl_byte
                0x000000000000404a       0x1c ./rt-thread/components/finsh/finsh_ops.o
                0x000000000000404a                OP_shl_byte
 .text.OP_shl_word
                0x0000000000004066       0x1c ./rt-thread/components/finsh/finsh_ops.o
                0x0000000000004066                OP_shl_word
 .text.OP_shl_dword
                0x0000000000004082       0x1c ./rt-thread/components/finsh/finsh_ops.o
                0x0000000000004082                OP_shl_dword
 .text.OP_shr_byte
                0x000000000000409e       0x1c ./rt-thread/components/finsh/finsh_ops.o
                0x000000000000409e                OP_shr_byte
 .text.OP_shr_word
                0x00000000000040ba       0x1c ./rt-thread/components/finsh/finsh_ops.o
                0x00000000000040ba                OP_shr_word
 .text.OP_shr_dword
                0x00000000000040d6       0x1c ./rt-thread/components/finsh/finsh_ops.o
                0x00000000000040d6                OP_shr_dword
 .text.OP_ld_byte
                0x00000000000040f2       0x1e ./rt-thread/components/finsh/finsh_ops.o
                0x00000000000040f2                OP_ld_byte
 .text.OP_ld_word
                0x0000000000004110       0x26 ./rt-thread/components/finsh/finsh_ops.o
                0x0000000000004110                OP_ld_word
 .text.OP_ld_dword
                0x0000000000004136       0x36 ./rt-thread/components/finsh/finsh_ops.o
                0x0000000000004136                OP_ld_dword
 .text.OP_ld_value_byte
                0x000000000000416c       0x3a ./rt-thread/components/finsh/finsh_ops.o
                0x000000000000416c                OP_ld_value_byte
 .text.OP_ld_value_byte_stack
                0x00000000000041a6       0x12 ./rt-thread/components/finsh/finsh_ops.o
                0x00000000000041a6                OP_ld_value_byte_stack
 .text.OP_ld_value_word
                0x00000000000041b8       0x3a ./rt-thread/components/finsh/finsh_ops.o
                0x00000000000041b8                OP_ld_value_word
 .text.OP_ld_value_word_stack
                0x00000000000041f2       0x12 ./rt-thread/components/finsh/finsh_ops.o
                0x00000000000041f2                OP_ld_value_word_stack
 .text.OP_ld_value_dword
                0x0000000000004204       0x38 ./rt-thread/components/finsh/finsh_ops.o
                0x0000000000004204                OP_ld_value_dword
 .text.OP_ld_value_dword_stack
                0x000000000000423c       0x10 ./rt-thread/components/finsh/finsh_ops.o
                0x000000000000423c                OP_ld_value_dword_stack
 .text.OP_st_byte
                0x000000000000424c       0x1c ./rt-thread/components/finsh/finsh_ops.o
                0x000000000000424c                OP_st_byte
 .text.OP_st_word
                0x0000000000004268       0x18 ./rt-thread/components/finsh/finsh_ops.o
                0x0000000000004268                OP_st_word
 .text.OP_st_dword
                0x0000000000004280       0x16 ./rt-thread/components/finsh/finsh_ops.o
                0x0000000000004280                OP_st_dword
 .text.OP_pop   0x0000000000004296        0xc ./rt-thread/components/finsh/finsh_ops.o
                0x0000000000004296                OP_pop
 .text.OP_call  0x00000000000042a2      0x218 ./rt-thread/components/finsh/finsh_ops.o
                0x00000000000042a2                OP_call
 .text.proc_type
                0x00000000000044ba       0xa2 ./rt-thread/components/finsh/finsh_parser.o
 .text.proc_identifier
                0x000000000000455c       0x32 ./rt-thread/components/finsh/finsh_parser.o
 .text.make_sys_node
                0x000000000000458e       0x2c ./rt-thread/components/finsh/finsh_parser.o
 .text.proc_assign_expr
                0x00000000000045ba       0x6a ./rt-thread/components/finsh/finsh_parser.o
 .text.proc_expr_statement
                0x0000000000004624       0x40 ./rt-thread/components/finsh/finsh_parser.o
 .text.proc_cast_expr
                0x0000000000004664      0x20a ./rt-thread/components/finsh/finsh_parser.o
 .text.proc_multiplicative_expr
                0x000000000000486e       0x70 ./rt-thread/components/finsh/finsh_parser.o
 .text.proc_additive_expr
                0x00000000000048de       0x60 ./rt-thread/components/finsh/finsh_parser.o
 .text.proc_shift_expr
                0x000000000000493e       0x56 ./rt-thread/components/finsh/finsh_parser.o
 .text.proc_and_expr
                0x0000000000004994       0x48 ./rt-thread/components/finsh/finsh_parser.o
 .text.proc_exclusive_or_expr
                0x00000000000049dc       0x48 ./rt-thread/components/finsh/finsh_parser.o
 .text.proc_variable_decl
                0x0000000000004a24      0x1a8 ./rt-thread/components/finsh/finsh_parser.o
 .text.finsh_parser_run
                0x0000000000004bcc       0x86 ./rt-thread/components/finsh/finsh_parser.o
                0x0000000000004bcc                finsh_parser_run
 .text.finsh_parser_init
                0x0000000000004c52       0x14 ./rt-thread/components/finsh/finsh_parser.o
                0x0000000000004c52                finsh_parser_init
 .text.token_prev_char
                0x0000000000004c66       0x10 ./rt-thread/components/finsh/finsh_token.o
 .text.token_next_char
                0x0000000000004c76       0x4c ./rt-thread/components/finsh/finsh_token.o
 .text.finsh_token_init
                0x0000000000004cc2       0x18 ./rt-thread/components/finsh/finsh_token.o
                0x0000000000004cc2                finsh_token_init
 .text.token_get_string
                0x0000000000004cda       0x84 ./rt-thread/components/finsh/finsh_token.o
                0x0000000000004cda                token_get_string
 .text.finsh_token_token
                0x0000000000004d5e      0x552 ./rt-thread/components/finsh/finsh_token.o
                0x0000000000004d5e                finsh_token_token
 .text.finsh_var_init
                0x00000000000052b0       0x18 ./rt-thread/components/finsh/finsh_var.o
                0x00000000000052b0                finsh_var_init
 .text.finsh_var_insert
                0x00000000000052c8       0x5e ./rt-thread/components/finsh/finsh_var.o
                0x00000000000052c8                finsh_var_insert
 .text.finsh_var_lookup
                0x0000000000005326       0x28 ./rt-thread/components/finsh/finsh_var.o
                0x0000000000005326                finsh_var_lookup
 .text.finsh_sysvar_lookup
                0x000000000000534e       0x44 ./rt-thread/components/finsh/finsh_var.o
                0x000000000000534e                finsh_sysvar_lookup
 .text.finsh_vm_run
                0x0000000000005392       0x4a ./rt-thread/components/finsh/finsh_vm.o
                0x0000000000005392                finsh_vm_run
 .text.finsh_syscall_lookup
                0x00000000000053dc       0x44 ./rt-thread/components/finsh/finsh_vm.o
                0x00000000000053dc                finsh_syscall_lookup
 .text.msh_exit
                0x0000000000005420        0x8 ./rt-thread/components/finsh/msh.o
 .text.msh_enter
                0x0000000000005428        0xa ./rt-thread/components/finsh/msh.o
 .text.msh_help
                0x0000000000005432       0x58 ./rt-thread/components/finsh/msh.o
                0x0000000000005432                msh_help
 .text.cmd_ps   0x000000000000548a        0xe ./rt-thread/components/finsh/msh.o
                0x000000000000548a                cmd_ps
 .text.cmd_free
                0x0000000000005498        0xe ./rt-thread/components/finsh/msh.o
                0x0000000000005498                cmd_free
 .text.msh_is_used
                0x00000000000054a6        0x6 ./rt-thread/components/finsh/msh.o
                0x00000000000054a6                msh_is_used
 .text.msh_exec
                0x00000000000054ac      0x1aa ./rt-thread/components/finsh/msh.o
                0x00000000000054ac                msh_exec
 .text.msh_auto_complete
                0x0000000000005656       0xa2 ./rt-thread/components/finsh/msh.o
                0x0000000000005656                msh_auto_complete
 .text.finsh_rx_ind
                0x00000000000056f8       0x12 ./rt-thread/components/finsh/shell.o
 .text.finsh_system_init
                0x000000000000570a       0xa4 ./rt-thread/components/finsh/shell.o
                0x000000000000570a                finsh_system_init
 .text.finsh_get_prompt
                0x00000000000057ae       0x62 ./rt-thread/components/finsh/shell.o
                0x00000000000057ae                finsh_get_prompt
 .text.shell_handle_history
                0x0000000000005810       0x2e ./rt-thread/components/finsh/shell.o
 .text.finsh_set_device
                0x000000000000583e       0x82 ./rt-thread/components/finsh/shell.o
                0x000000000000583e                finsh_set_device
 .text.finsh_run_line
                0x00000000000058c0       0xba ./rt-thread/components/finsh/shell.o
                0x00000000000058c0                finsh_run_line
 .text.finsh_thread_entry
                0x000000000000597a      0x482 ./rt-thread/components/finsh/shell.o
                0x000000000000597a                finsh_thread_entry
 .text.rt_completion_init
                0x0000000000005dfc       0x1e ./rt-thread/components/drivers/src/completion.o
                0x0000000000005dfc                rt_completion_init
 .text.rt_completion_wait
                0x0000000000005e1a       0x84 ./rt-thread/components/drivers/src/completion.o
                0x0000000000005e1a                rt_completion_wait
 .text.rt_completion_done
                0x0000000000005e9e       0x3a ./rt-thread/components/drivers/src/completion.o
                0x0000000000005e9e                rt_completion_done
 .text.rt_serial_init
                0x0000000000005ed8       0x20 ./rt-thread/components/drivers/serial/serial.o
 .text.rt_serial_open
                0x0000000000005ef8      0x11e ./rt-thread/components/drivers/serial/serial.o
 .text.rt_serial_control
                0x0000000000006016       0x78 ./rt-thread/components/drivers/serial/serial.o
 .text.rt_serial_write
                0x000000000000608e       0x9e ./rt-thread/components/drivers/serial/serial.o
 .text.rt_serial_read
                0x000000000000612c       0xb0 ./rt-thread/components/drivers/serial/serial.o
 .text.rt_serial_close
                0x00000000000061dc       0x8a ./rt-thread/components/drivers/serial/serial.o
 .text.rt_hw_serial_register
                0x0000000000006266       0x5a ./rt-thread/components/drivers/serial/serial.o
                0x0000000000006266                rt_hw_serial_register
 .text.rt_hw_serial_isr
                0x00000000000062c0       0xd6 ./rt-thread/components/drivers/serial/serial.o
                0x00000000000062c0                rt_hw_serial_isr
 .text._pin_control
                0x0000000000006396       0x20 ./rt-thread/components/drivers/misc/pin.o
 .text.rt_pin_mode
                0x00000000000063b6       0x1a ./rt-thread/components/drivers/misc/pin.o
                0x00000000000063b6                rt_pin_mode
 .text.rt_pin_write
                0x00000000000063d0       0x1a ./rt-thread/components/drivers/misc/pin.o
                0x00000000000063d0                rt_pin_write
 .text.rt_pin_read
                0x00000000000063ea       0x18 ./rt-thread/components/drivers/misc/pin.o
                0x00000000000063ea                rt_pin_read
 .text.rt_pin_get
                0x0000000000006402       0x16 ./rt-thread/components/drivers/misc/pin.o
                0x0000000000006402                rt_pin_get
 .text._pin_read
                0x0000000000006418       0x32 ./rt-thread/components/drivers/misc/pin.o
 .text._pin_write
                0x000000000000644a       0x30 ./rt-thread/components/drivers/misc/pin.o
 .text.rt_device_pin_register
                0x000000000000647a       0x54 ./rt-thread/components/drivers/misc/pin.o
                0x000000000000647a                rt_device_pin_register
 .text.lv_obj_get_style_pad_left
                0x00000000000064ce       0x12 ./lvgl/src/widgets/lv_arc.o
 .text.lv_obj_get_style_pad_right
                0x00000000000064e0       0x12 ./lvgl/src/widgets/lv_arc.o
 .text.lv_obj_get_style_pad_top
                0x00000000000064f2       0x12 ./lvgl/src/widgets/lv_arc.o
 .text.lv_obj_get_style_pad_bottom
                0x0000000000006504       0x12 ./lvgl/src/widgets/lv_arc.o
 .text.get_center
                0x0000000000006516       0x9c ./lvgl/src/widgets/lv_arc.o
 .text.lv_arc_constructor
                0x00000000000065b2       0x64 ./lvgl/src/widgets/lv_arc.o
 .text.inv_arc_area
                0x0000000000006616       0xcc ./lvgl/src/widgets/lv_arc.o
 .text.get_knob_area
                0x00000000000066e2      0x104 ./lvgl/src/widgets/lv_arc.o
 .text.inv_knob_area
                0x00000000000067e6       0x2e ./lvgl/src/widgets/lv_arc.o
 .text.lv_arc_set_start_angle
                0x0000000000006814       0xa4 ./lvgl/src/widgets/lv_arc.o
                0x0000000000006814                lv_arc_set_start_angle
 .text.lv_arc_set_end_angle
                0x00000000000068b8       0xa6 ./lvgl/src/widgets/lv_arc.o
                0x00000000000068b8                lv_arc_set_end_angle
 .text.lv_arc_set_angles
                0x000000000000695e       0x1a ./lvgl/src/widgets/lv_arc.o
                0x000000000000695e                lv_arc_set_angles
 .text.value_update
                0x0000000000006978      0x104 ./lvgl/src/widgets/lv_arc.o
 .text.lv_arc_set_bg_start_angle
                0x0000000000006a7c       0x9a ./lvgl/src/widgets/lv_arc.o
                0x0000000000006a7c                lv_arc_set_bg_start_angle
 .text.lv_arc_set_bg_end_angle
                0x0000000000006b16       0x9c ./lvgl/src/widgets/lv_arc.o
                0x0000000000006b16                lv_arc_set_bg_end_angle
 .text.lv_arc_set_bg_angles
                0x0000000000006bb2       0x1a ./lvgl/src/widgets/lv_arc.o
                0x0000000000006bb2                lv_arc_set_bg_angles
 .text.lv_arc_set_rotation
                0x0000000000006bcc       0x10 ./lvgl/src/widgets/lv_arc.o
                0x0000000000006bcc                lv_arc_set_rotation
 .text.lv_arc_set_value
                0x0000000000006bdc       0x4a ./lvgl/src/widgets/lv_arc.o
                0x0000000000006bdc                lv_arc_set_value
 .text.lv_arc_event
                0x0000000000006c26      0x660 ./lvgl/src/widgets/lv_arc.o
 .text.lv_area_get_width
                0x0000000000007286       0x14 ./lvgl/src/widgets/lv_bar.o
 .text.lv_area_get_height
                0x000000000000729a       0x14 ./lvgl/src/widgets/lv_bar.o
 .text.lv_bar_destructor
                0x00000000000072ae       0x1e ./lvgl/src/widgets/lv_bar.o
 .text.lv_bar_anim_ready
                0x00000000000072cc       0x2e ./lvgl/src/widgets/lv_bar.o
 .text.lv_bar_anim
                0x00000000000072fa       0x10 ./lvgl/src/widgets/lv_bar.o
 .text.lv_bar_set_value_with_anim.part.5
                0x000000000000730a       0x56 ./lvgl/src/widgets/lv_bar.o
 .text.draw_indic
                0x0000000000007360      0x5fa ./lvgl/src/widgets/lv_bar.o
 .text.lv_bar_event
                0x000000000000795a       0xfc ./lvgl/src/widgets/lv_bar.o
 .text.lv_bar_set_value
                0x0000000000007a56       0x54 ./lvgl/src/widgets/lv_bar.o
                0x0000000000007a56                lv_bar_set_value
 .text.lv_bar_constructor
                0x0000000000007aaa       0x62 ./lvgl/src/widgets/lv_bar.o
 .text.lv_bar_set_start_value
                0x0000000000007b0c       0x5a ./lvgl/src/widgets/lv_bar.o
                0x0000000000007b0c                lv_bar_set_start_value
 .text.lv_bar_get_value
                0x0000000000007b66       0x10 ./lvgl/src/widgets/lv_bar.o
                0x0000000000007b66                lv_bar_get_value
 .text.lv_bar_get_start_value
                0x0000000000007b76       0x20 ./lvgl/src/widgets/lv_bar.o
                0x0000000000007b76                lv_bar_get_start_value
 .text.lv_bar_get_mode
                0x0000000000007b96        0x6 ./lvgl/src/widgets/lv_bar.o
                0x0000000000007b96                lv_bar_get_mode
 .text.lv_btn_constructor
                0x0000000000007b9c       0x1c ./lvgl/src/widgets/lv_btn.o
 .text.lv_btn_create
                0x0000000000007bb8       0x1e ./lvgl/src/widgets/lv_btn.o
                0x0000000000007bb8                lv_btn_create
 .text.lv_btnmatrix_destructor
                0x0000000000007bd6       0x1e ./lvgl/src/widgets/lv_btnmatrix.o
 .text.draw_main
                0x0000000000007bf4      0x43c ./lvgl/src/widgets/lv_btnmatrix.o
 .text.lv_obj_get_style_pad_column.constprop.10
                0x0000000000008030       0x14 ./lvgl/src/widgets/lv_btnmatrix.o
 .text.invalidate_button_area
                0x0000000000008044      0x100 ./lvgl/src/widgets/lv_btnmatrix.o
 .text.get_button_from_point
                0x0000000000008144      0x1d2 ./lvgl/src/widgets/lv_btnmatrix.o
 .text.lv_btnmatrix_set_map.part.1
                0x0000000000008316      0x296 ./lvgl/src/widgets/lv_btnmatrix.o
 .text.lv_btnmatrix_constructor
                0x00000000000085ac       0x36 ./lvgl/src/widgets/lv_btnmatrix.o
 .text.lv_btnmatrix_create
                0x00000000000085e2       0x1e ./lvgl/src/widgets/lv_btnmatrix.o
                0x00000000000085e2                lv_btnmatrix_create
 .text.lv_btnmatrix_set_map
                0x0000000000008600       0x10 ./lvgl/src/widgets/lv_btnmatrix.o
                0x0000000000008600                lv_btnmatrix_set_map
 .text.lv_btnmatrix_set_ctrl_map
                0x0000000000008610       0x1e ./lvgl/src/widgets/lv_btnmatrix.o
                0x0000000000008610                lv_btnmatrix_set_ctrl_map
 .text.lv_btnmatrix_set_selected_btn
                0x000000000000862e       0x32 ./lvgl/src/widgets/lv_btnmatrix.o
                0x000000000000862e                lv_btnmatrix_set_selected_btn
 .text.lv_btnmatrix_clear_btn_ctrl
                0x0000000000008660       0x3c ./lvgl/src/widgets/lv_btnmatrix.o
                0x0000000000008660                lv_btnmatrix_clear_btn_ctrl
 .text.lv_btnmatrix_clear_btn_ctrl_all
                0x000000000000869c       0x28 ./lvgl/src/widgets/lv_btnmatrix.o
                0x000000000000869c                lv_btnmatrix_clear_btn_ctrl_all
 .text.lv_btnmatrix_set_btn_ctrl
                0x00000000000086c4       0x54 ./lvgl/src/widgets/lv_btnmatrix.o
                0x00000000000086c4                lv_btnmatrix_set_btn_ctrl
 .text.lv_btnmatrix_set_btn_ctrl_all
                0x0000000000008718       0x28 ./lvgl/src/widgets/lv_btnmatrix.o
                0x0000000000008718                lv_btnmatrix_set_btn_ctrl_all
 .text.lv_btnmatrix_get_selected_btn
                0x0000000000008740        0x6 ./lvgl/src/widgets/lv_btnmatrix.o
                0x0000000000008740                lv_btnmatrix_get_selected_btn
 .text.lv_btnmatrix_get_btn_text
                0x0000000000008746       0x72 ./lvgl/src/widgets/lv_btnmatrix.o
                0x0000000000008746                lv_btnmatrix_get_btn_text
 .text.lv_btnmatrix_has_btn_ctrl
                0x00000000000087b8       0x20 ./lvgl/src/widgets/lv_btnmatrix.o
                0x00000000000087b8                lv_btnmatrix_has_btn_ctrl
 .text.make_one_button_checked
                0x00000000000087d8       0x30 ./lvgl/src/widgets/lv_btnmatrix.o
 .text.lv_btnmatrix_event
                0x0000000000008808      0x610 ./lvgl/src/widgets/lv_btnmatrix.o
 .text.lv_btnmatrix_set_one_checked
                0x0000000000008e18       0x1c ./lvgl/src/widgets/lv_btnmatrix.o
                0x0000000000008e18                lv_btnmatrix_set_one_checked
 .text.lv_checkbox_constructor
                0x0000000000008e34       0x3a ./lvgl/src/widgets/lv_checkbox.o
 .text.lv_checkbox_destructor
                0x0000000000008e6e       0x1e ./lvgl/src/widgets/lv_checkbox.o
 .text.lv_checkbox_event
                0x0000000000008e8c      0x33e ./lvgl/src/widgets/lv_checkbox.o
 .text.lv_dropdownlist_destructor
                0x00000000000091ca        0x8 ./lvgl/src/widgets/lv_dropdown.o
 .text.get_label
                0x00000000000091d2       0x14 ./lvgl/src/widgets/lv_dropdown.o
 .text.lv_dropdownlist_constructor
                0x00000000000091e6       0x34 ./lvgl/src/widgets/lv_dropdown.o
 .text.lv_dropdown_destructor
                0x000000000000921a       0x28 ./lvgl/src/widgets/lv_dropdown.o
 .text.get_id_on_point
                0x0000000000009242       0x6a ./lvgl/src/widgets/lv_dropdown.o
 .text.draw_box_label
                0x00000000000092ac       0xe8 ./lvgl/src/widgets/lv_dropdown.o
 .text.draw_box
                0x0000000000009394       0xd2 ./lvgl/src/widgets/lv_dropdown.o
 .text.position_to_selected
                0x0000000000009466       0x5a ./lvgl/src/widgets/lv_dropdown.o
 .text.lv_dropdown_create
                0x00000000000094c0       0x1e ./lvgl/src/widgets/lv_dropdown.o
                0x00000000000094c0                lv_dropdown_create
 .text.lv_dropdown_set_options
                0x00000000000094de       0x88 ./lvgl/src/widgets/lv_dropdown.o
                0x00000000000094de                lv_dropdown_set_options
 .text.lv_dropdown_set_options_static
                0x0000000000009566       0x6c ./lvgl/src/widgets/lv_dropdown.o
                0x0000000000009566                lv_dropdown_set_options_static
 .text.lv_dropdown_constructor
                0x00000000000095d2       0x6e ./lvgl/src/widgets/lv_dropdown.o
 .text.lv_dropdown_set_selected
                0x0000000000009640       0x2e ./lvgl/src/widgets/lv_dropdown.o
                0x0000000000009640                lv_dropdown_set_selected
 .text.lv_dropdown_get_selected
                0x000000000000966e        0x6 ./lvgl/src/widgets/lv_dropdown.o
                0x000000000000966e                lv_dropdown_get_selected
 .text.lv_dropdown_get_selected_str
                0x0000000000009674       0x80 ./lvgl/src/widgets/lv_dropdown.o
                0x0000000000009674                lv_dropdown_get_selected_str
 .text.lv_dropdown_open
                0x00000000000096f4      0x23c ./lvgl/src/widgets/lv_dropdown.o
                0x00000000000096f4                lv_dropdown_open
 .text.lv_dropdown_close
                0x0000000000009930       0x2a ./lvgl/src/widgets/lv_dropdown.o
                0x0000000000009930                lv_dropdown_close
 .text.lv_dropdown_list_event
                0x000000000000995a      0x1de ./lvgl/src/widgets/lv_dropdown.o
 .text.lv_dropdown_is_open
                0x0000000000009b38       0x18 ./lvgl/src/widgets/lv_dropdown.o
                0x0000000000009b38                lv_dropdown_is_open
 .text.btn_release_handler
                0x0000000000009b50       0x88 ./lvgl/src/widgets/lv_dropdown.o
 .text.lv_dropdown_event
                0x0000000000009bd8      0x3d2 ./lvgl/src/widgets/lv_dropdown.o
 .text.lv_img_constructor
                0x0000000000009faa       0x60 ./lvgl/src/widgets/lv_img.o
 .text.lv_img_destructor
                0x000000000000a00a       0x34 ./lvgl/src/widgets/lv_img.o
 .text.lv_obj_get_style_transform_angle.constprop.10
                0x000000000000a03e       0x14 ./lvgl/src/widgets/lv_img.o
 .text.lv_obj_get_style_transform_zoom.constprop.11
                0x000000000000a052       0x14 ./lvgl/src/widgets/lv_img.o
 .text.lv_img_get_transformed_size
                0x000000000000a066       0x64 ./lvgl/src/widgets/lv_img.o
 .text.lv_img_create
                0x000000000000a0ca       0x1e ./lvgl/src/widgets/lv_img.o
                0x000000000000a0ca                lv_img_create
 .text.lv_img_set_src
                0x000000000000a0e8      0x196 ./lvgl/src/widgets/lv_img.o
                0x000000000000a0e8                lv_img_set_src
 .text.lv_img_event
                0x000000000000a27e      0x756 ./lvgl/src/widgets/lv_img.o
 .text.lv_label_dot_tmp_free
                0x000000000000a9d4       0x2c ./lvgl/src/widgets/lv_label.o
 .text.lv_label_destructor
                0x000000000000aa00       0x22 ./lvgl/src/widgets/lv_label.o
 .text.set_ofs_y_anim
                0x000000000000aa22       0x10 ./lvgl/src/widgets/lv_label.o
 .text.set_ofs_x_anim
                0x000000000000aa32       0x10 ./lvgl/src/widgets/lv_label.o
 .text.lv_label_revert_dots
                0x000000000000aa42       0x68 ./lvgl/src/widgets/lv_label.o
 .text.lv_obj_get_style_width.constprop.19
                0x000000000000aaaa       0x14 ./lvgl/src/widgets/lv_label.o
 .text.lv_obj_get_style_text_letter_space.constprop.20
                0x000000000000aabe       0x16 ./lvgl/src/widgets/lv_label.o
 .text.lv_obj_get_style_text_line_space.constprop.21
                0x000000000000aad4       0x16 ./lvgl/src/widgets/lv_label.o
 .text.lv_obj_get_style_text_font.constprop.22
                0x000000000000aaea       0x12 ./lvgl/src/widgets/lv_label.o
 .text.lv_label_get_letter_on.part.10
                0x000000000000aafc      0x202 ./lvgl/src/widgets/lv_label.o
 .text.lv_label_refr_text
                0x000000000000acfe      0x516 ./lvgl/src/widgets/lv_label.o
 .text.lv_label_event
                0x000000000000b214      0x388 ./lvgl/src/widgets/lv_label.o
 .text.lv_label_create
                0x000000000000b59c       0x1e ./lvgl/src/widgets/lv_label.o
                0x000000000000b59c                lv_label_create
 .text.lv_label_set_text
                0x000000000000b5ba       0x78 ./lvgl/src/widgets/lv_label.o
                0x000000000000b5ba                lv_label_set_text
 .text.lv_label_set_text_fmt
                0x000000000000b632       0x5a ./lvgl/src/widgets/lv_label.o
                0x000000000000b632                lv_label_set_text_fmt
 .text.lv_label_set_text_static
                0x000000000000b68c       0x3c ./lvgl/src/widgets/lv_label.o
                0x000000000000b68c                lv_label_set_text_static
 .text.lv_label_set_long_mode
                0x000000000000b6c8       0x6e ./lvgl/src/widgets/lv_label.o
                0x000000000000b6c8                lv_label_set_long_mode
 .text.lv_label_constructor
                0x000000000000b736       0x56 ./lvgl/src/widgets/lv_label.o
 .text.lv_label_set_text_sel_start
                0x000000000000b78c        0xe ./lvgl/src/widgets/lv_label.o
                0x000000000000b78c                lv_label_set_text_sel_start
 .text.lv_label_set_text_sel_end
                0x000000000000b79a        0xe ./lvgl/src/widgets/lv_label.o
                0x000000000000b79a                lv_label_set_text_sel_end
 .text.lv_label_get_text
                0x000000000000b7a8        0x4 ./lvgl/src/widgets/lv_label.o
                0x000000000000b7a8                lv_label_get_text
 .text.lv_label_get_letter_pos
                0x000000000000b7ac      0x1e6 ./lvgl/src/widgets/lv_label.o
                0x000000000000b7ac                lv_label_get_letter_pos
 .text.lv_label_get_letter_on
                0x000000000000b992       0x10 ./lvgl/src/widgets/lv_label.o
                0x000000000000b992                lv_label_get_letter_on
 .text.lv_label_is_char_under_pos
                0x000000000000b9a2      0x1c4 ./lvgl/src/widgets/lv_label.o
                0x000000000000b9a2                lv_label_is_char_under_pos
 .text.lv_label_get_text_selection_start
                0x000000000000bb66        0x4 ./lvgl/src/widgets/lv_label.o
                0x000000000000bb66                lv_label_get_text_selection_start
 .text.lv_label_get_text_selection_end
                0x000000000000bb6a        0x4 ./lvgl/src/widgets/lv_label.o
                0x000000000000bb6a                lv_label_get_text_selection_end
 .text.lv_label_ins_text
                0x000000000000bb6e       0x64 ./lvgl/src/widgets/lv_label.o
                0x000000000000bb6e                lv_label_ins_text
 .text.lv_line_constructor
                0x000000000000bbd2       0x22 ./lvgl/src/widgets/lv_line.o
 .text.lv_line_event
                0x000000000000bbf4      0x1be ./lvgl/src/widgets/lv_line.o
 .text.set_y_anim
                0x000000000000bdb2       0x10 ./lvgl/src/widgets/lv_roller.o
 .text.lv_obj_get_style_text_font
                0x000000000000bdc2       0x10 ./lvgl/src/widgets/lv_roller.o
 .text.get_label
                0x000000000000bdd2        0xe ./lvgl/src/widgets/lv_roller.o
 .text.lv_obj_get_style_text_line_space.constprop.13
                0x000000000000bde0       0x16 ./lvgl/src/widgets/lv_roller.o
 .text.get_sel_area
                0x000000000000bdf6       0x80 ./lvgl/src/widgets/lv_roller.o
 .text.inf_normalize
                0x000000000000be76       0x8a ./lvgl/src/widgets/lv_roller.o
 .text.scroll_anim_ready_cb
                0x000000000000bf00       0x12 ./lvgl/src/widgets/lv_roller.o
 .text.refr_position
                0x000000000000bf12      0x12e ./lvgl/src/widgets/lv_roller.o
 .text.lv_roller_set_options.part.7
                0x000000000000c040       0xde ./lvgl/src/widgets/lv_roller.o
 .text.lv_roller_constructor
                0x000000000000c11e       0x50 ./lvgl/src/widgets/lv_roller.o
 .text.get_selected_label_width
                0x000000000000c16e       0x5a ./lvgl/src/widgets/lv_roller.o
 .text.lv_roller_label_event
                0x000000000000c1c8      0x150 ./lvgl/src/widgets/lv_roller.o
 .text.lv_roller_set_selected
                0x000000000000c318       0x8a ./lvgl/src/widgets/lv_roller.o
                0x000000000000c318                lv_roller_set_selected
 .text.lv_roller_event
                0x000000000000c3a2      0x4a4 ./lvgl/src/widgets/lv_roller.o
 .text.lv_slider_get_mode
                0x000000000000c846       0x22 ./lvgl/src/widgets/lv_slider.o
 .text.lv_slider_constructor
                0x000000000000c868       0x52 ./lvgl/src/widgets/lv_slider.o
 .text.position_knob
                0x000000000000c8ba       0xf8 ./lvgl/src/widgets/lv_slider.o
 .text.lv_slider_event
                0x000000000000c9b2      0x740 ./lvgl/src/widgets/lv_slider.o
 .text.lv_switch_anim_ready
                0x000000000000d0f2       0x12 ./lvgl/src/widgets/lv_switch.o
 .text.lv_switch_anim_exec_cb
                0x000000000000d104        0xe ./lvgl/src/widgets/lv_switch.o
 .text.lv_switch_destructor
                0x000000000000d112       0x10 ./lvgl/src/widgets/lv_switch.o
 .text.lv_switch_constructor
                0x000000000000d122       0x28 ./lvgl/src/widgets/lv_switch.o
 .text.lv_switch_event
                0x000000000000d14a      0x328 ./lvgl/src/widgets/lv_switch.o
 .text.lv_obj_get_style_pad_left
                0x000000000000d472       0x12 ./lvgl/src/widgets/lv_table.o
 .text.lv_obj_get_style_pad_right
                0x000000000000d484       0x12 ./lvgl/src/widgets/lv_table.o
 .text.lv_obj_get_style_pad_top
                0x000000000000d496       0x12 ./lvgl/src/widgets/lv_table.o
 .text.get_row_height
                0x000000000000d4a8      0x112 ./lvgl/src/widgets/lv_table.o
 .text.lv_table_destructor
                0x000000000000d5ba       0x52 ./lvgl/src/widgets/lv_table.o
 .text.lv_table_constructor
                0x000000000000d60c       0x4c ./lvgl/src/widgets/lv_table.o
 .text.draw_main
                0x000000000000d658      0x51a ./lvgl/src/widgets/lv_table.o
 .text.refr_size_form_row.constprop.4
                0x000000000000db72      0x104 ./lvgl/src/widgets/lv_table.o
 .text.lv_table_event
                0x000000000000dc76      0x2de ./lvgl/src/widgets/lv_table.o
 .text.pwd_char_hider_anim
                0x000000000000df54        0x2 ./lvgl/src/widgets/lv_textarea.o
 .text.lv_textarea_destructor
                0x000000000000df56       0x22 ./lvgl/src/widgets/lv_textarea.o
 .text.start_cursor_blink
                0x000000000000df78       0x6a ./lvgl/src/widgets/lv_textarea.o
 .text.lv_obj_get_style_text_font.constprop.16
                0x000000000000dfe2       0x12 ./lvgl/src/widgets/lv_textarea.o
 .text.cursor_blink_anim_cb
                0x000000000000dff4       0x5e ./lvgl/src/widgets/lv_textarea.o
 .text.refr_cursor_area
                0x000000000000e052      0x226 ./lvgl/src/widgets/lv_textarea.o
 .text.label_event_cb
                0x000000000000e278       0x3c ./lvgl/src/widgets/lv_textarea.o
 .text.pwd_char_hider
                0x000000000000e2b4       0x98 ./lvgl/src/widgets/lv_textarea.o
 .text.auto_hide_characters
                0x000000000000e34c       0x54 ./lvgl/src/widgets/lv_textarea.o
 .text.pwd_char_hider_anim_ready
                0x000000000000e3a0        0xe ./lvgl/src/widgets/lv_textarea.o
 .text.lv_textarea_set_cursor_pos
                0x000000000000e3ae      0x104 ./lvgl/src/widgets/lv_textarea.o
                0x000000000000e3ae                lv_textarea_set_cursor_pos
 .text.lv_textarea_constructor
                0x000000000000e4b2       0x90 ./lvgl/src/widgets/lv_textarea.o
 .text.lv_textarea_set_cursor_click_pos
                0x000000000000e542       0x14 ./lvgl/src/widgets/lv_textarea.o
                0x000000000000e542                lv_textarea_set_cursor_click_pos
 .text.lv_textarea_set_one_line
                0x000000000000e556       0x72 ./lvgl/src/widgets/lv_textarea.o
                0x000000000000e556                lv_textarea_set_one_line
 .text.lv_textarea_get_text
                0x000000000000e5c8       0x1a ./lvgl/src/widgets/lv_textarea.o
                0x000000000000e5c8                lv_textarea_get_text
 .text.lv_textarea_get_cursor_pos
                0x000000000000e5e2        0x4 ./lvgl/src/widgets/lv_textarea.o
                0x000000000000e5e2                lv_textarea_get_cursor_pos
 .text.lv_textarea_get_one_line
                0x000000000000e5e6        0xa ./lvgl/src/widgets/lv_textarea.o
                0x000000000000e5e6                lv_textarea_get_one_line
 .text.lv_textarea_clear_selection
                0x000000000000e5f0       0x3c ./lvgl/src/widgets/lv_textarea.o
                0x000000000000e5f0                lv_textarea_clear_selection
 .text.lv_textarea_add_text
                0x000000000000e62c       0xda ./lvgl/src/widgets/lv_textarea.o
                0x000000000000e62c                lv_textarea_add_text
 .text.insert_handler
                0x000000000000e706       0x42 ./lvgl/src/widgets/lv_textarea.o
 .text.lv_textarea_add_char
                0x000000000000e748      0x100 ./lvgl/src/widgets/lv_textarea.o
                0x000000000000e748                lv_textarea_add_char
 .text.lv_textarea_del_char
                0x000000000000e848       0x9e ./lvgl/src/widgets/lv_textarea.o
                0x000000000000e848                lv_textarea_del_char
 .text.lv_textarea_del_char_forward
                0x000000000000e8e6       0x20 ./lvgl/src/widgets/lv_textarea.o
                0x000000000000e8e6                lv_textarea_del_char_forward
 .text.lv_textarea_set_text
                0x000000000000e906       0xc8 ./lvgl/src/widgets/lv_textarea.o
                0x000000000000e906                lv_textarea_set_text
 .text.lv_textarea_cursor_right
                0x000000000000e9ce       0x10 ./lvgl/src/widgets/lv_textarea.o
                0x000000000000e9ce                lv_textarea_cursor_right
 .text.lv_textarea_cursor_left
                0x000000000000e9de       0x14 ./lvgl/src/widgets/lv_textarea.o
                0x000000000000e9de                lv_textarea_cursor_left
 .text.lv_textarea_cursor_down
                0x000000000000e9f2       0x6c ./lvgl/src/widgets/lv_textarea.o
                0x000000000000e9f2                lv_textarea_cursor_down
 .text.lv_textarea_cursor_up
                0x000000000000ea5e       0x5e ./lvgl/src/widgets/lv_textarea.o
                0x000000000000ea5e                lv_textarea_cursor_up
 .text.lv_textarea_event
                0x000000000000eabc      0x460 ./lvgl/src/widgets/lv_textarea.o
 .text.lv_anim_path_linear
                0x000000000000ef1c       0x28 ./lvgl/src/misc/lv_anim.o
                0x000000000000ef1c                lv_anim_path_linear
 .text.anim_mark_list_change
                0x000000000000ef44       0x2a ./lvgl/src/misc/lv_anim.o
 .text.anim_timer
                0x000000000000ef6e      0x16e ./lvgl/src/misc/lv_anim.o
 .text._lv_anim_core_init
                0x000000000000f0dc       0x30 ./lvgl/src/misc/lv_anim.o
                0x000000000000f0dc                _lv_anim_core_init
 .text.lv_anim_init
                0x000000000000f10c       0x3e ./lvgl/src/misc/lv_anim.o
                0x000000000000f10c                lv_anim_init
 .text.lv_anim_del
                0x000000000000f14a       0x56 ./lvgl/src/misc/lv_anim.o
                0x000000000000f14a                lv_anim_del
 .text.lv_anim_start
                0x000000000000f1a0       0x86 ./lvgl/src/misc/lv_anim.o
                0x000000000000f1a0                lv_anim_start
 .text.lv_anim_get
                0x000000000000f226       0x30 ./lvgl/src/misc/lv_anim.o
                0x000000000000f226                lv_anim_get
 .text.lv_anim_speed_to_time
                0x000000000000f256       0x22 ./lvgl/src/misc/lv_anim.o
                0x000000000000f256                lv_anim_speed_to_time
 .text.lv_anim_path_ease_out
                0x000000000000f278       0x3a ./lvgl/src/misc/lv_anim.o
                0x000000000000f278                lv_anim_path_ease_out
 .text.lv_anim_path_ease_in_out
                0x000000000000f2b2       0x3a ./lvgl/src/misc/lv_anim.o
                0x000000000000f2b2                lv_anim_path_ease_in_out
 .text.lv_anim_path_step
                0x000000000000f2ec       0x10 ./lvgl/src/misc/lv_anim.o
                0x000000000000f2ec                lv_anim_path_step
 .text.lv_point_within_circle
                0x000000000000f2fc       0x4c ./lvgl/src/misc/lv_area.o
 .text.lv_area_set
                0x000000000000f348       0x12 ./lvgl/src/misc/lv_area.o
                0x000000000000f348                lv_area_set
 .text.lv_area_set_width
                0x000000000000f35a        0xe ./lvgl/src/misc/lv_area.o
                0x000000000000f35a                lv_area_set_width
 .text.lv_area_set_height
                0x000000000000f368        0xe ./lvgl/src/misc/lv_area.o
                0x000000000000f368                lv_area_set_height
 .text.lv_area_get_size
                0x000000000000f376       0x1e ./lvgl/src/misc/lv_area.o
                0x000000000000f376                lv_area_get_size
 .text.lv_area_increase
                0x000000000000f394       0x32 ./lvgl/src/misc/lv_area.o
                0x000000000000f394                lv_area_increase
 .text.lv_area_move
                0x000000000000f3c6       0x32 ./lvgl/src/misc/lv_area.o
                0x000000000000f3c6                lv_area_move
 .text._lv_area_intersect
                0x000000000000f3f8       0xac ./lvgl/src/misc/lv_area.o
                0x000000000000f3f8                _lv_area_intersect
 .text._lv_area_join
                0x000000000000f4a4       0x80 ./lvgl/src/misc/lv_area.o
                0x000000000000f4a4                _lv_area_join
 .text._lv_area_is_point_on
                0x000000000000f524      0x154 ./lvgl/src/misc/lv_area.o
                0x000000000000f524                _lv_area_is_point_on
 .text._lv_area_is_on
                0x000000000000f678       0x3e ./lvgl/src/misc/lv_area.o
                0x000000000000f678                _lv_area_is_on
 .text._lv_area_is_in
                0x000000000000f6b6       0x8c ./lvgl/src/misc/lv_area.o
                0x000000000000f6b6                _lv_area_is_in
 .text._lv_area_is_out
                0x000000000000f742       0x9a ./lvgl/src/misc/lv_area.o
                0x000000000000f742                _lv_area_is_out
 .text.lv_color_mix
                0x000000000000f7dc       0x3c ./lvgl/src/misc/lv_color.o
 .text.lv_color_fill
                0x000000000000f818       0x4a ./lvgl/src/misc/lv_color.o
                0x000000000000f818                lv_color_fill
 .text.lv_color_darken
                0x000000000000f862       0x12 ./lvgl/src/misc/lv_color.o
                0x000000000000f862                lv_color_darken
 .text.lv_color_hsv_to_rgb
                0x000000000000f874      0x100 ./lvgl/src/misc/lv_color.o
                0x000000000000f874                lv_color_hsv_to_rgb
 .text.lv_palette_main
                0x000000000000f974       0x1e ./lvgl/src/misc/lv_color.o
                0x000000000000f974                lv_palette_main
 .text.lv_palette_lighten
                0x000000000000f992       0x30 ./lvgl/src/misc/lv_color.o
                0x000000000000f992                lv_palette_lighten
 .text.lv_palette_darken
                0x000000000000f9c2       0x2c ./lvgl/src/misc/lv_color.o
                0x000000000000f9c2                lv_palette_darken
 .text._lv_fs_init
                0x000000000000f9ee       0x10 ./lvgl/src/misc/lv_fs.o
                0x000000000000f9ee                _lv_fs_init
 .text.lv_fs_close
                0x000000000000f9fe       0x40 ./lvgl/src/misc/lv_fs.o
                0x000000000000f9fe                lv_fs_close
 .text.lv_fs_read
                0x000000000000fa3e      0x154 ./lvgl/src/misc/lv_fs.o
                0x000000000000fa3e                lv_fs_read
 .text.lv_fs_seek
                0x000000000000fb92       0x76 ./lvgl/src/misc/lv_fs.o
                0x000000000000fb92                lv_fs_seek
 .text.lv_fs_get_drv
                0x000000000000fc08       0x28 ./lvgl/src/misc/lv_fs.o
                0x000000000000fc08                lv_fs_get_drv
 .text.lv_fs_open
                0x000000000000fc30       0x8e ./lvgl/src/misc/lv_fs.o
                0x000000000000fc30                lv_fs_open
 .text.lv_fs_get_ext
                0x000000000000fcbe       0x42 ./lvgl/src/misc/lv_fs.o
                0x000000000000fcbe                lv_fs_get_ext
 .text.node_set_prev.isra.0
                0x000000000000fd00        0xa ./lvgl/src/misc/lv_ll.o
 .text.node_set_next.isra.1
                0x000000000000fd0a        0xa ./lvgl/src/misc/lv_ll.o
 .text._lv_ll_init
                0x000000000000fd14       0x10 ./lvgl/src/misc/lv_ll.o
                0x000000000000fd14                _lv_ll_init
 .text._lv_ll_ins_head
                0x000000000000fd24       0x3e ./lvgl/src/misc/lv_ll.o
                0x000000000000fd24                _lv_ll_ins_head
 .text._lv_ll_ins_tail
                0x000000000000fd62       0x3e ./lvgl/src/misc/lv_ll.o
                0x000000000000fd62                _lv_ll_ins_tail
 .text._lv_ll_remove
                0x000000000000fda0       0x58 ./lvgl/src/misc/lv_ll.o
                0x000000000000fda0                _lv_ll_remove
 .text._lv_ll_clear
                0x000000000000fdf8       0x2a ./lvgl/src/misc/lv_ll.o
                0x000000000000fdf8                _lv_ll_clear
 .text._lv_ll_get_head
                0x000000000000fe22        0xa ./lvgl/src/misc/lv_ll.o
                0x000000000000fe22                _lv_ll_get_head
 .text._lv_ll_get_tail
                0x000000000000fe2c        0xa ./lvgl/src/misc/lv_ll.o
                0x000000000000fe2c                _lv_ll_get_tail
 .text._lv_ll_get_next
                0x000000000000fe36        0x8 ./lvgl/src/misc/lv_ll.o
                0x000000000000fe36                _lv_ll_get_next
 .text._lv_ll_get_prev
                0x000000000000fe3e        0x8 ./lvgl/src/misc/lv_ll.o
                0x000000000000fe3e                _lv_ll_get_prev
 .text._lv_ll_get_len
                0x000000000000fe46       0x18 ./lvgl/src/misc/lv_ll.o
                0x000000000000fe46                _lv_ll_get_len
 .text._lv_ll_is_empty
                0x000000000000fe5e       0x14 ./lvgl/src/misc/lv_ll.o
                0x000000000000fe5e                _lv_ll_is_empty
 .text.lv_trigo_sin
                0x000000000000fe72       0x80 ./lvgl/src/misc/lv_math.o
                0x000000000000fe72                lv_trigo_sin
 .text.lv_bezier3
                0x000000000000fef2       0x54 ./lvgl/src/misc/lv_math.o
                0x000000000000fef2                lv_bezier3
 .text.lv_atan2
                0x000000000000ff46       0xc8 ./lvgl/src/misc/lv_math.o
                0x000000000000ff46                lv_atan2
 .text.lv_pow   0x000000000001000e       0x3c ./lvgl/src/misc/lv_math.o
                0x000000000001000e                lv_pow
 .text.lv_map   0x000000000001004a       0x30 ./lvgl/src/misc/lv_math.o
                0x000000000001004a                lv_map
 .text.lv_mem_walker
                0x000000000001007a       0x20 ./lvgl/src/misc/lv_mem.o
 .text.lv_mem_init
                0x000000000001009a       0x1a ./lvgl/src/misc/lv_mem.o
                0x000000000001009a                lv_mem_init
 .text.lv_mem_free
                0x00000000000100b4       0x1e ./lvgl/src/misc/lv_mem.o
                0x00000000000100b4                lv_mem_free
 .text.lv_mem_buf_release
                0x00000000000100d2       0x2c ./lvgl/src/misc/lv_mem.o
                0x00000000000100d2                lv_mem_buf_release
 .text.lv_mem_buf_free_all
                0x00000000000100fe       0x3c ./lvgl/src/misc/lv_mem.o
                0x00000000000100fe                lv_mem_buf_free_all
 .text.lv_memcpy
                0x000000000001013a      0x1e6 ./lvgl/src/misc/lv_mem.o
                0x000000000001013a                lv_memcpy
 .text.lv_memset
                0x0000000000010320       0x6a ./lvgl/src/misc/lv_mem.o
                0x0000000000010320                lv_memset
 .text.lv_mem_monitor
                0x000000000001038a       0x5e ./lvgl/src/misc/lv_mem.o
                0x000000000001038a                lv_mem_monitor
 .text.lv_mem_alloc
                0x00000000000103e8       0x2a ./lvgl/src/misc/lv_mem.o
                0x00000000000103e8                lv_mem_alloc
 .text.lv_mem_realloc
                0x0000000000010412       0x30 ./lvgl/src/misc/lv_mem.o
                0x0000000000010412                lv_mem_realloc
 .text.lv_mem_buf_get
                0x0000000000010442       0xc2 ./lvgl/src/misc/lv_mem.o
                0x0000000000010442                lv_mem_buf_get
 .text.lv_memset_00
                0x0000000000010504       0x6c ./lvgl/src/misc/lv_mem.o
                0x0000000000010504                lv_memset_00
 .text.lv_memset_ff
                0x0000000000010570       0x62 ./lvgl/src/misc/lv_mem.o
                0x0000000000010570                lv_memset_ff
 .text._out_buffer
                0x00000000000105d2        0xc ./lvgl/src/misc/lv_printf.o
 .text._out_null
                0x00000000000105de        0x2 ./lvgl/src/misc/lv_printf.o
 .text._ntoa_format
                0x00000000000105e0      0x1a6 ./lvgl/src/misc/lv_printf.o
 .text._ntoa_long
                0x0000000000010786       0x86 ./lvgl/src/misc/lv_printf.o
 .text._ntoa_long_long
                0x000000000001080c       0xf2 ./lvgl/src/misc/lv_printf.o
 .text._vsnprintf
                0x00000000000108fe      0x524 ./lvgl/src/misc/lv_printf.o
 .text.lv_snprintf
                0x0000000000010e22       0x2a ./lvgl/src/misc/lv_printf.o
                0x0000000000010e22                lv_snprintf
 .text.lv_vsnprintf
                0x0000000000010e4c       0x1c ./lvgl/src/misc/lv_printf.o
                0x0000000000010e4c                lv_vsnprintf
 .text.lv_style_init
                0x0000000000010e68        0xe ./lvgl/src/misc/lv_style.o
                0x0000000000010e68                lv_style_init
 .text.lv_style_reset
                0x0000000000010e76       0x2c ./lvgl/src/misc/lv_style.o
                0x0000000000010e76                lv_style_reset
 .text.lv_style_register_prop
                0x0000000000010ea2       0x62 ./lvgl/src/misc/lv_style.o
                0x0000000000010ea2                lv_style_register_prop
 .text.lv_style_remove_prop
                0x0000000000010f04      0x10a ./lvgl/src/misc/lv_style.o
                0x0000000000010f04                lv_style_remove_prop
 .text.lv_style_get_prop
                0x000000000001100e       0x66 ./lvgl/src/misc/lv_style.o
                0x000000000001100e                lv_style_get_prop
 .text.lv_style_transition_dsc_init
                0x0000000000011074       0x3a ./lvgl/src/misc/lv_style.o
                0x0000000000011074                lv_style_transition_dsc_init
 .text.lv_style_prop_get_default
                0x00000000000110ae       0xf0 ./lvgl/src/misc/lv_style.o
                0x00000000000110ae                lv_style_prop_get_default
 .text.lv_style_is_empty
                0x000000000001119e        0xa ./lvgl/src/misc/lv_style.o
                0x000000000001119e                lv_style_is_empty
 .text._lv_style_get_prop_group
                0x00000000000111a8       0x14 ./lvgl/src/misc/lv_style.o
                0x00000000000111a8                _lv_style_get_prop_group
 .text.lv_style_set_prop
                0x00000000000111bc      0x136 ./lvgl/src/misc/lv_style.o
                0x00000000000111bc                lv_style_set_prop
 .text._lv_style_prop_lookup_flags
                0x00000000000112f2       0x46 ./lvgl/src/misc/lv_style.o
                0x00000000000112f2                _lv_style_prop_lookup_flags
 .text.lv_style_set_width
                0x0000000000011338       0x10 ./lvgl/src/misc/lv_style_gen.o
                0x0000000000011338                lv_style_set_width
 .text.lv_style_set_max_width
                0x0000000000011348       0x10 ./lvgl/src/misc/lv_style_gen.o
                0x0000000000011348                lv_style_set_max_width
 .text.lv_style_set_height
                0x0000000000011358       0x10 ./lvgl/src/misc/lv_style_gen.o
                0x0000000000011358                lv_style_set_height
 .text.lv_style_set_max_height
                0x0000000000011368       0x10 ./lvgl/src/misc/lv_style_gen.o
                0x0000000000011368                lv_style_set_max_height
 .text.lv_style_set_transform_width
                0x0000000000011378       0x10 ./lvgl/src/misc/lv_style_gen.o
                0x0000000000011378                lv_style_set_transform_width
 .text.lv_style_set_transform_height
                0x0000000000011388       0x10 ./lvgl/src/misc/lv_style_gen.o
                0x0000000000011388                lv_style_set_transform_height
 .text.lv_style_set_pad_top
                0x0000000000011398       0x10 ./lvgl/src/misc/lv_style_gen.o
                0x0000000000011398                lv_style_set_pad_top
 .text.lv_style_set_pad_bottom
                0x00000000000113a8       0x10 ./lvgl/src/misc/lv_style_gen.o
                0x00000000000113a8                lv_style_set_pad_bottom
 .text.lv_style_set_pad_left
                0x00000000000113b8       0x10 ./lvgl/src/misc/lv_style_gen.o
                0x00000000000113b8                lv_style_set_pad_left
 .text.lv_style_set_pad_right
                0x00000000000113c8       0x10 ./lvgl/src/misc/lv_style_gen.o
                0x00000000000113c8                lv_style_set_pad_right
 .text.lv_style_set_pad_row
                0x00000000000113d8       0x10 ./lvgl/src/misc/lv_style_gen.o
                0x00000000000113d8                lv_style_set_pad_row
 .text.lv_style_set_pad_column
                0x00000000000113e8       0x10 ./lvgl/src/misc/lv_style_gen.o
                0x00000000000113e8                lv_style_set_pad_column
 .text.lv_style_set_bg_color
                0x00000000000113f8       0x1e ./lvgl/src/misc/lv_style_gen.o
                0x00000000000113f8                lv_style_set_bg_color
 .text.lv_style_set_bg_opa
                0x0000000000011416       0x12 ./lvgl/src/misc/lv_style_gen.o
                0x0000000000011416                lv_style_set_bg_opa
 .text.lv_style_set_bg_grad_color
                0x0000000000011428       0x1e ./lvgl/src/misc/lv_style_gen.o
                0x0000000000011428                lv_style_set_bg_grad_color
 .text.lv_style_set_bg_img_src
                0x0000000000011446       0x12 ./lvgl/src/misc/lv_style_gen.o
                0x0000000000011446                lv_style_set_bg_img_src
 .text.lv_style_set_border_color
                0x0000000000011458       0x1e ./lvgl/src/misc/lv_style_gen.o
                0x0000000000011458                lv_style_set_border_color
 .text.lv_style_set_border_opa
                0x0000000000011476       0x12 ./lvgl/src/misc/lv_style_gen.o
                0x0000000000011476                lv_style_set_border_opa
 .text.lv_style_set_border_width
                0x0000000000011488       0x12 ./lvgl/src/misc/lv_style_gen.o
                0x0000000000011488                lv_style_set_border_width
 .text.lv_style_set_border_side
                0x000000000001149a       0x12 ./lvgl/src/misc/lv_style_gen.o
                0x000000000001149a                lv_style_set_border_side
 .text.lv_style_set_border_post
                0x00000000000114ac       0x12 ./lvgl/src/misc/lv_style_gen.o
                0x00000000000114ac                lv_style_set_border_post
 .text.lv_style_set_outline_width
                0x00000000000114be       0x12 ./lvgl/src/misc/lv_style_gen.o
                0x00000000000114be                lv_style_set_outline_width
 .text.lv_style_set_outline_color
                0x00000000000114d0       0x1e ./lvgl/src/misc/lv_style_gen.o
                0x00000000000114d0                lv_style_set_outline_color
 .text.lv_style_set_outline_opa
                0x00000000000114ee       0x12 ./lvgl/src/misc/lv_style_gen.o
                0x00000000000114ee                lv_style_set_outline_opa
 .text.lv_style_set_outline_pad
                0x0000000000011500       0x12 ./lvgl/src/misc/lv_style_gen.o
                0x0000000000011500                lv_style_set_outline_pad
 .text.lv_style_set_shadow_width
                0x0000000000011512       0x12 ./lvgl/src/misc/lv_style_gen.o
                0x0000000000011512                lv_style_set_shadow_width
 .text.lv_style_set_shadow_ofs_y
                0x0000000000011524       0x12 ./lvgl/src/misc/lv_style_gen.o
                0x0000000000011524                lv_style_set_shadow_ofs_y
 .text.lv_style_set_shadow_spread
                0x0000000000011536       0x12 ./lvgl/src/misc/lv_style_gen.o
                0x0000000000011536                lv_style_set_shadow_spread
 .text.lv_style_set_shadow_color
                0x0000000000011548       0x1e ./lvgl/src/misc/lv_style_gen.o
                0x0000000000011548                lv_style_set_shadow_color
 .text.lv_style_set_shadow_opa
                0x0000000000011566       0x12 ./lvgl/src/misc/lv_style_gen.o
                0x0000000000011566                lv_style_set_shadow_opa
 .text.lv_style_set_line_width
                0x0000000000011578       0x12 ./lvgl/src/misc/lv_style_gen.o
                0x0000000000011578                lv_style_set_line_width
 .text.lv_style_set_line_color
                0x000000000001158a       0x1e ./lvgl/src/misc/lv_style_gen.o
                0x000000000001158a                lv_style_set_line_color
 .text.lv_style_set_arc_width
                0x00000000000115a8       0x12 ./lvgl/src/misc/lv_style_gen.o
                0x00000000000115a8                lv_style_set_arc_width
 .text.lv_style_set_arc_rounded
                0x00000000000115ba       0x12 ./lvgl/src/misc/lv_style_gen.o
                0x00000000000115ba                lv_style_set_arc_rounded
 .text.lv_style_set_arc_color
                0x00000000000115cc       0x1e ./lvgl/src/misc/lv_style_gen.o
                0x00000000000115cc                lv_style_set_arc_color
 .text.lv_style_set_text_color
                0x00000000000115ea       0x1e ./lvgl/src/misc/lv_style_gen.o
                0x00000000000115ea                lv_style_set_text_color
 .text.lv_style_set_text_font
                0x0000000000011608       0x12 ./lvgl/src/misc/lv_style_gen.o
                0x0000000000011608                lv_style_set_text_font
 .text.lv_style_set_text_line_space
                0x000000000001161a       0x12 ./lvgl/src/misc/lv_style_gen.o
                0x000000000001161a                lv_style_set_text_line_space
 .text.lv_style_set_text_align
                0x000000000001162c       0x12 ./lvgl/src/misc/lv_style_gen.o
                0x000000000001162c                lv_style_set_text_align
 .text.lv_style_set_radius
                0x000000000001163e       0x12 ./lvgl/src/misc/lv_style_gen.o
                0x000000000001163e                lv_style_set_radius
 .text.lv_style_set_clip_corner
                0x0000000000011650       0x12 ./lvgl/src/misc/lv_style_gen.o
                0x0000000000011650                lv_style_set_clip_corner
 .text.lv_style_set_color_filter_dsc
                0x0000000000011662       0x12 ./lvgl/src/misc/lv_style_gen.o
                0x0000000000011662                lv_style_set_color_filter_dsc
 .text.lv_style_set_color_filter_opa
                0x0000000000011674       0x12 ./lvgl/src/misc/lv_style_gen.o
                0x0000000000011674                lv_style_set_color_filter_opa
 .text.lv_style_set_anim_time
                0x0000000000011686       0x12 ./lvgl/src/misc/lv_style_gen.o
                0x0000000000011686                lv_style_set_anim_time
 .text.lv_style_set_transition
                0x0000000000011698       0x12 ./lvgl/src/misc/lv_style_gen.o
                0x0000000000011698                lv_style_set_transition
 .text._lv_timer_core_init
                0x00000000000116aa       0x18 ./lvgl/src/misc/lv_timer.o
                0x00000000000116aa                _lv_timer_core_init
 .text.lv_timer_create
                0x00000000000116c2       0x46 ./lvgl/src/misc/lv_timer.o
                0x00000000000116c2                lv_timer_create
 .text.lv_timer_del
                0x0000000000011708       0x20 ./lvgl/src/misc/lv_timer.o
                0x0000000000011708                lv_timer_del
 .text.lv_timer_handler
                0x0000000000011728      0x190 ./lvgl/src/misc/lv_timer.o
                0x0000000000011728                lv_timer_handler
 .text.lv_timer_pause
                0x00000000000118b8        0xe ./lvgl/src/misc/lv_timer.o
                0x00000000000118b8                lv_timer_pause
 .text.lv_timer_resume
                0x00000000000118c6        0xc ./lvgl/src/misc/lv_timer.o
                0x00000000000118c6                lv_timer_resume
 .text.lv_timer_ready
                0x00000000000118d2       0x18 ./lvgl/src/misc/lv_timer.o
                0x00000000000118d2                lv_timer_ready
 .text.block_next
                0x00000000000118ea        0xe ./lvgl/src/misc/lv_tlsf.o
 .text.block_link_next
                0x00000000000118f8       0x10 ./lvgl/src/misc/lv_tlsf.o
 .text.block_mark_as_used
                0x0000000000011908       0x1a ./lvgl/src/misc/lv_tlsf.o
 .text.block_split
                0x0000000000011922       0x64 ./lvgl/src/misc/lv_tlsf.o
 .text.default_walker
                0x0000000000011986        0x2 ./lvgl/src/misc/lv_tlsf.o
 .text.remove_free_block
                0x0000000000011988       0x50 ./lvgl/src/misc/lv_tlsf.o
 .text.mapping_insert
                0x00000000000119d8       0x40 ./lvgl/src/misc/lv_tlsf.o
 .text.block_insert
                0x0000000000011a18       0x62 ./lvgl/src/misc/lv_tlsf.o
 .text.block_trim_free
                0x0000000000011a7a       0x46 ./lvgl/src/misc/lv_tlsf.o
 .text.block_remove
                0x0000000000011ac0       0x28 ./lvgl/src/misc/lv_tlsf.o
 .text.block_merge_next
                0x0000000000011ae8       0x4a ./lvgl/src/misc/lv_tlsf.o
 .text.block_locate_free
                0x0000000000011b32       0xb2 ./lvgl/src/misc/lv_tlsf.o
 .text.lv_tlsf_walk_pool
                0x0000000000011be4       0x3c ./lvgl/src/misc/lv_tlsf.o
                0x0000000000011be4                lv_tlsf_walk_pool
 .text.lv_tlsf_add_pool
                0x0000000000011c20       0x40 ./lvgl/src/misc/lv_tlsf.o
                0x0000000000011c20                lv_tlsf_add_pool
 .text.lv_tlsf_create
                0x0000000000011c60       0x3e ./lvgl/src/misc/lv_tlsf.o
                0x0000000000011c60                lv_tlsf_create
 .text.lv_tlsf_create_with_pool
                0x0000000000011c9e       0x26 ./lvgl/src/misc/lv_tlsf.o
                0x0000000000011c9e                lv_tlsf_create_with_pool
 .text.lv_tlsf_get_pool
                0x0000000000011cc4        0x6 ./lvgl/src/misc/lv_tlsf.o
                0x0000000000011cc4                lv_tlsf_get_pool
 .text.lv_tlsf_malloc
                0x0000000000011cca       0x56 ./lvgl/src/misc/lv_tlsf.o
                0x0000000000011cca                lv_tlsf_malloc
 .text.lv_tlsf_free
                0x0000000000011d20       0x80 ./lvgl/src/misc/lv_tlsf.o
                0x0000000000011d20                lv_tlsf_free
 .text.lv_tlsf_realloc
                0x0000000000011da0       0xda ./lvgl/src/misc/lv_tlsf.o
                0x0000000000011da0                lv_tlsf_realloc
 .text.lv_txt_utf8_size
                0x0000000000011e7a       0x3a ./lvgl/src/misc/lv_txt.o
 .text.lv_txt_utf8_next
                0x0000000000011eb4      0x128 ./lvgl/src/misc/lv_txt.o
 .text.lv_txt_utf8_get_byte_id
                0x0000000000011fdc       0x36 ./lvgl/src/misc/lv_txt.o
 .text.lv_txt_utf8_get_char_id
                0x0000000000012012       0x2a ./lvgl/src/misc/lv_txt.o
 .text.lv_txt_utf8_get_length
                0x000000000001203c       0x2c ./lvgl/src/misc/lv_txt.o
 .text.lv_txt_unicode_to_utf8
                0x0000000000012068       0xb0 ./lvgl/src/misc/lv_txt.o
 .text.lv_txt_utf8_prev
                0x0000000000012118       0x46 ./lvgl/src/misc/lv_txt.o
 .text._lv_txt_is_cmd
                0x000000000001215e       0x4e ./lvgl/src/misc/lv_txt.o
                0x000000000001215e                _lv_txt_is_cmd
 .text._lv_txt_get_next_line
                0x00000000000121ac      0x230 ./lvgl/src/misc/lv_txt.o
                0x00000000000121ac                _lv_txt_get_next_line
 .text._lv_txt_ins
                0x00000000000123dc       0x6a ./lvgl/src/misc/lv_txt.o
                0x00000000000123dc                _lv_txt_ins
 .text._lv_txt_cut
                0x0000000000012446       0x54 ./lvgl/src/misc/lv_txt.o
                0x0000000000012446                _lv_txt_cut
 .text._lv_txt_set_text_vfmt
                0x000000000001249a       0x42 ./lvgl/src/misc/lv_txt.o
                0x000000000001249a                _lv_txt_set_text_vfmt
 .text._lv_txt_encoded_letter_next_2
                0x00000000000124dc       0x36 ./lvgl/src/misc/lv_txt.o
                0x00000000000124dc                _lv_txt_encoded_letter_next_2
 .text.lv_txt_get_width
                0x0000000000012512       0x7a ./lvgl/src/misc/lv_txt.o
                0x0000000000012512                lv_txt_get_width
 .text.lv_txt_get_size
                0x000000000001258c       0xca ./lvgl/src/misc/lv_txt.o
                0x000000000001258c                lv_txt_get_size
 .text._lv_utils_bsearch
                0x0000000000012656       0x4a ./lvgl/src/misc/lv_utils.o
                0x0000000000012656                _lv_utils_bsearch
 .text.lv_disp_drv_init
                0x00000000000126a0       0x52 ./lvgl/src/hal/lv_hal_disp.o
                0x00000000000126a0                lv_disp_drv_init
 .text.lv_disp_draw_buf_init
                0x00000000000126f2       0x26 ./lvgl/src/hal/lv_hal_disp.o
                0x00000000000126f2                lv_disp_draw_buf_init
 .text.lv_disp_drv_register
                0x0000000000012718      0x136 ./lvgl/src/hal/lv_hal_disp.o
                0x0000000000012718                lv_disp_drv_register
 .text.lv_disp_get_default
                0x000000000001284e        0x6 ./lvgl/src/hal/lv_hal_disp.o
                0x000000000001284e                lv_disp_get_default
 .text.lv_disp_get_hor_res
                0x0000000000012854       0x2c ./lvgl/src/hal/lv_hal_disp.o
                0x0000000000012854                lv_disp_get_hor_res
 .text.lv_disp_get_ver_res
                0x0000000000012880       0x2c ./lvgl/src/hal/lv_hal_disp.o
                0x0000000000012880                lv_disp_get_ver_res
 .text.lv_disp_get_dpi
                0x00000000000128ac       0x1a ./lvgl/src/hal/lv_hal_disp.o
                0x00000000000128ac                lv_disp_get_dpi
 .text.lv_disp_flush_ready
                0x00000000000128c6        0xc ./lvgl/src/hal/lv_hal_disp.o
                0x00000000000128c6                lv_disp_flush_ready
 .text.lv_disp_get_next
                0x00000000000128d2       0x1a ./lvgl/src/hal/lv_hal_disp.o
                0x00000000000128d2                lv_disp_get_next
 .text.lv_disp_get_draw_buf
                0x00000000000128ec        0x6 ./lvgl/src/hal/lv_hal_disp.o
                0x00000000000128ec                lv_disp_get_draw_buf
 .text.lv_indev_get_next
                0x00000000000128f2       0x1a ./lvgl/src/hal/lv_hal_indev.o
                0x00000000000128f2                lv_indev_get_next
 .text.lv_tick_inc
                0x000000000001290c       0x10 ./lvgl/src/hal/lv_hal_tick.o
                0x000000000001290c                lv_tick_inc
 .text.lv_tick_get
                0x000000000001291c       0x1a ./lvgl/src/hal/lv_hal_tick.o
                0x000000000001291c                lv_tick_get
 .text.lv_tick_elaps
                0x0000000000012936       0x10 ./lvgl/src/hal/lv_hal_tick.o
                0x0000000000012936                lv_tick_elaps
 .text.lv_font_get_glyph_bitmap
                0x0000000000012946       0x10 ./lvgl/src/font/lv_font.o
                0x0000000000012946                lv_font_get_glyph_bitmap
 .text.lv_font_get_glyph_dsc
                0x0000000000012956       0xbc ./lvgl/src/font/lv_font.o
                0x0000000000012956                lv_font_get_glyph_dsc
 .text.lv_font_get_glyph_width
                0x0000000000012a12       0x1e ./lvgl/src/font/lv_font.o
                0x0000000000012a12                lv_font_get_glyph_width
 .text.kern_pair_8_compare
                0x0000000000012a30       0x1e ./lvgl/src/font/lv_font_fmt_txt.o
 .text.kern_pair_16_compare
                0x0000000000012a4e       0x1e ./lvgl/src/font/lv_font_fmt_txt.o
 .text.unicode_list_compare
                0x0000000000012a6c        0xc ./lvgl/src/font/lv_font_fmt_txt.o
 .text.get_glyph_dsc_id.isra.0.part.1
                0x0000000000012a78       0xfe ./lvgl/src/font/lv_font_fmt_txt.o
 .text.lv_font_get_bitmap_fmt_txt
                0x0000000000012b76       0x40 ./lvgl/src/font/lv_font_fmt_txt.o
                0x0000000000012b76                lv_font_get_bitmap_fmt_txt
 .text.lv_font_get_glyph_dsc_fmt_txt
                0x0000000000012bb6      0x184 ./lvgl/src/font/lv_font_fmt_txt.o
                0x0000000000012bb6                lv_font_get_glyph_dsc_fmt_txt
 .text._lv_font_clean_up_fmt_txt
                0x0000000000012d3a        0x2 ./lvgl/src/font/lv_font_fmt_txt.o
                0x0000000000012d3a                _lv_font_clean_up_fmt_txt
 .text.lv_win_constructor
                0x0000000000012d3c       0x76 ./lvgl/src/extra/widgets/win/lv_win.o
 .text.lv_tileview_constructor
                0x0000000000012db2       0x44 ./lvgl/src/extra/widgets/tileview/lv_tileview.o
 .text.tileview_event_cb
                0x0000000000012df6       0xba ./lvgl/src/extra/widgets/tileview/lv_tileview.o
 .text.lv_tileview_tile_constructor
                0x0000000000012eb0       0x76 ./lvgl/src/extra/widgets/tileview/lv_tileview.o
 .text.lv_tabview_destructor
                0x0000000000012f26       0x70 ./lvgl/src/extra/widgets/tabview/lv_tabview.o
 .text.lv_tabview_constructor
                0x0000000000012f96      0x15e ./lvgl/src/extra/widgets/tabview/lv_tabview.o
 .text.lv_tabview_get_content
                0x00000000000130f4        0xe ./lvgl/src/extra/widgets/tabview/lv_tabview.o
                0x00000000000130f4                lv_tabview_get_content
 .text.lv_tabview_get_tab_btns
                0x0000000000013102        0xe ./lvgl/src/extra/widgets/tabview/lv_tabview.o
                0x0000000000013102                lv_tabview_get_tab_btns
 .text.lv_tabview_set_act
                0x0000000000013110       0xc2 ./lvgl/src/extra/widgets/tabview/lv_tabview.o
                0x0000000000013110                lv_tabview_set_act
 .text.lv_tabview_event
                0x00000000000131d2       0x3c ./lvgl/src/extra/widgets/tabview/lv_tabview.o
 .text.cont_scroll_end_event_cb
                0x000000000001320e       0xd4 ./lvgl/src/extra/widgets/tabview/lv_tabview.o
 .text.btns_value_changed_event_cb
                0x00000000000132e2       0x24 ./lvgl/src/extra/widgets/tabview/lv_tabview.o
 .text.lv_spinner_constructor
                0x0000000000013306       0x82 ./lvgl/src/extra/widgets/spinner/lv_spinner.o
 .text.arc_anim_start_angle
                0x0000000000013388       0x10 ./lvgl/src/extra/widgets/spinner/lv_spinner.o
 .text.arc_anim_end_angle
                0x0000000000013398       0x10 ./lvgl/src/extra/widgets/spinner/lv_spinner.o
 .text.lv_spinbox_updatevalue
                0x00000000000133a8      0x12a ./lvgl/src/extra/widgets/spinbox/lv_spinbox.o
 .text.lv_spinbox_constructor
                0x00000000000134d2       0x48 ./lvgl/src/extra/widgets/spinbox/lv_spinbox.o
 .text.lv_spinbox_step_next
                0x000000000001351a       0x1e ./lvgl/src/extra/widgets/spinbox/lv_spinbox.o
                0x000000000001351a                lv_spinbox_step_next
 .text.lv_spinbox_step_prev
                0x0000000000013538       0x2c ./lvgl/src/extra/widgets/spinbox/lv_spinbox.o
                0x0000000000013538                lv_spinbox_step_prev
 .text.lv_spinbox_increment
                0x0000000000013564       0x44 ./lvgl/src/extra/widgets/spinbox/lv_spinbox.o
                0x0000000000013564                lv_spinbox_increment
 .text.lv_spinbox_decrement
                0x00000000000135a8       0x44 ./lvgl/src/extra/widgets/spinbox/lv_spinbox.o
                0x00000000000135a8                lv_spinbox_decrement
 .text.lv_spinbox_event
                0x00000000000135ec      0x188 ./lvgl/src/extra/widgets/spinbox/lv_spinbox.o
 .text.lv_meter_destructor
                0x0000000000013774       0x20 ./lvgl/src/extra/widgets/meter/lv_meter.o
 .text.lv_meter_constructor
                0x0000000000013794       0x20 ./lvgl/src/extra/widgets/meter/lv_meter.o
 .text.inv_line
                0x00000000000137b4      0x1b6 ./lvgl/src/extra/widgets/meter/lv_meter.o
 .text.inv_arc  0x000000000001396a       0xca ./lvgl/src/extra/widgets/meter/lv_meter.o
 .text.lv_meter_event
                0x0000000000013a34      0x978 ./lvgl/src/extra/widgets/meter/lv_meter.o
 .text.lv_meter_create
                0x00000000000143ac       0x1e ./lvgl/src/extra/widgets/meter/lv_meter.o
                0x00000000000143ac                lv_meter_create
 .text.lv_meter_add_scale
                0x00000000000143ca       0x4e ./lvgl/src/extra/widgets/meter/lv_meter.o
                0x00000000000143ca                lv_meter_add_scale
 .text.lv_meter_set_scale_ticks
                0x0000000000014418       0x1c ./lvgl/src/extra/widgets/meter/lv_meter.o
                0x0000000000014418                lv_meter_set_scale_ticks
 .text.lv_meter_set_scale_major_ticks
                0x0000000000014434       0x20 ./lvgl/src/extra/widgets/meter/lv_meter.o
                0x0000000000014434                lv_meter_set_scale_major_ticks
 .text.lv_meter_set_scale_range
                0x0000000000014454       0x18 ./lvgl/src/extra/widgets/meter/lv_meter.o
                0x0000000000014454                lv_meter_set_scale_range
 .text.lv_meter_add_arc
                0x000000000001446c       0x46 ./lvgl/src/extra/widgets/meter/lv_meter.o
                0x000000000001446c                lv_meter_add_arc
 .text.lv_meter_set_indicator_end_value
                0x00000000000144b2       0x44 ./lvgl/src/extra/widgets/meter/lv_meter.o
                0x00000000000144b2                lv_meter_set_indicator_end_value
 .text.lv_menu_destructor
                0x00000000000144f6       0x10 ./lvgl/src/extra/widgets/menu/lv_menu.o
 .text.lv_menu_section_constructor
                0x0000000000014506       0x1a ./lvgl/src/extra/widgets/menu/lv_menu.o
 .text.lv_menu_cont_constructor
                0x0000000000014520       0x26 ./lvgl/src/extra/widgets/menu/lv_menu.o
 .text.lv_menu_constructor
                0x0000000000014546      0x146 ./lvgl/src/extra/widgets/menu/lv_menu.o
 .text.lv_menu_value_changed_event_cb
                0x000000000001468c       0x4e ./lvgl/src/extra/widgets/menu/lv_menu.o
 .text.lv_menu_page_destructor
                0x00000000000146da       0x18 ./lvgl/src/extra/widgets/menu/lv_menu.o
 .text.lv_menu_page_constructor
                0x00000000000146f2       0x34 ./lvgl/src/extra/widgets/menu/lv_menu.o
 .text.lv_menu_refr_main_header_mode
                0x0000000000014726       0x70 ./lvgl/src/extra/widgets/menu/lv_menu.o
 .text.lv_menu_back_btn_is_root
                0x0000000000014796       0x1e ./lvgl/src/extra/widgets/menu/lv_menu.o
                0x0000000000014796                lv_menu_back_btn_is_root
 .text.lv_menu_clear_history
                0x00000000000147b4       0x16 ./lvgl/src/extra/widgets/menu/lv_menu.o
                0x00000000000147b4                lv_menu_clear_history
 .text.lv_menu_set_page
                0x00000000000147ca       0xd4 ./lvgl/src/extra/widgets/menu/lv_menu.o
                0x00000000000147ca                lv_menu_set_page
 .text.lv_menu_back_event_cb
                0x000000000001489e       0x96 ./lvgl/src/extra/widgets/menu/lv_menu.o
 .text.lv_color_to32
                0x0000000000014934       0x4e ./lvgl/src/extra/widgets/led/lv_led.o
 .text.lv_color_mix
                0x0000000000014982       0x3c ./lvgl/src/extra/widgets/led/lv_led.o
 .text.lv_color_black
                0x00000000000149be        0x4 ./lvgl/src/extra/widgets/led/lv_led.o
 .text.lv_led_event
                0x00000000000149c2      0x27e ./lvgl/src/extra/widgets/led/lv_led.o
 .text.lv_led_constructor
                0x0000000000014c40       0x20 ./lvgl/src/extra/widgets/led/lv_led.o
 .text.lv_keyboard_update_ctrl_map
                0x0000000000014c60       0x7c ./lvgl/src/extra/widgets/keyboard/lv_keyboard.o
 .text.lv_keyboard_update_map
                0x0000000000014cdc       0x28 ./lvgl/src/extra/widgets/keyboard/lv_keyboard.o
 .text.lv_keyboard_constructor
                0x0000000000014d04       0x50 ./lvgl/src/extra/widgets/keyboard/lv_keyboard.o
 .text.lv_keyboard_def_event_cb
                0x0000000000014d54      0x212 ./lvgl/src/extra/widgets/keyboard/lv_keyboard.o
                0x0000000000014d54                lv_keyboard_def_event_cb
 .text.fast_hsv2rgb.part.0
                0x0000000000014f66       0x90 ./lvgl/src/extra/widgets/colorwheel/lv_colorwheel.o
 .text.get_knob_area
                0x0000000000014ff6       0xa2 ./lvgl/src/extra/widgets/colorwheel/lv_colorwheel.o
 .text.refr_knob_pos
                0x0000000000015098       0xca ./lvgl/src/extra/widgets/colorwheel/lv_colorwheel.o
 .text.lv_colorwheel_constructor
                0x0000000000015162       0x4e ./lvgl/src/extra/widgets/colorwheel/lv_colorwheel.o
 .text.lv_colorwheel_set_hsv
                0x00000000000151b0       0x86 ./lvgl/src/extra/widgets/colorwheel/lv_colorwheel.o
                0x00000000000151b0                lv_colorwheel_set_hsv
 .text.lv_colorwheel_get_rgb
                0x0000000000015236       0x18 ./lvgl/src/extra/widgets/colorwheel/lv_colorwheel.o
                0x0000000000015236                lv_colorwheel_get_rgb
 .text.lv_colorwheel_event
                0x000000000001524e      0x7ba ./lvgl/src/extra/widgets/colorwheel/lv_colorwheel.o
 .text.lv_obj_get_style_pad_left
                0x0000000000015a08       0x12 ./lvgl/src/extra/widgets/chart/lv_chart.o
 .text.lv_obj_get_style_width
                0x0000000000015a1a       0x12 ./lvgl/src/extra/widgets/chart/lv_chart.o
 .text.lv_obj_get_style_pad_column
                0x0000000000015a2c       0x12 ./lvgl/src/extra/widgets/chart/lv_chart.o
 .text.lv_obj_get_style_pad_top
                0x0000000000015a3e       0x12 ./lvgl/src/extra/widgets/chart/lv_chart.o
 .text.lv_chart_destructor
                0x0000000000015a50       0x60 ./lvgl/src/extra/widgets/chart/lv_chart.o
 .text.lv_chart_constructor
                0x0000000000015ab0       0x5e ./lvgl/src/extra/widgets/chart/lv_chart.o
 .text.lv_obj_get_style_border_width.constprop.8
                0x0000000000015b0e       0x16 ./lvgl/src/extra/widgets/chart/lv_chart.o
 .text.invalidate_point
                0x0000000000015b24      0x192 ./lvgl/src/extra/widgets/chart/lv_chart.o
 .text.lv_chart_get_point_pos_by_id
                0x0000000000015cb6      0x1d0 ./lvgl/src/extra/widgets/chart/lv_chart.o
                0x0000000000015cb6                lv_chart_get_point_pos_by_id
 .text.get_tick_gsc
                0x0000000000015e86       0x2c ./lvgl/src/extra/widgets/chart/lv_chart.o
                0x0000000000015e86                get_tick_gsc
 .text.draw_y_ticks
                0x0000000000015eb2      0x300 ./lvgl/src/extra/widgets/chart/lv_chart.o
 .text.draw_x_ticks
                0x00000000000161b2      0x364 ./lvgl/src/extra/widgets/chart/lv_chart.o
 .text.lv_chart_event
                0x0000000000016516     0x126a ./lvgl/src/extra/widgets/chart/lv_chart.o
 .text.get_month_length
                0x0000000000017780       0x5c ./lvgl/src/extra/widgets/calendar/lv_calendar.o
 .text.draw_part_begin_event_cb
                0x00000000000177dc       0xc6 ./lvgl/src/extra/widgets/calendar/lv_calendar.o
 .text.get_day_of_week.constprop.0
                0x00000000000178a2       0x4e ./lvgl/src/extra/widgets/calendar/lv_calendar.o
 .text.highlight_update
                0x00000000000178f0       0x94 ./lvgl/src/extra/widgets/calendar/lv_calendar.o
 .text.lv_calendar_set_showed_date
                0x0000000000017984      0x16a ./lvgl/src/extra/widgets/calendar/lv_calendar.o
                0x0000000000017984                lv_calendar_set_showed_date
 .text.lv_calendar_constructor
                0x0000000000017aee      0x10a ./lvgl/src/extra/widgets/calendar/lv_calendar.o
 .text.lv_calendar_get_showed_date
                0x0000000000017bf8        0x6 ./lvgl/src/extra/widgets/calendar/lv_calendar.o
                0x0000000000017bf8                lv_calendar_get_showed_date
 .text.my_constructor
                0x0000000000017bfe       0xea ./lvgl/src/extra/widgets/calendar/lv_calendar_header_arrow.o
 .text.value_changed_event_cb
                0x0000000000017ce8       0x46 ./lvgl/src/extra/widgets/calendar/lv_calendar_header_arrow.o
 .text.month_event_cb
                0x0000000000017d2e       0x8c ./lvgl/src/extra/widgets/calendar/lv_calendar_header_arrow.o
 .text.my_constructor
                0x0000000000017dba       0x9a ./lvgl/src/extra/widgets/calendar/lv_calendar_header_dropdown.o
 .text.value_changed_event_cb
                0x0000000000017e54       0x48 ./lvgl/src/extra/widgets/calendar/lv_calendar_header_dropdown.o
 .text.month_event_cb
                0x0000000000017e9c       0x38 ./lvgl/src/extra/widgets/calendar/lv_calendar_header_dropdown.o
 .text.year_event_cb
                0x0000000000017ed4       0x3a ./lvgl/src/extra/widgets/calendar/lv_calendar_header_dropdown.o
 .text.lv_color_mix
                0x0000000000017f0e       0x3c ./lvgl/src/extra/themes/default/lv_theme_default.o
 .text.lv_color_white
                0x0000000000017f4a        0x4 ./lvgl/src/extra/themes/default/lv_theme_default.o
 .text.theme_apply
                0x0000000000017f4e      0xfd6 ./lvgl/src/extra/themes/default/lv_theme_default.o
 .text.grey_filter_cb
                0x0000000000018f24       0x32 ./lvgl/src/extra/themes/default/lv_theme_default.o
 .text.lv_style_set_pad_gap
                0x0000000000018f56       0x18 ./lvgl/src/extra/themes/default/lv_theme_default.o
 .text.lv_style_set_pad_ver
                0x0000000000018f6e       0x18 ./lvgl/src/extra/themes/default/lv_theme_default.o
 .text.dark_color_filter_cb
                0x0000000000018f86       0x10 ./lvgl/src/extra/themes/default/lv_theme_default.o
 .text.lv_style_set_size
                0x0000000000018f96       0x18 ./lvgl/src/extra/themes/default/lv_theme_default.o
 .text.lv_style_set_pad_hor
                0x0000000000018fae       0x18 ./lvgl/src/extra/themes/default/lv_theme_default.o
 .text.lv_style_set_pad_all
                0x0000000000018fc6       0x28 ./lvgl/src/extra/themes/default/lv_theme_default.o
 .text.style_init_reset
                0x0000000000018fee       0x18 ./lvgl/src/extra/themes/default/lv_theme_default.o
 .text.lv_disp_dpx.part.1
                0x0000000000019006       0x3a ./lvgl/src/extra/themes/default/lv_theme_default.o
 .text.lv_theme_default_init
                0x0000000000019040     0x18c8 ./lvgl/src/extra/themes/default/lv_theme_default.o
                0x0000000000019040                lv_theme_default_init
 .text.lv_theme_default_get
                0x000000000001a908       0x14 ./lvgl/src/extra/themes/default/lv_theme_default.o
                0x000000000001a908                lv_theme_default_get
 .text.lv_theme_default_is_inited
                0x000000000001a91c        0xa ./lvgl/src/extra/themes/default/lv_theme_default.o
                0x000000000001a91c                lv_theme_default_is_inited
 .text.grid_align
                0x000000000001a926      0x160 ./lvgl/src/extra/layouts/grid/lv_grid.o
 .text.grid_update
                0x000000000001aa86      0x938 ./lvgl/src/extra/layouts/grid/lv_grid.o
 .text.lv_grid_init
                0x000000000001b3be       0x7e ./lvgl/src/extra/layouts/grid/lv_grid.o
                0x000000000001b3be                lv_grid_init
 .text.lv_area_get_width
                0x000000000001b43c       0x14 ./lvgl/src/extra/layouts/flex/lv_flex.o
 .text.lv_area_get_height
                0x000000000001b450       0x14 ./lvgl/src/extra/layouts/flex/lv_flex.o
 .text.place_content
                0x000000000001b464       0xb0 ./lvgl/src/extra/layouts/flex/lv_flex.o
 .text.get_next_item.isra.0
                0x000000000001b514       0x2a ./lvgl/src/extra/layouts/flex/lv_flex.o
 .text.find_track_end
                0x000000000001b53e      0x25c ./lvgl/src/extra/layouts/flex/lv_flex.o
 .text.flex_update
                0x000000000001b79a      0x780 ./lvgl/src/extra/layouts/flex/lv_flex.o
 .text.lv_flex_init
                0x000000000001bf1a       0x42 ./lvgl/src/extra/layouts/flex/lv_flex.o
                0x000000000001bf1a                lv_flex_init
 .text.lv_obj_set_style_flex_flow
                0x000000000001bf5c       0x14 ./lvgl/src/extra/layouts/flex/lv_flex.o
                0x000000000001bf5c                lv_obj_set_style_flex_flow
 .text.lv_obj_set_flex_flow
                0x000000000001bf70       0x1c ./lvgl/src/extra/layouts/flex/lv_flex.o
                0x000000000001bf70                lv_obj_set_flex_flow
 .text.lv_obj_set_style_flex_main_place
                0x000000000001bf8c       0x14 ./lvgl/src/extra/layouts/flex/lv_flex.o
                0x000000000001bf8c                lv_obj_set_style_flex_main_place
 .text.lv_obj_set_style_flex_cross_place
                0x000000000001bfa0       0x14 ./lvgl/src/extra/layouts/flex/lv_flex.o
                0x000000000001bfa0                lv_obj_set_style_flex_cross_place
 .text.lv_obj_set_style_flex_track_place
                0x000000000001bfb4       0x14 ./lvgl/src/extra/layouts/flex/lv_flex.o
                0x000000000001bfb4                lv_obj_set_style_flex_track_place
 .text.lv_obj_set_flex_align
                0x000000000001bfc8       0x3a ./lvgl/src/extra/layouts/flex/lv_flex.o
                0x000000000001bfc8                lv_obj_set_flex_align
 .text.lv_obj_set_style_flex_grow
                0x000000000001c002       0x14 ./lvgl/src/extra/layouts/flex/lv_flex.o
                0x000000000001c002                lv_obj_set_style_flex_grow
 .text.lv_obj_set_flex_grow
                0x000000000001c016       0x1a ./lvgl/src/extra/layouts/flex/lv_flex.o
                0x000000000001c016                lv_obj_set_flex_grow
 .text.lv_extra_init
                0x000000000001c030       0x10 ./lvgl/src/extra/lv_extra.o
                0x000000000001c030                lv_extra_init
 .text.lv_draw_sw_wait_for_finish
                0x000000000001c040        0x2 ./lvgl/src/draw/sw/lv_draw_sw.o
                0x000000000001c040                lv_draw_sw_wait_for_finish
 .text.lv_draw_sw_buffer_copy
                0x000000000001c042       0x6e ./lvgl/src/draw/sw/lv_draw_sw.o
                0x000000000001c042                lv_draw_sw_buffer_copy
 .text.lv_draw_sw_init_ctx
                0x000000000001c0b0       0x78 ./lvgl/src/draw/sw/lv_draw_sw.o
                0x000000000001c0b0                lv_draw_sw_init_ctx
 .text.get_rounded_area
                0x000000000001c128       0xc0 ./lvgl/src/draw/sw/lv_draw_sw_arc.o
 .text.lv_draw_sw_arc
                0x000000000001c1e8      0x9f4 ./lvgl/src/draw/sw/lv_draw_sw_arc.o
                0x000000000001c1e8                lv_draw_sw_arc
 .text.lv_color_mix
                0x000000000001cbdc       0x3c ./lvgl/src/draw/sw/lv_draw_sw_blend.o
 .text.color_blend_true_color_additive
                0x000000000001cc18       0x8e ./lvgl/src/draw/sw/lv_draw_sw_blend.o
 .text.color_blend_true_color_subtractive
                0x000000000001cca6       0x8e ./lvgl/src/draw/sw/lv_draw_sw_blend.o
 .text.color_blend_true_color_multiply
                0x000000000001cd34       0x70 ./lvgl/src/draw/sw/lv_draw_sw_blend.o
 .text.lv_draw_sw_blend
                0x000000000001cda4       0x38 ./lvgl/src/draw/sw/lv_draw_sw_blend.o
                0x000000000001cda4                lv_draw_sw_blend
 .text.lv_draw_sw_blend_basic
                0x000000000001cddc      0x9ba ./lvgl/src/draw/sw/lv_draw_sw_blend.o
                0x000000000001cddc                lv_draw_sw_blend_basic
 .text.lv_color_to32
                0x000000000001d796       0x4e ./lvgl/src/draw/sw/lv_draw_sw_gradient.o
 .text.find_oldest_item_life
                0x000000000001d7e4       0x12 ./lvgl/src/draw/sw/lv_draw_sw_gradient.o
 .text.find_item
                0x000000000001d7f6        0xc ./lvgl/src/draw/sw/lv_draw_sw_gradient.o
 .text.kill_oldest_item
                0x000000000001d802       0x82 ./lvgl/src/draw/sw/lv_draw_sw_gradient.o
 .text.iterate_cache
                0x000000000001d884       0x62 ./lvgl/src/draw/sw/lv_draw_sw_gradient.o
 .text.lv_gradient_set_cache_size
                0x000000000001d8e6       0x2e ./lvgl/src/draw/sw/lv_draw_sw_gradient.o
                0x000000000001d8e6                lv_gradient_set_cache_size
 .text.lv_gradient_calculate
                0x000000000001d914       0xfe ./lvgl/src/draw/sw/lv_draw_sw_gradient.o
                0x000000000001d914                lv_gradient_calculate
 .text.lv_gradient_get
                0x000000000001da12      0x192 ./lvgl/src/draw/sw/lv_draw_sw_gradient.o
                0x000000000001da12                lv_gradient_get
 .text.lv_gradient_cleanup
                0x000000000001dba4       0x14 ./lvgl/src/draw/sw/lv_draw_sw_gradient.o
                0x000000000001dba4                lv_gradient_cleanup
 .text.lv_draw_sw_img_decoded
                0x000000000001dbb8      0x53e ./lvgl/src/draw/sw/lv_draw_sw_img.o
                0x000000000001dbb8                lv_draw_sw_img_decoded
 .text.lv_draw_sw_letter
                0x000000000001e0f6      0x430 ./lvgl/src/draw/sw/lv_draw_sw_letter.o
                0x000000000001e0f6                lv_draw_sw_letter
 .text.lv_draw_sw_line
                0x000000000001e526      0x77a ./lvgl/src/draw/sw/lv_draw_sw_line.o
                0x000000000001e526                lv_draw_sw_line
 .text.lv_draw_sw_polygon
                0x000000000001eca0      0x2fc ./lvgl/src/draw/sw/lv_draw_sw_polygon.o
                0x000000000001eca0                lv_draw_sw_polygon
 .text.shadow_blur_corner
                0x000000000001ef9c      0x182 ./lvgl/src/draw/sw/lv_draw_sw_rect.o
 .text.draw_bg_img
                0x000000000001f11e      0x208 ./lvgl/src/draw/sw/lv_draw_sw_rect.o
 .text.draw_bg  0x000000000001f326      0x3f6 ./lvgl/src/draw/sw/lv_draw_sw_rect.o
 .text.lv_draw_sw_bg
                0x000000000001f71c       0x1c ./lvgl/src/draw/sw/lv_draw_sw_rect.o
                0x000000000001f71c                lv_draw_sw_bg
 .text.draw_border_generic
                0x000000000001f738      0x59c ./lvgl/src/draw/sw/lv_draw_sw_rect.o
                0x000000000001f738                draw_border_generic
 .text.lv_draw_sw_rect
                0x000000000001fcd4     0x106c ./lvgl/src/draw/sw/lv_draw_sw_rect.o
                0x000000000001fcd4                lv_draw_sw_rect
 .text.lv_draw_init
                0x0000000000020d40        0x2 ./lvgl/src/draw/lv_draw.o
                0x0000000000020d40                lv_draw_init
 .text.lv_draw_arc_dsc_init
                0x0000000000020d42       0x1a ./lvgl/src/draw/lv_draw_arc.o
                0x0000000000020d42                lv_draw_arc_dsc_init
 .text.lv_draw_arc
                0x0000000000020d5c       0x26 ./lvgl/src/draw/lv_draw_arc.o
                0x0000000000020d5c                lv_draw_arc
 .text.lv_draw_arc_get_area
                0x0000000000020d82      0x4f0 ./lvgl/src/draw/lv_draw_arc.o
                0x0000000000020d82                lv_draw_arc_get_area
 .text.show_error
                0x0000000000021272       0x38 ./lvgl/src/draw/lv_draw_img.o
 .text.lv_draw_img_dsc_init
                0x00000000000212aa       0x2e ./lvgl/src/draw/lv_draw_img.o
                0x00000000000212aa                lv_draw_img_dsc_init
 .text.lv_img_cf_get_px_size
                0x00000000000212d8       0x20 ./lvgl/src/draw/lv_draw_img.o
                0x00000000000212d8                lv_img_cf_get_px_size
 .text.lv_img_cf_is_chroma_keyed
                0x00000000000212f8       0x12 ./lvgl/src/draw/lv_draw_img.o
                0x00000000000212f8                lv_img_cf_is_chroma_keyed
 .text.lv_img_cf_has_alpha
                0x000000000002130a       0x1e ./lvgl/src/draw/lv_draw_img.o
                0x000000000002130a                lv_img_cf_has_alpha
 .text.lv_img_src_get_type
                0x0000000000021328       0x24 ./lvgl/src/draw/lv_draw_img.o
                0x0000000000021328                lv_img_src_get_type
 .text.lv_draw_img_decoded
                0x000000000002134c       0x10 ./lvgl/src/draw/lv_draw_img.o
                0x000000000002134c                lv_draw_img_decoded
 .text.lv_draw_img
                0x000000000002135c      0x20e ./lvgl/src/draw/lv_draw_img.o
                0x000000000002135c                lv_draw_img
 .text.hex_char_to_num
                0x000000000002156a       0x40 ./lvgl/src/draw/lv_draw_label.o
 .text.lv_draw_label_dsc_init
                0x00000000000215aa       0x3c ./lvgl/src/draw/lv_draw_label.o
                0x00000000000215aa                lv_draw_label_dsc_init
 .text.lv_draw_letter
                0x00000000000215e6        0xc ./lvgl/src/draw/lv_draw_label.o
                0x00000000000215e6                lv_draw_letter
 .text.lv_draw_label
                0x00000000000215f2      0x582 ./lvgl/src/draw/lv_draw_label.o
                0x00000000000215f2                lv_draw_label
 .text.lv_draw_line_dsc_init
                0x0000000000021b74       0x20 ./lvgl/src/draw/lv_draw_line.o
                0x0000000000021b74                lv_draw_line_dsc_init
 .text.lv_draw_line
                0x0000000000021b94       0x20 ./lvgl/src/draw/lv_draw_line.o
                0x0000000000021b94                lv_draw_line
 .text.mask_mix
                0x0000000000021bb4       0x28 ./lvgl/src/draw/lv_draw_mask.o
 .text.lv_draw_mask_line
                0x0000000000021bdc      0x408 ./lvgl/src/draw/lv_draw_mask.o
 .text.lv_draw_mask_angle
                0x0000000000021fe4      0x2d6 ./lvgl/src/draw/lv_draw_mask.o
 .text.lv_draw_mask_radius
                0x00000000000222ba      0x2a8 ./lvgl/src/draw/lv_draw_mask.o
 .text.lv_draw_mask_add
                0x0000000000022562       0x34 ./lvgl/src/draw/lv_draw_mask.o
                0x0000000000022562                lv_draw_mask_add
 .text.lv_draw_mask_apply
                0x0000000000022596       0x38 ./lvgl/src/draw/lv_draw_mask.o
                0x0000000000022596                lv_draw_mask_apply
 .text.lv_draw_mask_remove_id
                0x00000000000225ce       0x1e ./lvgl/src/draw/lv_draw_mask.o
                0x00000000000225ce                lv_draw_mask_remove_id
 .text.lv_draw_mask_remove_custom
                0x00000000000225ec       0x32 ./lvgl/src/draw/lv_draw_mask.o
                0x00000000000225ec                lv_draw_mask_remove_custom
 .text.lv_draw_mask_free_param
                0x000000000002261e       0x3c ./lvgl/src/draw/lv_draw_mask.o
                0x000000000002261e                lv_draw_mask_free_param
 .text._lv_draw_mask_cleanup
                0x000000000002265a       0x26 ./lvgl/src/draw/lv_draw_mask.o
                0x000000000002265a                _lv_draw_mask_cleanup
 .text.lv_draw_mask_is_any
                0x0000000000022680       0x58 ./lvgl/src/draw/lv_draw_mask.o
                0x0000000000022680                lv_draw_mask_is_any
 .text.lv_draw_mask_line_points_init
                0x00000000000226d8      0x14a ./lvgl/src/draw/lv_draw_mask.o
                0x00000000000226d8                lv_draw_mask_line_points_init
 .text.lv_draw_mask_line_angle_init
                0x0000000000022822       0x5e ./lvgl/src/draw/lv_draw_mask.o
                0x0000000000022822                lv_draw_mask_line_angle_init
 .text.lv_draw_mask_angle_init
                0x0000000000022880       0xae ./lvgl/src/draw/lv_draw_mask.o
                0x0000000000022880                lv_draw_mask_angle_init
 .text.lv_draw_mask_radius_init
                0x000000000002292e      0x4b4 ./lvgl/src/draw/lv_draw_mask.o
                0x000000000002292e                lv_draw_mask_radius_init
 .text.lv_draw_rect_dsc_init
                0x0000000000022de2       0x60 ./lvgl/src/draw/lv_draw_rect.o
                0x0000000000022de2                lv_draw_rect_dsc_init
 .text.lv_draw_rect
                0x0000000000022e42       0x38 ./lvgl/src/draw/lv_draw_rect.o
                0x0000000000022e42                lv_draw_rect
 .text.lv_memcpy_small
                0x0000000000022e7a       0x1c ./lvgl/src/draw/lv_img_buf.o
 .text.lv_color_mix
                0x0000000000022e96       0x3c ./lvgl/src/draw/lv_img_buf.o
 .text.lv_img_buf_get_px_color
                0x0000000000022ed2      0x12e ./lvgl/src/draw/lv_img_buf.o
                0x0000000000022ed2                lv_img_buf_get_px_color
 .text.lv_img_buf_get_px_alpha
                0x0000000000023000      0x12e ./lvgl/src/draw/lv_img_buf.o
                0x0000000000023000                lv_img_buf_get_px_alpha
 .text._lv_img_buf_transform_init
                0x000000000002312e      0x13a ./lvgl/src/draw/lv_img_buf.o
                0x000000000002312e                _lv_img_buf_transform_init
 .text._lv_img_buf_get_transformed_area
                0x0000000000023268      0x24e ./lvgl/src/draw/lv_img_buf.o
                0x0000000000023268                _lv_img_buf_get_transformed_area
 .text._lv_img_buf_transform_anti_alias
                0x00000000000234b6      0x30c ./lvgl/src/draw/lv_img_buf.o
                0x00000000000234b6                _lv_img_buf_transform_anti_alias
 .text._lv_img_buf_transform
                0x00000000000237c2      0x162 ./lvgl/src/draw/lv_img_buf.o
                0x00000000000237c2                _lv_img_buf_transform
 .text._lv_img_cache_open
                0x0000000000023924       0x64 ./lvgl/src/draw/lv_img_cache.o
                0x0000000000023924                _lv_img_cache_open
 .text.lv_img_decoder_built_in_close
                0x0000000000023988       0x38 ./lvgl/src/draw/lv_img_decoder.o
                0x0000000000023988                lv_img_decoder_built_in_close
 .text.lv_img_decoder_built_in_info
                0x00000000000239c0       0xca ./lvgl/src/draw/lv_img_decoder.o
                0x00000000000239c0                lv_img_decoder_built_in_info
 .text.lv_img_decoder_built_in_read_line
                0x0000000000023a8a      0x3f2 ./lvgl/src/draw/lv_img_decoder.o
                0x0000000000023a8a                lv_img_decoder_built_in_read_line
 .text.lv_img_decoder_built_in_open
                0x0000000000023e7c      0x19e ./lvgl/src/draw/lv_img_decoder.o
                0x0000000000023e7c                lv_img_decoder_built_in_open
 .text.lv_img_decoder_get_info
                0x000000000002401a       0x5a ./lvgl/src/draw/lv_img_decoder.o
                0x000000000002401a                lv_img_decoder_get_info
 .text.lv_img_decoder_open
                0x0000000000024074       0xd0 ./lvgl/src/draw/lv_img_decoder.o
                0x0000000000024074                lv_img_decoder_open
 .text.lv_img_decoder_read_line
                0x0000000000024144       0x26 ./lvgl/src/draw/lv_img_decoder.o
                0x0000000000024144                lv_img_decoder_read_line
 .text.lv_img_decoder_close
                0x000000000002416a       0x2a ./lvgl/src/draw/lv_img_decoder.o
                0x000000000002416a                lv_img_decoder_close
 .text.lv_img_decoder_create
                0x0000000000024194       0x1e ./lvgl/src/draw/lv_img_decoder.o
                0x0000000000024194                lv_img_decoder_create
 .text._lv_img_decoder_init
                0x00000000000241b2       0x42 ./lvgl/src/draw/lv_img_decoder.o
                0x00000000000241b2                _lv_img_decoder_init
 .text.lv_disp_get_scr_act
                0x00000000000241f4       0x1c ./lvgl/src/core/lv_disp.o
                0x00000000000241f4                lv_disp_get_scr_act
 .text.lv_disp_get_scr_prev
                0x0000000000024210       0x1c ./lvgl/src/core/lv_disp.o
                0x0000000000024210                lv_disp_get_scr_prev
 .text.lv_disp_get_layer_top
                0x000000000002422c       0x1c ./lvgl/src/core/lv_disp.o
                0x000000000002422c                lv_disp_get_layer_top
 .text.lv_disp_get_layer_sys
                0x0000000000024248       0x1c ./lvgl/src/core/lv_disp.o
                0x0000000000024248                lv_disp_get_layer_sys
 .text.lv_disp_get_theme
                0x0000000000024264       0x14 ./lvgl/src/core/lv_disp.o
                0x0000000000024264                lv_disp_get_theme
 .text.lv_obj_event_base
                0x0000000000024278       0x2e ./lvgl/src/core/lv_event.o
                0x0000000000024278                lv_obj_event_base
 .text.event_send_core
                0x00000000000242a6      0x16a ./lvgl/src/core/lv_event.o
 .text.lv_event_send
                0x0000000000024410       0x3a ./lvgl/src/core/lv_event.o
                0x0000000000024410                lv_event_send
 .text.lv_event_get_target
                0x000000000002444a        0x4 ./lvgl/src/core/lv_event.o
                0x000000000002444a                lv_event_get_target
 .text.lv_event_get_current_target
                0x000000000002444e        0x4 ./lvgl/src/core/lv_event.o
                0x000000000002444e                lv_event_get_current_target
 .text.lv_event_get_code
                0x0000000000024452        0x8 ./lvgl/src/core/lv_event.o
                0x0000000000024452                lv_event_get_code
 .text.lv_event_get_param
                0x000000000002445a        0x4 ./lvgl/src/core/lv_event.o
                0x000000000002445a                lv_event_get_param
 .text.lv_event_get_user_data
                0x000000000002445e        0x4 ./lvgl/src/core/lv_event.o
                0x000000000002445e                lv_event_get_user_data
 .text._lv_event_mark_deleted
                0x0000000000024462       0x24 ./lvgl/src/core/lv_event.o
                0x0000000000024462                _lv_event_mark_deleted
 .text.lv_obj_add_event_cb
                0x0000000000024486       0x5c ./lvgl/src/core/lv_event.o
                0x0000000000024486                lv_obj_add_event_cb
 .text.lv_event_get_indev
                0x00000000000244e2       0x12 ./lvgl/src/core/lv_event.o
                0x00000000000244e2                lv_event_get_indev
 .text.lv_event_get_draw_ctx
                0x00000000000244f4       0x12 ./lvgl/src/core/lv_event.o
                0x00000000000244f4                lv_event_get_draw_ctx
 .text.lv_event_set_ext_draw_size
                0x0000000000024506       0x20 ./lvgl/src/core/lv_event.o
                0x0000000000024506                lv_event_set_ext_draw_size
 .text.get_indev
                0x0000000000024526       0x52 ./lvgl/src/core/lv_group.o
 .text.focus_next_core.part.1
                0x0000000000024578       0xd4 ./lvgl/src/core/lv_group.o
 .text._lv_group_init
                0x000000000002464c       0x12 ./lvgl/src/core/lv_group.o
                0x000000000002464c                _lv_group_init
 .text.lv_group_get_default
                0x000000000002465e        0x6 ./lvgl/src/core/lv_group.o
                0x000000000002465e                lv_group_get_default
 .text.lv_group_focus_next
                0x0000000000024664       0x26 ./lvgl/src/core/lv_group.o
                0x0000000000024664                lv_group_focus_next
 .text.lv_group_focus_prev
                0x000000000002468a       0x26 ./lvgl/src/core/lv_group.o
                0x000000000002468a                lv_group_focus_prev
 .text.lv_group_refocus
                0x00000000000246b0       0x38 ./lvgl/src/core/lv_group.o
 .text.lv_group_add_obj
                0x00000000000246e8       0x6c ./lvgl/src/core/lv_group.o
                0x00000000000246e8                lv_group_add_obj
 .text.lv_group_remove_obj
                0x0000000000024754       0x9a ./lvgl/src/core/lv_group.o
                0x0000000000024754                lv_group_remove_obj
 .text.lv_group_get_focused
                0x00000000000247ee       0x10 ./lvgl/src/core/lv_group.o
                0x00000000000247ee                lv_group_get_focused
 .text.lv_group_set_editing
                0x00000000000247fe       0x52 ./lvgl/src/core/lv_group.o
                0x00000000000247fe                lv_group_set_editing
 .text.lv_group_get_editing
                0x0000000000024850       0x10 ./lvgl/src/core/lv_group.o
                0x0000000000024850                lv_group_get_editing
 .text.lv_indev_get_act
                0x0000000000024860        0x6 ./lvgl/src/core/lv_indev.o
                0x0000000000024860                lv_indev_get_act
 .text.lv_indev_get_type
                0x0000000000024866        0xc ./lvgl/src/core/lv_indev.o
                0x0000000000024866                lv_indev_get_type
 .text.lv_indev_reset
                0x0000000000024872       0xaa ./lvgl/src/core/lv_indev.o
                0x0000000000024872                lv_indev_reset
 .text.lv_indev_reset_long_press
                0x000000000002491c       0x20 ./lvgl/src/core/lv_indev.o
                0x000000000002491c                lv_indev_reset_long_press
 .text.lv_indev_get_point
                0x000000000002493c       0x32 ./lvgl/src/core/lv_indev.o
                0x000000000002493c                lv_indev_get_point
 .text.lv_indev_get_scroll_dir
                0x000000000002496e       0x1a ./lvgl/src/core/lv_indev.o
                0x000000000002496e                lv_indev_get_scroll_dir
 .text.lv_indev_get_scroll_obj
                0x0000000000024988       0x18 ./lvgl/src/core/lv_indev.o
                0x0000000000024988                lv_indev_get_scroll_obj
 .text.lv_indev_get_vect
                0x00000000000249a0       0x28 ./lvgl/src/core/lv_indev.o
                0x00000000000249a0                lv_indev_get_vect
 .text.lv_indev_wait_release
                0x00000000000249c8       0x10 ./lvgl/src/core/lv_indev.o
                0x00000000000249c8                lv_indev_wait_release
 .text.lv_indev_get_obj_act
                0x00000000000249d8        0x6 ./lvgl/src/core/lv_indev.o
                0x00000000000249d8                lv_indev_get_obj_act
 .text.lv_indev_scroll_throw_predict
                0x00000000000249de       0x46 ./lvgl/src/core/lv_indev_scroll.o
                0x00000000000249de                lv_indev_scroll_throw_predict
 .text.lv_obj_constructor
                0x0000000000024a24       0x84 ./lvgl/src/core/lv_obj.o
 .text.lv_obj_set_state
                0x0000000000024aa8      0x21c ./lvgl/src/core/lv_obj.o
 .text.lv_obj_draw
                0x0000000000024cc4      0x4b0 ./lvgl/src/core/lv_obj.o
 .text.lv_init  0x0000000000025174       0x58 ./lvgl/src/core/lv_obj.o
                0x0000000000025174                lv_init
 .text.lv_obj_create
                0x00000000000251cc       0x1c ./lvgl/src/core/lv_obj.o
                0x00000000000251cc                lv_obj_create
 .text.lv_obj_add_flag
                0x00000000000251e8       0x74 ./lvgl/src/core/lv_obj.o
                0x00000000000251e8                lv_obj_add_flag
 .text.lv_obj_clear_flag
                0x000000000002525c       0x80 ./lvgl/src/core/lv_obj.o
                0x000000000002525c                lv_obj_clear_flag
 .text.lv_obj_add_state
                0x00000000000252dc       0x18 ./lvgl/src/core/lv_obj.o
                0x00000000000252dc                lv_obj_add_state
 .text.lv_obj_clear_state
                0x00000000000252f4       0x1c ./lvgl/src/core/lv_obj.o
                0x00000000000252f4                lv_obj_clear_state
 .text.lv_obj_has_flag
                0x0000000000025310        0xc ./lvgl/src/core/lv_obj.o
                0x0000000000025310                lv_obj_has_flag
 .text.lv_obj_has_flag_any
                0x000000000002531c        0xa ./lvgl/src/core/lv_obj.o
                0x000000000002531c                lv_obj_has_flag_any
 .text.lv_obj_get_state
                0x0000000000025326        0x6 ./lvgl/src/core/lv_obj.o
                0x0000000000025326                lv_obj_get_state
 .text.lv_obj_get_group
                0x000000000002532c        0xc ./lvgl/src/core/lv_obj.o
                0x000000000002532c                lv_obj_get_group
 .text.lv_obj_event
                0x0000000000025338      0x360 ./lvgl/src/core/lv_obj.o
 .text.lv_obj_destructor
                0x0000000000025698       0x6c ./lvgl/src/core/lv_obj.o
 .text.lv_obj_allocate_spec_attr
                0x0000000000025704       0x46 ./lvgl/src/core/lv_obj.o
                0x0000000000025704                lv_obj_allocate_spec_attr
 .text.lv_obj_check_type
                0x000000000002574a       0x10 ./lvgl/src/core/lv_obj.o
                0x000000000002574a                lv_obj_check_type
 .text.lv_obj_construct
                0x000000000002575a       0x26 ./lvgl/src/core/lv_obj_class.o
 .text.lv_obj_class_create_obj
                0x0000000000025780       0xf6 ./lvgl/src/core/lv_obj_class.o
                0x0000000000025780                lv_obj_class_create_obj
 .text._lv_obj_destruct
                0x0000000000025876       0x1e ./lvgl/src/core/lv_obj_class.o
                0x0000000000025876                _lv_obj_destruct
 .text.lv_obj_is_editable
                0x0000000000025894       0x1a ./lvgl/src/core/lv_obj_class.o
                0x0000000000025894                lv_obj_is_editable
 .text.lv_obj_is_group_def
                0x00000000000258ae       0x1a ./lvgl/src/core/lv_obj_class.o
                0x00000000000258ae                lv_obj_is_group_def
 .text.lv_obj_class_init_obj
                0x00000000000258c8       0x78 ./lvgl/src/core/lv_obj_class.o
                0x00000000000258c8                lv_obj_class_init_obj
 .text.lv_obj_get_style_opa
                0x0000000000025940       0x14 ./lvgl/src/core/lv_obj_draw.o
 .text.lv_obj_get_style_blend_mode
                0x0000000000025954       0x14 ./lvgl/src/core/lv_obj_draw.o
 .text.lv_obj_get_style_bg_color_filtered
                0x0000000000025968       0x1e ./lvgl/src/core/lv_obj_draw.o
 .text.lv_obj_get_style_text_color_filtered
                0x0000000000025986       0x1e ./lvgl/src/core/lv_obj_draw.o
 .text.lv_obj_init_draw_rect_dsc
                0x00000000000259a4      0x3a0 ./lvgl/src/core/lv_obj_draw.o
                0x00000000000259a4                lv_obj_init_draw_rect_dsc
 .text.lv_obj_init_draw_label_dsc
                0x0000000000025d44       0xd0 ./lvgl/src/core/lv_obj_draw.o
                0x0000000000025d44                lv_obj_init_draw_label_dsc
 .text.lv_obj_init_draw_img_dsc
                0x0000000000025e14       0xcc ./lvgl/src/core/lv_obj_draw.o
                0x0000000000025e14                lv_obj_init_draw_img_dsc
 .text.lv_obj_init_draw_line_dsc
                0x0000000000025ee0       0xe2 ./lvgl/src/core/lv_obj_draw.o
                0x0000000000025ee0                lv_obj_init_draw_line_dsc
 .text.lv_obj_init_draw_arc_dsc
                0x0000000000025fc2       0xc4 ./lvgl/src/core/lv_obj_draw.o
                0x0000000000025fc2                lv_obj_init_draw_arc_dsc
 .text.lv_obj_calculate_ext_draw_size
                0x0000000000026086      0x124 ./lvgl/src/core/lv_obj_draw.o
                0x0000000000026086                lv_obj_calculate_ext_draw_size
 .text.lv_obj_draw_dsc_init
                0x00000000000261aa       0x16 ./lvgl/src/core/lv_obj_draw.o
                0x00000000000261aa                lv_obj_draw_dsc_init
 .text._lv_obj_get_ext_draw_size
                0x00000000000261c0        0xe ./lvgl/src/core/lv_obj_draw.o
                0x00000000000261c0                _lv_obj_get_ext_draw_size
 .text.lv_obj_refresh_ext_draw_size
                0x00000000000261ce       0x60 ./lvgl/src/core/lv_obj_draw.o
                0x00000000000261ce                lv_obj_refresh_ext_draw_size
 .text.lv_obj_get_style_pad_top.constprop.9
                0x000000000002622e       0x14 ./lvgl/src/core/lv_obj_pos.o
 .text.lv_obj_get_style_pad_bottom.constprop.10
                0x0000000000026242       0x14 ./lvgl/src/core/lv_obj_pos.o
 .text.lv_obj_get_style_base_dir.constprop.14
                0x0000000000026256       0x16 ./lvgl/src/core/lv_obj_pos.o
 .text.lv_obj_get_style_pad_left.constprop.19
                0x000000000002626c       0x14 ./lvgl/src/core/lv_obj_pos.o
 .text.lv_obj_get_style_pad_right.constprop.20
                0x0000000000026280       0x14 ./lvgl/src/core/lv_obj_pos.o
 .text.lv_obj_get_style_border_width.constprop.21
                0x0000000000026294       0x16 ./lvgl/src/core/lv_obj_pos.o
 .text.lv_obj_set_x
                0x00000000000262aa       0x34 ./lvgl/src/core/lv_obj_pos.o
                0x00000000000262aa                lv_obj_set_x
 .text.lv_obj_set_y
                0x00000000000262de       0x34 ./lvgl/src/core/lv_obj_pos.o
                0x00000000000262de                lv_obj_set_y
 .text.lv_obj_set_pos
                0x0000000000026312       0x1e ./lvgl/src/core/lv_obj_pos.o
                0x0000000000026312                lv_obj_set_pos
 .text.lv_obj_set_width
                0x0000000000026330       0x34 ./lvgl/src/core/lv_obj_pos.o
                0x0000000000026330                lv_obj_set_width
 .text.lv_obj_set_height
                0x0000000000026364       0x34 ./lvgl/src/core/lv_obj_pos.o
                0x0000000000026364                lv_obj_set_height
 .text.lv_obj_set_size
                0x0000000000026398       0x1e ./lvgl/src/core/lv_obj_pos.o
                0x0000000000026398                lv_obj_set_size
 .text.lv_obj_is_layout_positioned
                0x00000000000263b6       0x34 ./lvgl/src/core/lv_obj_pos.o
                0x00000000000263b6                lv_obj_is_layout_positioned
 .text.lv_obj_mark_layout_as_dirty
                0x00000000000263ea       0x30 ./lvgl/src/core/lv_obj_pos.o
                0x00000000000263ea                lv_obj_mark_layout_as_dirty
 .text.lv_obj_set_layout
                0x000000000002641a       0x1a ./lvgl/src/core/lv_obj_pos.o
                0x000000000002641a                lv_obj_set_layout
 .text.lv_layout_register
                0x0000000000026434       0x3c ./lvgl/src/core/lv_obj_pos.o
                0x0000000000026434                lv_layout_register
 .text.lv_obj_align
                0x0000000000026470       0x24 ./lvgl/src/core/lv_obj_pos.o
                0x0000000000026470                lv_obj_align
 .text.lv_obj_get_coords
                0x0000000000026494       0x22 ./lvgl/src/core/lv_obj_pos.o
                0x0000000000026494                lv_obj_get_coords
 .text.lv_obj_get_x
                0x00000000000264b6       0x4a ./lvgl/src/core/lv_obj_pos.o
                0x00000000000264b6                lv_obj_get_x
 .text.lv_obj_get_y
                0x0000000000026500       0x4a ./lvgl/src/core/lv_obj_pos.o
                0x0000000000026500                lv_obj_get_y
 .text.lv_obj_get_y2
                0x000000000002654a       0x20 ./lvgl/src/core/lv_obj_pos.o
                0x000000000002654a                lv_obj_get_y2
 .text.lv_obj_get_width
                0x000000000002656a       0x14 ./lvgl/src/core/lv_obj_pos.o
                0x000000000002656a                lv_obj_get_width
 .text.lv_obj_get_height
                0x000000000002657e       0x14 ./lvgl/src/core/lv_obj_pos.o
                0x000000000002657e                lv_obj_get_height
 .text.lv_obj_get_content_width
                0x0000000000026592       0x3a ./lvgl/src/core/lv_obj_pos.o
                0x0000000000026592                lv_obj_get_content_width
 .text.lv_obj_get_content_height
                0x00000000000265cc       0x3a ./lvgl/src/core/lv_obj_pos.o
                0x00000000000265cc                lv_obj_get_content_height
 .text.lv_obj_get_content_coords
                0x0000000000026606       0x84 ./lvgl/src/core/lv_obj_pos.o
                0x0000000000026606                lv_obj_get_content_coords
 .text.lv_obj_get_self_width
                0x000000000002668a       0x20 ./lvgl/src/core/lv_obj_pos.o
                0x000000000002668a                lv_obj_get_self_width
 .text.lv_obj_get_self_height
                0x00000000000266aa       0x20 ./lvgl/src/core/lv_obj_pos.o
                0x00000000000266aa                lv_obj_get_self_height
 .text.lv_obj_refresh_self_size
                0x00000000000266ca       0x40 ./lvgl/src/core/lv_obj_pos.o
                0x00000000000266ca                lv_obj_refresh_self_size
 .text.lv_obj_move_children_by
                0x000000000002670a       0x82 ./lvgl/src/core/lv_obj_pos.o
                0x000000000002670a                lv_obj_move_children_by
 .text.lv_obj_area_is_visible
                0x000000000002678c       0xce ./lvgl/src/core/lv_obj_pos.o
                0x000000000002678c                lv_obj_area_is_visible
 .text.lv_obj_invalidate_area
                0x000000000002685a       0x42 ./lvgl/src/core/lv_obj_pos.o
                0x000000000002685a                lv_obj_invalidate_area
 .text.lv_obj_invalidate
                0x000000000002689c       0x62 ./lvgl/src/core/lv_obj_pos.o
                0x000000000002689c                lv_obj_invalidate
 .text.lv_obj_move_to
                0x00000000000268fe      0x178 ./lvgl/src/core/lv_obj_pos.o
                0x00000000000268fe                lv_obj_move_to
 .text.lv_obj_refr_pos
                0x0000000000026a76      0x28a ./lvgl/src/core/lv_obj_pos.o
                0x0000000000026a76                lv_obj_refr_pos
 .text.lv_obj_is_visible
                0x0000000000026d00       0x46 ./lvgl/src/core/lv_obj_pos.o
                0x0000000000026d00                lv_obj_is_visible
 .text.lv_obj_set_ext_click_area
                0x0000000000026d46       0x1c ./lvgl/src/core/lv_obj_pos.o
                0x0000000000026d46                lv_obj_set_ext_click_area
 .text.lv_obj_get_click_area
                0x0000000000026d62       0x42 ./lvgl/src/core/lv_obj_pos.o
                0x0000000000026d62                lv_obj_get_click_area
 .text.lv_clamp_width
                0x0000000000026da4       0x90 ./lvgl/src/core/lv_obj_pos.o
                0x0000000000026da4                lv_clamp_width
 .text.lv_obj_refr_size
                0x0000000000026e34      0x64e ./lvgl/src/core/lv_obj_pos.o
                0x0000000000026e34                lv_obj_refr_size
 .text.layout_update_core
                0x0000000000027482       0x72 ./lvgl/src/core/lv_obj_pos.o
 .text.lv_obj_update_layout
                0x00000000000274f4       0x3a ./lvgl/src/core/lv_obj_pos.o
                0x00000000000274f4                lv_obj_update_layout
 .text.lv_obj_align_to
                0x000000000002752e      0x3f4 ./lvgl/src/core/lv_obj_pos.o
                0x000000000002752e                lv_obj_align_to
 .text.lv_obj_get_style_base_dir
                0x0000000000027922       0x14 ./lvgl/src/core/lv_obj_scroll.o
 .text.scroll_by_raw
                0x0000000000027936       0x56 ./lvgl/src/core/lv_obj_scroll.o
 .text.scroll_anim_ready_cb
                0x000000000002798c       0x12 ./lvgl/src/core/lv_obj_scroll.o
 .text.lv_obj_set_scrollbar_mode
                0x000000000002799e       0x36 ./lvgl/src/core/lv_obj_scroll.o
                0x000000000002799e                lv_obj_set_scrollbar_mode
 .text.lv_obj_set_scroll_dir
                0x00000000000279d4       0x38 ./lvgl/src/core/lv_obj_scroll.o
                0x00000000000279d4                lv_obj_set_scroll_dir
 .text.lv_obj_set_scroll_snap_x
                0x0000000000027a0c       0x2a ./lvgl/src/core/lv_obj_scroll.o
                0x0000000000027a0c                lv_obj_set_scroll_snap_x
 .text.lv_obj_set_scroll_snap_y
                0x0000000000027a36       0x2c ./lvgl/src/core/lv_obj_scroll.o
                0x0000000000027a36                lv_obj_set_scroll_snap_y
 .text.lv_obj_get_scrollbar_mode
                0x0000000000027a62        0xe ./lvgl/src/core/lv_obj_scroll.o
                0x0000000000027a62                lv_obj_get_scrollbar_mode
 .text.lv_obj_get_scroll_dir
                0x0000000000027a70       0x10 ./lvgl/src/core/lv_obj_scroll.o
                0x0000000000027a70                lv_obj_get_scroll_dir
 .text.lv_obj_get_scroll_snap_x
                0x0000000000027a80       0x10 ./lvgl/src/core/lv_obj_scroll.o
                0x0000000000027a80                lv_obj_get_scroll_snap_x
 .text.lv_obj_get_scroll_snap_y
                0x0000000000027a90       0x10 ./lvgl/src/core/lv_obj_scroll.o
                0x0000000000027a90                lv_obj_get_scroll_snap_y
 .text.lv_obj_get_scroll_x
                0x0000000000027aa0       0x16 ./lvgl/src/core/lv_obj_scroll.o
                0x0000000000027aa0                lv_obj_get_scroll_x
 .text.scroll_x_anim
                0x0000000000027ab6       0x24 ./lvgl/src/core/lv_obj_scroll.o
 .text.lv_obj_get_scroll_y
                0x0000000000027ada       0x16 ./lvgl/src/core/lv_obj_scroll.o
                0x0000000000027ada                lv_obj_get_scroll_y
 .text.scroll_y_anim
                0x0000000000027af0       0x26 ./lvgl/src/core/lv_obj_scroll.o
 .text.lv_obj_get_scroll_top
                0x0000000000027b16        0xc ./lvgl/src/core/lv_obj_scroll.o
                0x0000000000027b16                lv_obj_get_scroll_top
 .text.lv_obj_get_scroll_bottom
                0x0000000000027b22       0xca ./lvgl/src/core/lv_obj_scroll.o
                0x0000000000027b22                lv_obj_get_scroll_bottom
 .text.lv_obj_get_scroll_left
                0x0000000000027bec      0x104 ./lvgl/src/core/lv_obj_scroll.o
                0x0000000000027bec                lv_obj_get_scroll_left
 .text.lv_obj_get_scroll_right
                0x0000000000027cf0       0xe6 ./lvgl/src/core/lv_obj_scroll.o
                0x0000000000027cf0                lv_obj_get_scroll_right
 .text.lv_obj_get_scroll_end
                0x0000000000027dd6       0x56 ./lvgl/src/core/lv_obj_scroll.o
                0x0000000000027dd6                lv_obj_get_scroll_end
 .text.lv_obj_scroll_by
                0x0000000000027e2c      0x150 ./lvgl/src/core/lv_obj_scroll.o
                0x0000000000027e2c                lv_obj_scroll_by
 .text.lv_obj_scroll_by_bounded
                0x0000000000027f7c      0x112 ./lvgl/src/core/lv_obj_scroll.o
                0x0000000000027f7c                lv_obj_scroll_by_bounded
 .text.scroll_area_into_view
                0x000000000002808e      0x330 ./lvgl/src/core/lv_obj_scroll.o
 .text.lv_obj_scroll_to_x
                0x00000000000283be       0x36 ./lvgl/src/core/lv_obj_scroll.o
                0x00000000000283be                lv_obj_scroll_to_x
 .text.lv_obj_scroll_to_y
                0x00000000000283f4       0x36 ./lvgl/src/core/lv_obj_scroll.o
                0x00000000000283f4                lv_obj_scroll_to_y
 .text.lv_obj_scroll_to
                0x000000000002842a       0x24 ./lvgl/src/core/lv_obj_scroll.o
                0x000000000002842a                lv_obj_scroll_to
 .text.lv_obj_scroll_to_view_recursive
                0x000000000002844e       0x3a ./lvgl/src/core/lv_obj_scroll.o
                0x000000000002844e                lv_obj_scroll_to_view_recursive
 .text.lv_obj_get_scrollbar_area
                0x0000000000028488      0x80c ./lvgl/src/core/lv_obj_scroll.o
                0x0000000000028488                lv_obj_get_scrollbar_area
 .text.lv_obj_scrollbar_invalidate
                0x0000000000028c94       0x46 ./lvgl/src/core/lv_obj_scroll.o
                0x0000000000028c94                lv_obj_scrollbar_invalidate
 .text.lv_obj_readjust_scroll
                0x0000000000028cda       0x96 ./lvgl/src/core/lv_obj_scroll.o
                0x0000000000028cda                lv_obj_readjust_scroll
 .text.trans_del
                0x0000000000028d70       0xb2 ./lvgl/src/core/lv_obj_style.o
 .text.refresh_children_style
                0x0000000000028e22       0x44 ./lvgl/src/core/lv_obj_style.o
 .text.get_trans_style
                0x0000000000028e66       0xbc ./lvgl/src/core/lv_obj_style.o
 .text._lv_obj_style_init
                0x0000000000028f22       0x12 ./lvgl/src/core/lv_obj_style.o
                0x0000000000028f22                _lv_obj_style_init
 .text.lv_obj_enable_style_refresh
                0x0000000000028f34        0x6 ./lvgl/src/core/lv_obj_style.o
                0x0000000000028f34                lv_obj_enable_style_refresh
 .text.lv_obj_get_style_prop
                0x0000000000028f3a      0x142 ./lvgl/src/core/lv_obj_style.o
                0x0000000000028f3a                lv_obj_get_style_prop
 .text.trans_anim_start_cb
                0x000000000002907c       0x48 ./lvgl/src/core/lv_obj_style.o
 .text.lv_obj_refresh_style
                0x00000000000290c4       0xea ./lvgl/src/core/lv_obj_style.o
                0x00000000000290c4                lv_obj_refresh_style
 .text.lv_obj_add_style
                0x00000000000291ae       0xb0 ./lvgl/src/core/lv_obj_style.o
                0x00000000000291ae                lv_obj_add_style
 .text.report_style_change_core
                0x000000000002925e       0x60 ./lvgl/src/core/lv_obj_style.o
 .text.lv_obj_report_style_change
                0x00000000000292be       0x3c ./lvgl/src/core/lv_obj_style.o
                0x00000000000292be                lv_obj_report_style_change
 .text.trans_anim_cb
                0x00000000000292fa      0x186 ./lvgl/src/core/lv_obj_style.o
 .text.lv_obj_remove_style
                0x0000000000029480      0x11a ./lvgl/src/core/lv_obj_style.o
                0x0000000000029480                lv_obj_remove_style
 .text.trans_anim_ready_cb
                0x000000000002959a       0xac ./lvgl/src/core/lv_obj_style.o
 .text.lv_obj_set_local_style_prop
                0x0000000000029646      0x112 ./lvgl/src/core/lv_obj_style.o
                0x0000000000029646                lv_obj_set_local_style_prop
 .text.lv_obj_get_local_style_prop
                0x0000000000029758       0x4a ./lvgl/src/core/lv_obj_style.o
                0x0000000000029758                lv_obj_get_local_style_prop
 .text.lv_obj_remove_local_style_prop
                0x00000000000297a2       0x50 ./lvgl/src/core/lv_obj_style.o
                0x00000000000297a2                lv_obj_remove_local_style_prop
 .text._lv_obj_style_create_transition
                0x00000000000297f2      0x152 ./lvgl/src/core/lv_obj_style.o
                0x00000000000297f2                _lv_obj_style_create_transition
 .text._lv_obj_style_apply_color_filter
                0x0000000000029944       0x46 ./lvgl/src/core/lv_obj_style.o
                0x0000000000029944                _lv_obj_style_apply_color_filter
 .text._lv_obj_style_state_compare
                0x000000000002998a      0x200 ./lvgl/src/core/lv_obj_style.o
                0x000000000002998a                _lv_obj_style_state_compare
 .text.lv_obj_style_get_selector_state
                0x0000000000029b8a        0x6 ./lvgl/src/core/lv_obj_style.o
                0x0000000000029b8a                lv_obj_style_get_selector_state
 .text.lv_obj_style_get_selector_part
                0x0000000000029b90        0x8 ./lvgl/src/core/lv_obj_style.o
                0x0000000000029b90                lv_obj_style_get_selector_part
 .text.lv_obj_calculate_style_text_align
                0x0000000000029b98       0x2a ./lvgl/src/core/lv_obj_style.o
                0x0000000000029b98                lv_obj_calculate_style_text_align
 .text.lv_obj_set_style_width
                0x0000000000029bc2       0x12 ./lvgl/src/core/lv_obj_style_gen.o
                0x0000000000029bc2                lv_obj_set_style_width
 .text.lv_obj_set_style_min_width
                0x0000000000029bd4       0x12 ./lvgl/src/core/lv_obj_style_gen.o
                0x0000000000029bd4                lv_obj_set_style_min_width
 .text.lv_obj_set_style_height
                0x0000000000029be6       0x12 ./lvgl/src/core/lv_obj_style_gen.o
                0x0000000000029be6                lv_obj_set_style_height
 .text.lv_obj_set_style_x
                0x0000000000029bf8       0x12 ./lvgl/src/core/lv_obj_style_gen.o
                0x0000000000029bf8                lv_obj_set_style_x
 .text.lv_obj_set_style_y
                0x0000000000029c0a       0x12 ./lvgl/src/core/lv_obj_style_gen.o
                0x0000000000029c0a                lv_obj_set_style_y
 .text.lv_obj_set_style_align
                0x0000000000029c1c       0x12 ./lvgl/src/core/lv_obj_style_gen.o
                0x0000000000029c1c                lv_obj_set_style_align
 .text.lv_obj_set_style_bg_img_src
                0x0000000000029c2e       0x14 ./lvgl/src/core/lv_obj_style_gen.o
                0x0000000000029c2e                lv_obj_set_style_bg_img_src
 .text.lv_obj_set_style_text_align
                0x0000000000029c42       0x14 ./lvgl/src/core/lv_obj_style_gen.o
                0x0000000000029c42                lv_obj_set_style_text_align
 .text.lv_obj_set_style_layout
                0x0000000000029c56       0x14 ./lvgl/src/core/lv_obj_style_gen.o
                0x0000000000029c56                lv_obj_set_style_layout
 .text.lv_obj_set_style_base_dir
                0x0000000000029c6a       0x14 ./lvgl/src/core/lv_obj_style_gen.o
                0x0000000000029c6a                lv_obj_set_style_base_dir
 .text.lv_obj_get_screen
                0x0000000000029c7e        0xc ./lvgl/src/core/lv_obj_tree.o
                0x0000000000029c7e                lv_obj_get_screen
 .text.lv_obj_get_disp
                0x0000000000029c8a       0x42 ./lvgl/src/core/lv_obj_tree.o
                0x0000000000029c8a                lv_obj_get_disp
 .text.lv_obj_get_parent
                0x0000000000029ccc        0xa ./lvgl/src/core/lv_obj_tree.o
                0x0000000000029ccc                lv_obj_get_parent
 .text.lv_obj_get_child
                0x0000000000029cd6       0x2c ./lvgl/src/core/lv_obj_tree.o
                0x0000000000029cd6                lv_obj_get_child
 .text.lv_obj_get_child_cnt
                0x0000000000029d02        0xc ./lvgl/src/core/lv_obj_tree.o
                0x0000000000029d02                lv_obj_get_child_cnt
 .text.lv_obj_get_index
                0x0000000000029d0e       0x38 ./lvgl/src/core/lv_obj_tree.o
                0x0000000000029d0e                lv_obj_get_index
 .text.obj_del_core
                0x0000000000029d46       0xf0 ./lvgl/src/core/lv_obj_tree.o
 .text.lv_obj_del
                0x0000000000029e36       0x74 ./lvgl/src/core/lv_obj_tree.o
                0x0000000000029e36                lv_obj_del
 .text.lv_obj_set_parent
                0x0000000000029eaa       0xf4 ./lvgl/src/core/lv_obj_tree.o
                0x0000000000029eaa                lv_obj_set_parent
 .text.lv_obj_move_to_index
                0x0000000000029f9e       0x8a ./lvgl/src/core/lv_obj_tree.o
                0x0000000000029f9e                lv_obj_move_to_index
 .text.call_flush_cb
                0x000000000002a028       0x42 ./lvgl/src/core/lv_refr.o
 .text.lv_refr_get_top_obj
                0x000000000002a06a       0x6a ./lvgl/src/core/lv_refr.o
 .text.draw_buf_flush.isra.3
                0x000000000002a0d4      0x4a4 ./lvgl/src/core/lv_refr.o
 .text._lv_refr_init
                0x000000000002a578        0x2 ./lvgl/src/core/lv_refr.o
                0x000000000002a578                _lv_refr_init
 .text.lv_refr_obj
                0x000000000002a57a       0xee ./lvgl/src/core/lv_refr.o
                0x000000000002a57a                lv_refr_obj
 .text.lv_refr_obj_and_children
                0x000000000002a668       0x88 ./lvgl/src/core/lv_refr.o
 .text.lv_refr_area_part
                0x000000000002a6f0      0x186 ./lvgl/src/core/lv_refr.o
 .text._lv_inv_area
                0x000000000002a876       0xf6 ./lvgl/src/core/lv_refr.o
                0x000000000002a876                _lv_inv_area
 .text._lv_refr_get_disp_refreshing
                0x000000000002a96c        0x6 ./lvgl/src/core/lv_refr.o
                0x000000000002a96c                _lv_refr_get_disp_refreshing
 .text._lv_disp_refr_timer
                0x000000000002a972      0x42a ./lvgl/src/core/lv_refr.o
                0x000000000002a972                _lv_disp_refr_timer
 .text.apply_theme
                0x000000000002ad9c       0x1c ./lvgl/src/core/lv_theme.o
 .text.lv_theme_get_from_obj
                0x000000000002adb8       0x18 ./lvgl/src/core/lv_theme.o
                0x000000000002adb8                lv_theme_get_from_obj
 .text.lv_theme_apply
                0x000000000002add0       0x28 ./lvgl/src/core/lv_theme.o
                0x000000000002add0                lv_theme_apply
 .text.lv_theme_get_color_primary
                0x000000000002adf8       0x1a ./lvgl/src/core/lv_theme.o
                0x000000000002adf8                lv_theme_get_color_primary
 .text.EXTI_Init
                0x000000000002ae12       0x6a ./libraries/hal_libraries/ch32v307_hal/source/ch32v30x_exti.o
                0x000000000002ae12                EXTI_Init
 .text.EXTI_GetITStatus
                0x000000000002ae7c       0x1e ./libraries/hal_libraries/ch32v307_hal/source/ch32v30x_exti.o
                0x000000000002ae7c                EXTI_GetITStatus
 .text.EXTI_ClearITPendingBit
                0x000000000002ae9a        0xa ./libraries/hal_libraries/ch32v307_hal/source/ch32v30x_exti.o
                0x000000000002ae9a                EXTI_ClearITPendingBit
 .text.FSMC_NORSRAMInit
                0x000000000002aea4       0xba ./libraries/hal_libraries/ch32v307_hal/source/ch32v30x_fsmc.o
                0x000000000002aea4                FSMC_NORSRAMInit
 .text.FSMC_NORSRAMCmd
                0x000000000002af5e       0x1e ./libraries/hal_libraries/ch32v307_hal/source/ch32v30x_fsmc.o
                0x000000000002af5e                FSMC_NORSRAMCmd
 .text.GPIO_Init
                0x000000000002af7c       0xc2 ./libraries/hal_libraries/ch32v307_hal/source/ch32v30x_gpio.o
                0x000000000002af7c                GPIO_Init
 .text.GPIO_ReadInputDataBit
                0x000000000002b03e        0xa ./libraries/hal_libraries/ch32v307_hal/source/ch32v30x_gpio.o
                0x000000000002b03e                GPIO_ReadInputDataBit
 .text.GPIO_SetBits
                0x000000000002b048        0x4 ./libraries/hal_libraries/ch32v307_hal/source/ch32v30x_gpio.o
                0x000000000002b048                GPIO_SetBits
 .text.GPIO_ResetBits
                0x000000000002b04c        0x4 ./libraries/hal_libraries/ch32v307_hal/source/ch32v30x_gpio.o
                0x000000000002b04c                GPIO_ResetBits
 .text.GPIO_WriteBit
                0x000000000002b050        0xa ./libraries/hal_libraries/ch32v307_hal/source/ch32v30x_gpio.o
                0x000000000002b050                GPIO_WriteBit
 .text.RCC_GetClocksFreq
                0x000000000002b05a      0x10e ./libraries/hal_libraries/ch32v307_hal/source/ch32v30x_rcc.o
                0x000000000002b05a                RCC_GetClocksFreq
 .text.RCC_AHBPeriphClockCmd
                0x000000000002b168       0x1e ./libraries/hal_libraries/ch32v307_hal/source/ch32v30x_rcc.o
                0x000000000002b168                RCC_AHBPeriphClockCmd
 .text.RCC_APB2PeriphClockCmd
                0x000000000002b186       0x1e ./libraries/hal_libraries/ch32v307_hal/source/ch32v30x_rcc.o
                0x000000000002b186                RCC_APB2PeriphClockCmd
 .text.USART_Init
                0x000000000002b1a4       0xd8 ./libraries/hal_libraries/ch32v307_hal/source/ch32v30x_usart.o
                0x000000000002b1a4                USART_Init
