Archive member included to satisfy reference by file (symbol)

d:/rt-threadstudio/repo/extract/toolchain_support_packages/wch/risc-v-gcc-wch/8.2.0/bin/../lib/gcc/riscv-none-embed/8.2.0/../../../../riscv-none-embed/lib/rv32imafc/ilp32f\libc_nano.a(lib_a-fclose.o)
                              ./rt-thread/components/libc/compilers/newlib/stdio.o (fclose)
d:/rt-threadstudio/repo/extract/toolchain_support_packages/wch/risc-v-gcc-wch/8.2.0/bin/../lib/gcc/riscv-none-embed/8.2.0/../../../../riscv-none-embed/lib/rv32imafc/ilp32f\libc_nano.a(lib_a-fflush.o)
                              d:/rt-threadstudio/repo/extract/toolchain_support_packages/wch/risc-v-gcc-wch/8.2.0/bin/../lib/gcc/riscv-none-embed/8.2.0/../../../../riscv-none-embed/lib/rv32imafc/ilp32f\libc_nano.a(lib_a-fclose.o) (__sflush_r)
d:/rt-threadstudio/repo/extract/toolchain_support_packages/wch/risc-v-gcc-wch/8.2.0/bin/../lib/gcc/riscv-none-embed/8.2.0/../../../../riscv-none-embed/lib/rv32imafc/ilp32f\libc_nano.a(lib_a-fileno.o)
                              ./rt-thread/components/libc/compilers/newlib/stdio.o (fileno)
d:/rt-threadstudio/repo/extract/toolchain_support_packages/wch/risc-v-gcc-wch/8.2.0/bin/../lib/gcc/riscv-none-embed/8.2.0/../../../../riscv-none-embed/lib/rv32imafc/ilp32f\libc_nano.a(lib_a-findfp.o)
                              d:/rt-threadstudio/repo/extract/toolchain_support_packages/wch/risc-v-gcc-wch/8.2.0/bin/../lib/gcc/riscv-none-embed/8.2.0/../../../../riscv-none-embed/lib/rv32imafc/ilp32f\libc_nano.a(lib_a-fclose.o) (__sinit)
d:/rt-threadstudio/repo/extract/toolchain_support_packages/wch/risc-v-gcc-wch/8.2.0/bin/../lib/gcc/riscv-none-embed/8.2.0/../../../../riscv-none-embed/lib/rv32imafc/ilp32f\libc_nano.a(lib_a-fopen.o)
                              ./rt-thread/components/libc/compilers/newlib/stdio.o (fopen)
d:/rt-threadstudio/repo/extract/toolchain_support_packages/wch/risc-v-gcc-wch/8.2.0/bin/../lib/gcc/riscv-none-embed/8.2.0/../../../../riscv-none-embed/lib/rv32imafc/ilp32f\libc_nano.a(lib_a-fseek.o)
                              d:/rt-threadstudio/repo/extract/toolchain_support_packages/wch/risc-v-gcc-wch/8.2.0/bin/../lib/gcc/riscv-none-embed/8.2.0/../../../../riscv-none-embed/lib/rv32imafc/ilp32f\libc_nano.a(lib_a-fopen.o) (_fseek_r)
d:/rt-threadstudio/repo/extract/toolchain_support_packages/wch/risc-v-gcc-wch/8.2.0/bin/../lib/gcc/riscv-none-embed/8.2.0/../../../../riscv-none-embed/lib/rv32imafc/ilp32f\libc_nano.a(lib_a-fseeko.o)
                              d:/rt-threadstudio/repo/extract/toolchain_support_packages/wch/risc-v-gcc-wch/8.2.0/bin/../lib/gcc/riscv-none-embed/8.2.0/../../../../riscv-none-embed/lib/rv32imafc/ilp32f\libc_nano.a(lib_a-fseek.o) (_fseeko_r)
d:/rt-threadstudio/repo/extract/toolchain_support_packages/wch/risc-v-gcc-wch/8.2.0/bin/../lib/gcc/riscv-none-embed/8.2.0/../../../../riscv-none-embed/lib/rv32imafc/ilp32f\libc_nano.a(lib_a-fwalk.o)
                              d:/rt-threadstudio/repo/extract/toolchain_support_packages/wch/risc-v-gcc-wch/8.2.0/bin/../lib/gcc/riscv-none-embed/8.2.0/../../../../riscv-none-embed/lib/rv32imafc/ilp32f\libc_nano.a(lib_a-findfp.o) (_fwalk)
d:/rt-threadstudio/repo/extract/toolchain_support_packages/wch/risc-v-gcc-wch/8.2.0/bin/../lib/gcc/riscv-none-embed/8.2.0/../../../../riscv-none-embed/lib/rv32imafc/ilp32f\libc_nano.a(lib_a-impure.o)
                              ./rt-thread/components/libc/compilers/newlib/stdio.o (_global_impure_ptr)
d:/rt-threadstudio/repo/extract/toolchain_support_packages/wch/risc-v-gcc-wch/8.2.0/bin/../lib/gcc/riscv-none-embed/8.2.0/../../../../riscv-none-embed/lib/rv32imafc/ilp32f\libc_nano.a(lib_a-makebuf.o)
                              d:/rt-threadstudio/repo/extract/toolchain_support_packages/wch/risc-v-gcc-wch/8.2.0/bin/../lib/gcc/riscv-none-embed/8.2.0/../../../../riscv-none-embed/lib/rv32imafc/ilp32f\libc_nano.a(lib_a-fseeko.o) (__smakebuf_r)
d:/rt-threadstudio/repo/extract/toolchain_support_packages/wch/risc-v-gcc-wch/8.2.0/bin/../lib/gcc/riscv-none-embed/8.2.0/../../../../riscv-none-embed/lib/rv32imafc/ilp32f\libc_nano.a(lib_a-memcmp.o)
                              ./rt-thread/components/finsh/shell.o (memcmp)
d:/rt-threadstudio/repo/extract/toolchain_support_packages/wch/risc-v-gcc-wch/8.2.0/bin/../lib/gcc/riscv-none-embed/8.2.0/../../../../riscv-none-embed/lib/rv32imafc/ilp32f\libc_nano.a(lib_a-memcpy.o)
                              ./rt-thread/components/finsh/cmd.o (memcpy)
d:/rt-threadstudio/repo/extract/toolchain_support_packages/wch/risc-v-gcc-wch/8.2.0/bin/../lib/gcc/riscv-none-embed/8.2.0/../../../../riscv-none-embed/lib/rv32imafc/ilp32f\libc_nano.a(lib_a-memset.o)
                              ./rt-thread/components/finsh/msh.o (memset)
d:/rt-threadstudio/repo/extract/toolchain_support_packages/wch/risc-v-gcc-wch/8.2.0/bin/../lib/gcc/riscv-none-embed/8.2.0/../../../../riscv-none-embed/lib/rv32imafc/ilp32f\libc_nano.a(lib_a-printf.o)
                              ./libraries/hal_libraries/ch32v307_hal/source/ch32v30x_eth.o (printf)
d:/rt-threadstudio/repo/extract/toolchain_support_packages/wch/risc-v-gcc-wch/8.2.0/bin/../lib/gcc/riscv-none-embed/8.2.0/../../../../riscv-none-embed/lib/rv32imafc/ilp32f\libc_nano.a(lib_a-setvbuf.o)
                              ./rt-thread/components/libc/compilers/newlib/stdio.o (setvbuf)
d:/rt-threadstudio/repo/extract/toolchain_support_packages/wch/risc-v-gcc-wch/8.2.0/bin/../lib/gcc/riscv-none-embed/8.2.0/../../../../riscv-none-embed/lib/rv32imafc/ilp32f\libc_nano.a(lib_a-snprintf.o)
                              ./rt-thread/components/libc/compilers/newlib/stdio.o (snprintf)
d:/rt-threadstudio/repo/extract/toolchain_support_packages/wch/risc-v-gcc-wch/8.2.0/bin/../lib/gcc/riscv-none-embed/8.2.0/../../../../riscv-none-embed/lib/rv32imafc/ilp32f\libc_nano.a(lib_a-stdio.o)
                              d:/rt-threadstudio/repo/extract/toolchain_support_packages/wch/risc-v-gcc-wch/8.2.0/bin/../lib/gcc/riscv-none-embed/8.2.0/../../../../riscv-none-embed/lib/rv32imafc/ilp32f\libc_nano.a(lib_a-findfp.o) (__sread)
d:/rt-threadstudio/repo/extract/toolchain_support_packages/wch/risc-v-gcc-wch/8.2.0/bin/../lib/gcc/riscv-none-embed/8.2.0/../../../../riscv-none-embed/lib/rv32imafc/ilp32f\libc_nano.a(lib_a-strcat.o)
                              ./rt-thread/components/finsh/shell.o (strcat)
d:/rt-threadstudio/repo/extract/toolchain_support_packages/wch/risc-v-gcc-wch/8.2.0/bin/../lib/gcc/riscv-none-embed/8.2.0/../../../../riscv-none-embed/lib/rv32imafc/ilp32f\libc_nano.a(lib_a-strcpy.o)
                              ./rt-thread/components/finsh/shell.o (strcpy)
d:/rt-threadstudio/repo/extract/toolchain_support_packages/wch/risc-v-gcc-wch/8.2.0/bin/../lib/gcc/riscv-none-embed/8.2.0/../../../../riscv-none-embed/lib/rv32imafc/ilp32f\libc_nano.a(lib_a-strlen.o)
                              ./rt-thread/components/finsh/msh.o (strlen)
d:/rt-threadstudio/repo/extract/toolchain_support_packages/wch/risc-v-gcc-wch/8.2.0/bin/../lib/gcc/riscv-none-embed/8.2.0/../../../../riscv-none-embed/lib/rv32imafc/ilp32f\libc_nano.a(lib_a-strncmp.o)
                              ./rt-thread/components/finsh/cmd.o (strncmp)
d:/rt-threadstudio/repo/extract/toolchain_support_packages/wch/risc-v-gcc-wch/8.2.0/bin/../lib/gcc/riscv-none-embed/8.2.0/../../../../riscv-none-embed/lib/rv32imafc/ilp32f\libc_nano.a(lib_a-strncpy.o)
                              ./rt-thread/components/finsh/shell.o (strncpy)
d:/rt-threadstudio/repo/extract/toolchain_support_packages/wch/risc-v-gcc-wch/8.2.0/bin/../lib/gcc/riscv-none-embed/8.2.0/../../../../riscv-none-embed/lib/rv32imafc/ilp32f\libc_nano.a(lib_a-vsnprintf.o)
                              ./applications/HAL/ST7789/lcd_st7789.o (vsnprintf)
d:/rt-threadstudio/repo/extract/toolchain_support_packages/wch/risc-v-gcc-wch/8.2.0/bin/../lib/gcc/riscv-none-embed/8.2.0/../../../../riscv-none-embed/lib/rv32imafc/ilp32f\libc_nano.a(lib_a-flags.o)
                              d:/rt-threadstudio/repo/extract/toolchain_support_packages/wch/risc-v-gcc-wch/8.2.0/bin/../lib/gcc/riscv-none-embed/8.2.0/../../../../riscv-none-embed/lib/rv32imafc/ilp32f\libc_nano.a(lib_a-fopen.o) (__sflags)
d:/rt-threadstudio/repo/extract/toolchain_support_packages/wch/risc-v-gcc-wch/8.2.0/bin/../lib/gcc/riscv-none-embed/8.2.0/../../../../riscv-none-embed/lib/rv32imafc/ilp32f\libc_nano.a(lib_a-malloc.o)
                              d:/rt-threadstudio/repo/extract/toolchain_support_packages/wch/risc-v-gcc-wch/8.2.0/bin/../lib/gcc/riscv-none-embed/8.2.0/../../../../riscv-none-embed/lib/rv32imafc/ilp32f\libc_nano.a(lib_a-setvbuf.o) (malloc)
d:/rt-threadstudio/repo/extract/toolchain_support_packages/wch/risc-v-gcc-wch/8.2.0/bin/../lib/gcc/riscv-none-embed/8.2.0/../../../../riscv-none-embed/lib/rv32imafc/ilp32f\libc_nano.a(lib_a-nano-svfprintf.o)
                              d:/rt-threadstudio/repo/extract/toolchain_support_packages/wch/risc-v-gcc-wch/8.2.0/bin/../lib/gcc/riscv-none-embed/8.2.0/../../../../riscv-none-embed/lib/rv32imafc/ilp32f\libc_nano.a(lib_a-snprintf.o) (_svfprintf_r)
d:/rt-threadstudio/repo/extract/toolchain_support_packages/wch/risc-v-gcc-wch/8.2.0/bin/../lib/gcc/riscv-none-embed/8.2.0/../../../../riscv-none-embed/lib/rv32imafc/ilp32f\libc_nano.a(lib_a-nano-vfprintf.o)
                              d:/rt-threadstudio/repo/extract/toolchain_support_packages/wch/risc-v-gcc-wch/8.2.0/bin/../lib/gcc/riscv-none-embed/8.2.0/../../../../riscv-none-embed/lib/rv32imafc/ilp32f\libc_nano.a(lib_a-printf.o) (_vfprintf_r)
d:/rt-threadstudio/repo/extract/toolchain_support_packages/wch/risc-v-gcc-wch/8.2.0/bin/../lib/gcc/riscv-none-embed/8.2.0/../../../../riscv-none-embed/lib/rv32imafc/ilp32f\libc_nano.a(lib_a-nano-vfprintf_i.o)
                              d:/rt-threadstudio/repo/extract/toolchain_support_packages/wch/risc-v-gcc-wch/8.2.0/bin/../lib/gcc/riscv-none-embed/8.2.0/../../../../riscv-none-embed/lib/rv32imafc/ilp32f\libc_nano.a(lib_a-nano-svfprintf.o) (_printf_i)
d:/rt-threadstudio/repo/extract/toolchain_support_packages/wch/risc-v-gcc-wch/8.2.0/bin/../lib/gcc/riscv-none-embed/8.2.0/../../../../riscv-none-embed/lib/rv32imafc/ilp32f\libc_nano.a(lib_a-wbuf.o)
                              d:/rt-threadstudio/repo/extract/toolchain_support_packages/wch/risc-v-gcc-wch/8.2.0/bin/../lib/gcc/riscv-none-embed/8.2.0/../../../../riscv-none-embed/lib/rv32imafc/ilp32f\libc_nano.a(lib_a-nano-vfprintf.o) (__swbuf_r)
d:/rt-threadstudio/repo/extract/toolchain_support_packages/wch/risc-v-gcc-wch/8.2.0/bin/../lib/gcc/riscv-none-embed/8.2.0/../../../../riscv-none-embed/lib/rv32imafc/ilp32f\libc_nano.a(lib_a-wsetup.o)
                              d:/rt-threadstudio/repo/extract/toolchain_support_packages/wch/risc-v-gcc-wch/8.2.0/bin/../lib/gcc/riscv-none-embed/8.2.0/../../../../riscv-none-embed/lib/rv32imafc/ilp32f\libc_nano.a(lib_a-nano-vfprintf.o) (__swsetup_r)
d:/rt-threadstudio/repo/extract/toolchain_support_packages/wch/risc-v-gcc-wch/8.2.0/bin/../lib/gcc/riscv-none-embed/8.2.0/../../../../riscv-none-embed/lib/rv32imafc/ilp32f\libc_nano.a(lib_a-fvwrite.o)
                              d:/rt-threadstudio/repo/extract/toolchain_support_packages/wch/risc-v-gcc-wch/8.2.0/bin/../lib/gcc/riscv-none-embed/8.2.0/../../../../riscv-none-embed/lib/rv32imafc/ilp32f\libc_nano.a(lib_a-nano-vfprintf.o) (__sfvwrite_r)
d:/rt-threadstudio/repo/extract/toolchain_support_packages/wch/risc-v-gcc-wch/8.2.0/bin/../lib/gcc/riscv-none-embed/8.2.0/../../../../riscv-none-embed/lib/rv32imafc/ilp32f\libc_nano.a(lib_a-memchr.o)
                              d:/rt-threadstudio/repo/extract/toolchain_support_packages/wch/risc-v-gcc-wch/8.2.0/bin/../lib/gcc/riscv-none-embed/8.2.0/../../../../riscv-none-embed/lib/rv32imafc/ilp32f\libc_nano.a(lib_a-nano-svfprintf.o) (memchr)
d:/rt-threadstudio/repo/extract/toolchain_support_packages/wch/risc-v-gcc-wch/8.2.0/bin/../lib/gcc/riscv-none-embed/8.2.0/../../../../riscv-none-embed/lib/rv32imafc/ilp32f\libc_nano.a(lib_a-memmove.o)
                              d:/rt-threadstudio/repo/extract/toolchain_support_packages/wch/risc-v-gcc-wch/8.2.0/bin/../lib/gcc/riscv-none-embed/8.2.0/../../../../riscv-none-embed/lib/rv32imafc/ilp32f\libc_nano.a(lib_a-nano-svfprintf.o) (memmove)
d:/rt-threadstudio/repo/extract/toolchain_support_packages/wch/risc-v-gcc-wch/8.2.0/bin/../lib/gcc/riscv-none-embed/8.2.0/rv32imafc/ilp32f\libgcc.a(_divdi3.o)
                              ./rt-thread/components/libc/compilers/common/time.o (__divdi3)
d:/rt-threadstudio/repo/extract/toolchain_support_packages/wch/risc-v-gcc-wch/8.2.0/bin/../lib/gcc/riscv-none-embed/8.2.0/rv32imafc/ilp32f\libgcc.a(_moddi3.o)
                              ./rt-thread/components/libc/compilers/common/time.o (__moddi3)
d:/rt-threadstudio/repo/extract/toolchain_support_packages/wch/risc-v-gcc-wch/8.2.0/bin/../lib/gcc/riscv-none-embed/8.2.0/rv32imafc/ilp32f\libgcc.a(_udivdi3.o)
                              ./rt-thread/components/libc/compilers/common/time.o (__udivdi3)
d:/rt-threadstudio/repo/extract/toolchain_support_packages/wch/risc-v-gcc-wch/8.2.0/bin/../lib/gcc/riscv-none-embed/8.2.0/rv32imafc/ilp32f\libgcc.a(save-restore.o)
                              ./rt-thread/components/finsh/cmd.o (__riscv_save_12)
d:/rt-threadstudio/repo/extract/toolchain_support_packages/wch/risc-v-gcc-wch/8.2.0/bin/../lib/gcc/riscv-none-embed/8.2.0/rv32imafc/ilp32f\libgcc.a(_clz.o)
                              d:/rt-threadstudio/repo/extract/toolchain_support_packages/wch/risc-v-gcc-wch/8.2.0/bin/../lib/gcc/riscv-none-embed/8.2.0/rv32imafc/ilp32f\libgcc.a(_divdi3.o) (__clz_tab)

Discarded input sections

 .text          0x0000000000000000        0x0 ./rt-thread/src/clock.o
 .data          0x0000000000000000        0x0 ./rt-thread/src/clock.o
 .bss           0x0000000000000000        0x0 ./rt-thread/src/clock.o
 .text.rt_tick_set
                0x0000000000000000       0x2a ./rt-thread/src/clock.o
 .text.rt_tick_get_millisecond
                0x0000000000000000        0xa ./rt-thread/src/clock.o
 .text          0x0000000000000000        0x0 ./rt-thread/src/components.o
 .data          0x0000000000000000        0x0 ./rt-thread/src/components.o
 .bss           0x0000000000000000        0x0 ./rt-thread/src/components.o
 .text          0x0000000000000000        0x0 ./rt-thread/src/device.o
 .data          0x0000000000000000        0x0 ./rt-thread/src/device.o
 .bss           0x0000000000000000        0x0 ./rt-thread/src/device.o
 .text.rt_device_unregister
                0x0000000000000000       0x1a ./rt-thread/src/device.o
 .text.rt_device_create
                0x0000000000000000       0x3a ./rt-thread/src/device.o
 .text.rt_device_destroy
Memory Configuration

Name             Origin             Length             Attributes
FLASH            0x0000000000000000 0x0000000000038000 xr
RAM              0x0000000020000000 0x0000000000018000 xrw
*default*        0x0000000000000000 0xffffffffffffffff

Linker script and memory map

LOAD ./rt-thread/src/clock.o
LOAD ./rt-thread/src/components.o
LOAD ./rt-thread/src/device.o
LOAD ./rt-thread/src/idle.o
LOAD ./rt-thread/src/ipc.o
LOAD ./rt-thread/src/irq.o
LOAD ./rt-thread/src/kservice.o
LOAD ./rt-thread/src/mem.o
LOAD ./rt-thread/src/object.o
LOAD ./rt-thread/src/scheduler.o
LOAD ./rt-thread/src/thread.o
LOAD ./rt-thread/src/timer.o
LOAD ./rt-thread/components/libc/compilers/newlib/libc.o
LOAD ./rt-thread/components/libc/compilers/newlib/stdio.o
LOAD ./rt-thread/components/libc/compilers/newlib/syscalls.o
LOAD ./rt-thread/components/libc/compilers/common/stdlib.o
LOAD ./rt-thread/components/libc/compilers/common/time.o
LOAD ./rt-thread/components/finsh/cmd.o
LOAD ./rt-thread/components/finsh/msh.o
LOAD ./rt-thread/components/finsh/shell.o
LOAD ./rt-thread/components/drivers/src/completion.o
LOAD ./rt-thread/components/drivers/src/dataqueue.o
LOAD ./rt-thread/components/drivers/src/pipe.o
LOAD ./rt-thread/components/drivers/src/ringblk_buf.o
LOAD ./rt-thread/components/drivers/src/ringbuffer.o
LOAD ./rt-thread/components/drivers/src/waitqueue.o
LOAD ./rt-thread/components/drivers/src/workqueue.o
LOAD ./rt-thread/components/drivers/serial/serial.o
LOAD ./rt-thread/components/drivers/misc/pin.o
LOAD ./libraries/hal_libraries/ch32v307_hal/source/ch32v30x_adc.o
LOAD ./libraries/hal_libraries/ch32v307_hal/source/ch32v30x_bkp.o
LOAD ./libraries/hal_libraries/ch32v307_hal/source/ch32v30x_can.o
LOAD ./libraries/hal_libraries/ch32v307_hal/source/ch32v30x_crc.o
LOAD ./libraries/hal_libraries/ch32v307_hal/source/ch32v30x_dac.o
LOAD ./libraries/hal_libraries/ch32v307_hal/source/ch32v30x_dbgmcu.o
LOAD ./libraries/hal_libraries/ch32v307_hal/source/ch32v30x_dma.o
LOAD ./libraries/hal_libraries/ch32v307_hal/source/ch32v30x_dvp.o
LOAD ./libraries/hal_libraries/ch32v307_hal/source/ch32v30x_eth.o
LOAD ./libraries/hal_libraries/ch32v307_hal/source/ch32v30x_exti.o
LOAD ./libraries/hal_libraries/ch32v307_hal/source/ch32v30x_flash.o
LOAD ./libraries/hal_libraries/ch32v307_hal/source/ch32v30x_fsmc.o
LOAD ./libraries/hal_libraries/ch32v307_hal/source/ch32v30x_gpio.o
LOAD ./libraries/hal_libraries/ch32v307_hal/source/ch32v30x_i2c.o
LOAD ./libraries/hal_libraries/ch32v307_hal/source/ch32v30x_iwdg.o
LOAD ./libraries/hal_libraries/ch32v307_hal/source/ch32v30x_misc.o
LOAD ./libraries/hal_libraries/ch32v307_hal/source/ch32v30x_opa.o
LOAD ./libraries/hal_libraries/ch32v307_hal/source/ch32v30x_pwr.o
LOAD ./libraries/hal_libraries/ch32v307_hal/source/ch32v30x_rcc.o
LOAD ./libraries/hal_libraries/ch32v307_hal/source/ch32v30x_rng.o
LOAD ./libraries/hal_libraries/ch32v307_hal/source/ch32v30x_rtc.o
LOAD ./libraries/hal_libraries/ch32v307_hal/source/ch32v30x_sdio.o
LOAD ./libraries/hal_libraries/ch32v307_hal/source/ch32v30x_spi.o
LOAD ./libraries/hal_libraries/ch32v307_hal/source/ch32v30x_tim.o
LOAD ./libraries/hal_libraries/ch32v307_hal/source/ch32v30x_usart.o
LOAD ./libraries/hal_libraries/ch32v307_hal/source/ch32v30x_wwdg.o
LOAD ./libraries/hal_libraries/bmsis/source/ch32v30x_it.o
LOAD ./libraries/hal_libraries/bmsis/source/core_riscv.o
LOAD ./libraries/hal_libraries/bmsis/source/debug.o
LOAD ./libraries/hal_libraries/bmsis/source/startup_ch32v30x.o
LOAD ./libraries/hal_libraries/bmsis/source/system_ch32v30x.o
LOAD ./libraries/hal_drivers/drv_gpio.o
LOAD ./libraries/hal_drivers/drv_usart.o
LOAD ./libcpu/cpu/context_gcc.o
LOAD ./libcpu/cpu/cpuport.o
LOAD ./libcpu/cpu/interrupt_gcc.o
LOAD ./board/board.o
LOAD ./applications/HAL/ov2640/HAL_OV2640.o
LOAD ./applications/HAL/ov2640/ov.o
LOAD ./applications/HAL/ST7789/HAL_ST7789.o
LOAD ./applications/HAL/ST7789/lcd_st7789.o
LOAD ./applications/main.o
LOAD d:/rt-threadstudio/repo/extract/toolchain_support_packages/wch/risc-v-gcc-wch/8.2.0/bin/../lib/gcc/riscv-none-embed/8.2.0/../../../../riscv-none-embed/lib/rv32imafc/ilp32f\libc_nano.a
LOAD d:/rt-threadstudio/repo/extract/toolchain_support_packages/wch/risc-v-gcc-wch/8.2.0/bin/../lib/gcc/riscv-none-embed/8.2.0/../../../../riscv-none-embed/lib/rv32imafc/ilp32f\libm.a
LOAD d:/rt-threadstudio/repo/extract/toolchain_support_packages/wch/risc-v-gcc-wch/8.2.0/bin/../lib/gcc/riscv-none-embed/8.2.0/rv32imafc/ilp32f\libgcc.a
LOAD d:/rt-threadstudio/repo/extract/toolchain_support_packages/wch/risc-v-gcc-wch/8.2.0/bin/../lib/gcc/riscv-none-embed/8.2.0/../../../../riscv-none-embed/lib/rv32imafc/ilp32f\libg_nano.a
LOAD d:/rt-threadstudio/repo/extract/toolchain_support_packages/wch/risc-v-gcc-wch/8.2.0/bin/../lib/gcc/riscv-none-embed/8.2.0/../../../../riscv-none-embed/lib/rv32imafc/ilp32f\libc_nano.a
LOAD d:/rt-threadstudio/repo/extract/toolchain_support_packages/wch/risc-v-gcc-wch/8.2.0/bin/../lib/gcc/riscv-none-embed/8.2.0/rv32imafc/ilp32f\libgcc.a
START GROUP
LOAD d:/rt-threadstudio/repo/extract/toolchain_support_packages/wch/risc-v-gcc-wch/8.2.0/bin/../lib/gcc/riscv-none-embed/8.2.0/rv32imafc/ilp32f\libgcc.a
LOAD d:/rt-threadstudio/repo/extract/toolchain_support_packages/wch/risc-v-gcc-wch/8.2.0/bin/../lib/gcc/riscv-none-embed/8.2.0/../../../../riscv-none-embed/lib/rv32imafc/ilp32f\libc_nano.a
LOAD d:/rt-threadstudio/repo/extract/toolchain_support_packages/wch/risc-v-gcc-wch/8.2.0/bin/../lib/gcc/riscv-none-embed/8.2.0/../../../../riscv-none-embed/lib/rv32imafc/ilp32f\libnosys.a
END GROUP
START GROUP
LOAD d:/rt-threadstudio/repo/extract/toolchain_support_packages/wch/risc-v-gcc-wch/8.2.0/bin/../lib/gcc/riscv-none-embed/8.2.0/rv32imafc/ilp32f\libgcc.a
LOAD d:/rt-threadstudio/repo/extract/toolchain_support_packages/wch/risc-v-gcc-wch/8.2.0/bin/../lib/gcc/riscv-none-embed/8.2.0/../../../../riscv-none-embed/lib/rv32imafc/ilp32f\libc_nano.a
LOAD d:/rt-threadstudio/repo/extract/toolchain_support_packages/wch/risc-v-gcc-wch/8.2.0/bin/../lib/gcc/riscv-none-embed/8.2.0/../../../../riscv-none-embed/lib/rv32imafc/ilp32f\libnosys.a
END GROUP
                0x0000000000000800                __stack_size = 0x800
                [!provide]                        PROVIDE (_stack_size = __stack_size)

.init           0x0000000000000000       0x38
                0x0000000000000000                _sinit = .
                0x0000000000000000                . = ALIGN (0x4)
 *(SORT_NONE(.init))
 .init          0x0000000000000000       0x38 ./libraries/hal_libraries/bmsis/source/startup_ch32v30x.o
                0x0000000000000000                _start
                0x0000000000000038                . = ALIGN (0x4)
                0x0000000000000038                _einit = .

.vector         0x0000000000000038      0x1c8
 *(.vector)
 .vector        0x0000000000000038      0x1a0 ./libraries/hal_libraries/bmsis/source/startup_ch32v30x.o
                0x0000000000000200                . = ALIGN (0x40)
 *fill*         0x00000000000001d8       0x28 

.text           0x0000000000000200     0xbf1c
                0x0000000000000200                . = ALIGN (0x4)
 *(.text)
 .text          0x0000000000000200       0xce ./libcpu/cpu/context_gcc.o
                0x0000000000000200                rt_hw_context_switch_to
                0x000000000000021c                rt_hw_context_switch
                0x0000000000000276                rt_hw_context_switch_exit
 *fill*         0x00000000000002ce        0x2 
 .text          0x00000000000002d0       0xe2 ./libcpu/cpu/interrupt_gcc.o
                0x00000000000002d0                SW_handler
 .text          0x00000000000003b2       0xa8 d:/rt-threadstudio/repo/extract/toolchain_support_packages/wch/risc-v-gcc-wch/8.2.0/bin/../lib/gcc/riscv-none-embed/8.2.0/../../../../riscv-none-embed/lib/rv32imafc/ilp32f\libc_nano.a(lib_a-memset.o)
                0x00000000000003b2                memset
 .text          0x000000000000045a       0x60 d:/rt-threadstudio/repo/extract/toolchain_support_packages/wch/risc-v-gcc-wch/8.2.0/bin/../lib/gcc/riscv-none-embed/8.2.0/rv32imafc/ilp32f\libgcc.a(save-restore.o)
                0x000000000000045a                __riscv_save_12
                0x0000000000000462                __riscv_save_9
                0x0000000000000462                __riscv_save_11
                0x0000000000000462                __riscv_save_10
                0x0000000000000462                __riscv_save_8
                0x0000000000000470                __riscv_save_4
                0x0000000000000470                __riscv_save_6
                0x0000000000000470                __riscv_save_5
                0x0000000000000470                __riscv_save_7
                0x000000000000048a                __riscv_save_3
                0x000000000000048a                __riscv_save_2
                0x000000000000048a                __riscv_save_1
                0x000000000000048a                __riscv_save_0
                0x0000000000000496                __riscv_restore_12
                0x000000000000049a                __riscv_restore_11
                0x000000000000049a                __riscv_restore_9
                0x000000000000049a                __riscv_restore_10
                0x000000000000049a                __riscv_restore_8
                0x00000000000004a4                __riscv_restore_5
                0x00000000000004a4                __riscv_restore_7
                0x00000000000004a4                __riscv_restore_6
                0x00000000000004a4                __riscv_restore_4
                0x00000000000004ae                __riscv_restore_3
                0x00000000000004ae                __riscv_restore_0
                0x00000000000004ae                __riscv_restore_2
                0x00000000000004ae                __riscv_restore_1
 *(.text.*)
 .text.rt_tick_get
                0x00000000000004ba        0x6 ./rt-thread/src/clock.o
                0x00000000000004ba                rt_tick_get
 .text.rt_tick_increase
                0x00000000000004c0       0x48 ./rt-thread/src/clock.o
                0x00000000000004c0                rt_tick_increase
 .text.rt_tick_from_millisecond
                0x0000000000000508       0x28 ./rt-thread/src/clock.o
                0x0000000000000508                rt_tick_from_millisecond
 .text.rti_start
                0x0000000000000530        0x4 ./rt-thread/src/components.o
 .text.rti_end  0x0000000000000534        0x4 ./rt-thread/src/components.o
 .text.rti_board_start
                0x0000000000000538        0x4 ./rt-thread/src/components.o
 .text.rti_board_end
                0x000000000000053c        0x4 ./rt-thread/src/components.o
 .text.rt_components_board_init
                0x0000000000000540       0x1e ./rt-thread/src/components.o
                0x0000000000000540                rt_components_board_init
 .text.rt_components_init
                0x000000000000055e       0x1e ./rt-thread/src/components.o
                0x000000000000055e                rt_components_init
 .text.main_thread_entry
                0x000000000000057c        0xc ./rt-thread/src/components.o
                0x000000000000057c                main_thread_entry
 .text.rt_application_init
                0x0000000000000588       0x2a ./rt-thread/src/components.o
                0x0000000000000588                rt_application_init
 .text.rtthread_startup
                0x00000000000005b2       0x28 ./rt-thread/src/components.o
                0x00000000000005b2                rtthread_startup
 .text.entry    0x00000000000005da        0xa ./rt-thread/src/components.o
                0x00000000000005da                entry
 .text.rt_device_find
                0x00000000000005e4        0xc ./rt-thread/src/device.o
                0x00000000000005e4                rt_device_find
 .text.rt_device_register
                0x00000000000005f0       0x34 ./rt-thread/src/device.o
                0x00000000000005f0                rt_device_register
 .text.rt_device_open
                0x0000000000000624       0x8e ./rt-thread/src/device.o
                0x0000000000000624                rt_device_open
 .text.rt_device_close
                0x00000000000006b2       0x3c ./rt-thread/src/device.o
                0x00000000000006b2                rt_device_close
 .text.rt_device_read
                0x00000000000006ee       0x1e ./rt-thread/src/device.o
                0x00000000000006ee                rt_device_read
 .text.rt_device_write
                0x000000000000070c       0x1e ./rt-thread/src/device.o
                0x000000000000070c                rt_device_write
 .text.rt_device_set_rx_indicate
                0x000000000000072a        0x6 ./rt-thread/src/device.o
                0x000000000000072a                rt_device_set_rx_indicate
 .text.rt_thread_defunct_enqueue
                0x0000000000000730       0x18 ./rt-thread/src/idle.o
                0x0000000000000730                rt_thread_defunct_enqueue
 .text.rt_thread_defunct_dequeue
                0x0000000000000748       0x22 ./rt-thread/src/idle.o
                0x0000000000000748                rt_thread_defunct_dequeue
 .text.rt_thread_idle_entry
                0x000000000000076a       0x72 ./rt-thread/src/idle.o
 .text.rt_thread_idle_init
                0x00000000000007dc       0x44 ./rt-thread/src/idle.o
                0x00000000000007dc                rt_thread_idle_init
 .text.rt_ipc_list_resume.isra.0
                0x0000000000000820        0xe ./rt-thread/src/ipc.o
 .text.rt_ipc_list_suspend
                0x000000000000082e       0x5a ./rt-thread/src/ipc.o
 .text.rt_sem_init
                0x0000000000000888       0x2c ./rt-thread/src/ipc.o
                0x0000000000000888                rt_sem_init
 .text.rt_sem_take
                0x00000000000008b4       0x86 ./rt-thread/src/ipc.o
                0x00000000000008b4                rt_sem_take
 .text.rt_sem_release
                0x000000000000093a       0x5a ./rt-thread/src/ipc.o
                0x000000000000093a                rt_sem_release
 .text.rt_interrupt_enter
                0x0000000000000994       0x30 ./rt-thread/src/irq.o
                0x0000000000000994                rt_interrupt_enter
 .text.rt_interrupt_leave
                0x00000000000009c4       0x30 ./rt-thread/src/irq.o
                0x00000000000009c4                rt_interrupt_leave
 .text.rt_interrupt_get_nest
                0x00000000000009f4       0x18 ./rt-thread/src/irq.o
                0x00000000000009f4                rt_interrupt_get_nest
 .text.print_number
                0x0000000000000a0c      0x184 ./rt-thread/src/kservice.o
 .text.rt_set_errno
                0x0000000000000b90       0x1c ./rt-thread/src/kservice.o
                0x0000000000000b90                rt_set_errno
 .text.rt_memset
                0x0000000000000bac       0x88 ./rt-thread/src/kservice.o
                0x0000000000000bac                rt_memset
 .text.rt_memcpy
                0x0000000000000c34       0xb2 ./rt-thread/src/kservice.o
                0x0000000000000c34                rt_memcpy
 .text.rt_memmove
                0x0000000000000ce6       0x4a ./rt-thread/src/kservice.o
                0x0000000000000ce6                rt_memmove
 .text.rt_strncpy
                0x0000000000000d30       0x2c ./rt-thread/src/kservice.o
                0x0000000000000d30                rt_strncpy
 .text.rt_strncmp
                0x0000000000000d5c       0x2c ./rt-thread/src/kservice.o
                0x0000000000000d5c                rt_strncmp
 .text.rt_vsnprintf
                0x0000000000000d88      0x358 ./rt-thread/src/kservice.o
                0x0000000000000d88                rt_vsnprintf
 .text.rt_vsprintf
                0x00000000000010e0       0x10 ./rt-thread/src/kservice.o
                0x00000000000010e0                rt_vsprintf
 .text.rt_sprintf
                0x00000000000010f0       0x1c ./rt-thread/src/kservice.o
                0x00000000000010f0                rt_sprintf
 .text.rt_console_get_device
                0x000000000000110c        0x6 ./rt-thread/src/kservice.o
                0x000000000000110c                rt_console_get_device
 .text.rt_console_set_device
                0x0000000000001112       0x36 ./rt-thread/src/kservice.o
                0x0000000000001112                rt_console_set_device
 .text.rt_hw_console_output
                0x0000000000001148        0x2 ./rt-thread/src/kservice.o
                0x0000000000001148                rt_hw_console_output
 .text.rt_kprintf
                0x000000000000114a       0x54 ./rt-thread/src/kservice.o
                0x000000000000114a                rt_kprintf
 .text.rt_show_version
                0x000000000000119e       0x3e ./rt-thread/src/kservice.o
                0x000000000000119e                rt_show_version
 .text.__rt_ffs
                0x00000000000011dc       0x56 ./rt-thread/src/kservice.o
                0x00000000000011dc                __rt_ffs
 .text.plug_holes
                0x0000000000001232       0x5c ./rt-thread/src/mem.o
 .text.list_mem
                0x000000000000128e       0x32 ./rt-thread/src/mem.o
                0x000000000000128e                list_mem
 .text.rt_system_heap_init
                0x00000000000012c0       0x7c ./rt-thread/src/mem.o
                0x00000000000012c0                rt_system_heap_init
 .text.rt_malloc
                0x000000000000133c      0x136 ./rt-thread/src/mem.o
                0x000000000000133c                rt_malloc
 .text.rt_calloc
                0x0000000000001472       0x24 ./rt-thread/src/mem.o
                0x0000000000001472                rt_calloc
 .text.rt_free  0x0000000000001496       0xaa ./rt-thread/src/mem.o
                0x0000000000001496                rt_free
 .text.rt_realloc
                0x0000000000001540       0xe6 ./rt-thread/src/mem.o
                0x0000000000001540                rt_realloc
 .text.rt_object_get_information
                0x0000000000001626       0x2a ./rt-thread/src/object.o
                0x0000000000001626                rt_object_get_information
 .text.rt_object_init
                0x0000000000001650       0x5e ./rt-thread/src/object.o
                0x0000000000001650                rt_object_init
 .text.rt_object_detach
                0x00000000000016ae       0x2e ./rt-thread/src/object.o
                0x00000000000016ae                rt_object_detach
 .text.rt_object_allocate
                0x00000000000016dc       0x56 ./rt-thread/src/object.o
                0x00000000000016dc                rt_object_allocate
 .text.rt_object_delete
                0x0000000000001732       0x32 ./rt-thread/src/object.o
                0x0000000000001732                rt_object_delete
 .text.rt_object_is_systemobject
                0x0000000000001764        0x8 ./rt-thread/src/object.o
                0x0000000000001764                rt_object_is_systemobject
 .text.rt_object_find
                0x000000000000176c       0x44 ./rt-thread/src/object.o
                0x000000000000176c                rt_object_find
 .text.rt_system_scheduler_init
                0x00000000000017b0       0x1c ./rt-thread/src/scheduler.o
                0x00000000000017b0                rt_system_scheduler_init
 .text.rt_schedule_insert_thread
                0x00000000000017cc       0x60 ./rt-thread/src/scheduler.o
                0x00000000000017cc                rt_schedule_insert_thread
 .text.rt_schedule_remove_thread
                0x000000000000182c       0x46 ./rt-thread/src/scheduler.o
                0x000000000000182c                rt_schedule_remove_thread
 .text.rt_system_scheduler_start
                0x0000000000001872       0x36 ./rt-thread/src/scheduler.o
                0x0000000000001872                rt_system_scheduler_start
 .text.rt_schedule
                0x00000000000018a8       0xea ./rt-thread/src/scheduler.o
                0x00000000000018a8                rt_schedule
 .text.rt_enter_critical
                0x0000000000001992       0x1e ./rt-thread/src/scheduler.o
                0x0000000000001992                rt_enter_critical
 .text.rt_exit_critical
                0x00000000000019b0       0x38 ./rt-thread/src/scheduler.o
                0x00000000000019b0                rt_exit_critical
 .text._rt_thread_cleanup_execute
                0x00000000000019e8       0x1e ./rt-thread/src/thread.o
 .text._rt_thread_exit
                0x0000000000001a06       0x48 ./rt-thread/src/thread.o
 .text._rt_thread_init.isra.0
                0x0000000000001a4e       0x90 ./rt-thread/src/thread.o
 .text.rt_thread_timeout
                0x0000000000001ade       0x34 ./rt-thread/src/thread.o
                0x0000000000001ade                rt_thread_timeout
 .text.rt_thread_init
                0x0000000000001b12       0x32 ./rt-thread/src/thread.o
                0x0000000000001b12                rt_thread_init
 .text.rt_thread_self
                0x0000000000001b44        0x6 ./rt-thread/src/thread.o
                0x0000000000001b44                rt_thread_self
 .text.rt_thread_create
                0x0000000000001b4a       0x46 ./rt-thread/src/thread.o
                0x0000000000001b4a                rt_thread_create
 .text.rt_thread_suspend
                0x0000000000001b90       0x4e ./rt-thread/src/thread.o
                0x0000000000001b90                rt_thread_suspend
 .text.rt_thread_sleep
                0x0000000000001bde       0x44 ./rt-thread/src/thread.o
                0x0000000000001bde                rt_thread_sleep
 .text.rt_thread_mdelay
                0x0000000000001c22        0xe ./rt-thread/src/thread.o
                0x0000000000001c22                rt_thread_mdelay
 .text.rt_thread_resume
                0x0000000000001c30       0x50 ./rt-thread/src/thread.o
                0x0000000000001c30                rt_thread_resume
 .text.rt_thread_startup
                0x0000000000001c80       0x2c ./rt-thread/src/thread.o
                0x0000000000001c80                rt_thread_startup
 .text._rt_timer_remove.part.1
                0x0000000000001cac       0x12 ./rt-thread/src/timer.o
 .text.rt_timer_init
                0x0000000000001cbe       0x3c ./rt-thread/src/timer.o
                0x0000000000001cbe                rt_timer_init
 .text.rt_timer_detach
                0x0000000000001cfa       0x2c ./rt-thread/src/timer.o
                0x0000000000001cfa                rt_timer_detach
 .text.rt_timer_start
                0x0000000000001d26       0x84 ./rt-thread/src/timer.o
                0x0000000000001d26                rt_timer_start
 .text.rt_timer_stop
                0x0000000000001daa       0x3c ./rt-thread/src/timer.o
                0x0000000000001daa                rt_timer_stop
 .text.rt_timer_control
                0x0000000000001de6       0x66 ./rt-thread/src/timer.o
                0x0000000000001de6                rt_timer_control
 .text.rt_timer_check
                0x0000000000001e4c       0xb6 ./rt-thread/src/timer.o
                0x0000000000001e4c                rt_timer_check
 .text.rt_system_timer_init
                0x0000000000001f02        0xa ./rt-thread/src/timer.o
                0x0000000000001f02                rt_system_timer_init
 .text.rt_system_timer_thread_init
                0x0000000000001f0c        0x2 ./rt-thread/src/timer.o
                0x0000000000001f0c                rt_system_timer_thread_init
 .text.libc_system_init
                0x0000000000001f0e        0x4 ./rt-thread/components/libc/compilers/newlib/libc.o
                0x0000000000001f0e                libc_system_init
 .text._close_r
                0x0000000000001f12        0xa ./rt-thread/components/libc/compilers/newlib/syscalls.o
                0x0000000000001f12                _close_r
 .text._fstat_r
                0x0000000000001f1c        0xa ./rt-thread/components/libc/compilers/newlib/syscalls.o
                0x0000000000001f1c                _fstat_r
 .text._isatty_r
                0x0000000000001f26        0x6 ./rt-thread/components/libc/compilers/newlib/syscalls.o
                0x0000000000001f26                _isatty_r
 .text._lseek_r
                0x0000000000001f2c        0xa ./rt-thread/components/libc/compilers/newlib/syscalls.o
                0x0000000000001f2c                _lseek_r
 .text._read_r  0x0000000000001f36        0xa ./rt-thread/components/libc/compilers/newlib/syscalls.o
                0x0000000000001f36                _read_r
 .text._write_r
                0x0000000000001f40       0x3e ./rt-thread/components/libc/compilers/newlib/syscalls.o
                0x0000000000001f40                _write_r
 .text._malloc_r
                0x0000000000001f7e       0x16 ./rt-thread/components/libc/compilers/newlib/syscalls.o
                0x0000000000001f7e                _malloc_r
 .text._realloc_r
                0x0000000000001f94       0x18 ./rt-thread/components/libc/compilers/newlib/syscalls.o
                0x0000000000001f94                _realloc_r
 .text._free_r  0x0000000000001fac        0xe ./rt-thread/components/libc/compilers/newlib/syscalls.o
                0x0000000000001fac                _free_r
 .text.rt_list_len
                0x0000000000001fba       0x12 ./rt-thread/components/finsh/cmd.o
 .text.hello    0x0000000000001fcc       0x16 ./rt-thread/components/finsh/cmd.o
                0x0000000000001fcc                hello
 .text.clear    0x0000000000001fe2       0x16 ./rt-thread/components/finsh/cmd.o
 .text.show_wait_queue
                0x0000000000001ff8       0x36 ./rt-thread/components/finsh/cmd.o
 .text.version  0x000000000000202e        0xe ./rt-thread/components/finsh/cmd.o
                0x000000000000202e                version
 .text.list     0x000000000000203c       0x4a ./rt-thread/components/finsh/cmd.o
                0x000000000000203c                list
 .text.list_get_next
                0x0000000000002086       0x7c ./rt-thread/components/finsh/cmd.o
 .text.object_split.constprop.2
                0x0000000000002102       0x1c ./rt-thread/components/finsh/cmd.o
 .text.list_mailbox
                0x000000000000211e       0xfc ./rt-thread/components/finsh/cmd.o
                0x000000000000211e                list_mailbox
 .text.list_device
                0x000000000000221a       0xc8 ./rt-thread/components/finsh/cmd.o
                0x000000000000221a                list_device
 .text.list_timer
                0x00000000000022e2       0xd8 ./rt-thread/components/finsh/cmd.o
                0x00000000000022e2                list_timer
 .text.list_thread
                0x00000000000023ba      0x146 ./rt-thread/components/finsh/cmd.o
                0x00000000000023ba                list_thread
 .text.list_mutex
                0x0000000000002500       0xbc ./rt-thread/components/finsh/cmd.o
                0x0000000000002500                list_mutex
 .text.list_event
                0x00000000000025bc       0xe6 ./rt-thread/components/finsh/cmd.o
                0x00000000000025bc                list_event
 .text.list_sem
                0x00000000000026a2       0xf2 ./rt-thread/components/finsh/cmd.o
                0x00000000000026a2                list_sem
 .text.list_msgqueue
                0x0000000000002794       0xf2 ./rt-thread/components/finsh/cmd.o
                0x0000000000002794                list_msgqueue
 .text.msh_help
                0x0000000000002886       0x58 ./rt-thread/components/finsh/msh.o
                0x0000000000002886                msh_help
 .text.cmd_ps   0x00000000000028de        0xe ./rt-thread/components/finsh/msh.o
                0x00000000000028de                cmd_ps
 .text.cmd_free
                0x00000000000028ec        0xe ./rt-thread/components/finsh/msh.o
                0x00000000000028ec                cmd_free
 .text.msh_is_used
                0x00000000000028fa        0x4 ./rt-thread/components/finsh/msh.o
                0x00000000000028fa                msh_is_used
 .text.msh_exec
                0x00000000000028fe      0x1a8 ./rt-thread/components/finsh/msh.o
                0x00000000000028fe                msh_exec
 .text.msh_auto_complete
                0x0000000000002aa6       0xa2 ./rt-thread/components/finsh/msh.o
                0x0000000000002aa6                msh_auto_complete
 .text.finsh_rx_ind
                0x0000000000002b48       0x12 ./rt-thread/components/finsh/shell.o
 .text.finsh_system_init
                0x0000000000002b5a       0xa8 ./rt-thread/components/finsh/shell.o
                0x0000000000002b5a                finsh_system_init
 .text.finsh_get_prompt
                0x0000000000002c02       0x62 ./rt-thread/components/finsh/shell.o
                0x0000000000002c02                finsh_get_prompt
 .text.shell_handle_history
                0x0000000000002c64       0x2e ./rt-thread/components/finsh/shell.o
 .text.finsh_set_device
                0x0000000000002c92       0x7e ./rt-thread/components/finsh/shell.o
                0x0000000000002c92                finsh_set_device
 .text.finsh_thread_entry
                0x0000000000002d10      0x432 ./rt-thread/components/finsh/shell.o
                0x0000000000002d10                finsh_thread_entry
 .text.rt_completion_init
                0x0000000000003142       0x1e ./rt-thread/components/drivers/src/completion.o
                0x0000000000003142                rt_completion_init
 .text.rt_completion_wait
                0x0000000000003160       0x84 ./rt-thread/components/drivers/src/completion.o
                0x0000000000003160                rt_completion_wait
 .text.rt_completion_done
                0x00000000000031e4       0x3a ./rt-thread/components/drivers/src/completion.o
                0x00000000000031e4                rt_completion_done
 .text.rt_serial_init
                0x000000000000321e       0x20 ./rt-thread/components/drivers/serial/serial.o
 .text.rt_serial_open
                0x000000000000323e      0x11e ./rt-thread/components/drivers/serial/serial.o
 .text.rt_serial_control
                0x000000000000335c       0x78 ./rt-thread/components/drivers/serial/serial.o
 .text.rt_serial_write
                0x00000000000033d4       0x9e ./rt-thread/components/drivers/serial/serial.o
 .text.rt_serial_read
                0x0000000000003472       0xb0 ./rt-thread/components/drivers/serial/serial.o
 .text.rt_serial_close
                0x0000000000003522       0x8a ./rt-thread/components/drivers/serial/serial.o
 .text.rt_hw_serial_register
                0x00000000000035ac       0x5a ./rt-thread/components/drivers/serial/serial.o
                0x00000000000035ac                rt_hw_serial_register
 .text.rt_hw_serial_isr
                0x0000000000003606       0xd6 ./rt-thread/components/drivers/serial/serial.o
                0x0000000000003606                rt_hw_serial_isr
 .text._pin_control
                0x00000000000036dc       0x20 ./rt-thread/components/drivers/misc/pin.o
 .text.rt_pin_mode
                0x00000000000036fc       0x1a ./rt-thread/components/drivers/misc/pin.o
                0x00000000000036fc                rt_pin_mode
 .text.rt_pin_write
                0x0000000000003716       0x1a ./rt-thread/components/drivers/misc/pin.o
                0x0000000000003716                rt_pin_write
 .text.rt_pin_read
                0x0000000000003730       0x18 ./rt-thread/components/drivers/misc/pin.o
                0x0000000000003730                rt_pin_read
 .text.rt_pin_get
                0x0000000000003748       0x16 ./rt-thread/components/drivers/misc/pin.o
                0x0000000000003748                rt_pin_get
 .text._pin_read
                0x000000000000375e       0x32 ./rt-thread/components/drivers/misc/pin.o
 .text._pin_write
                0x0000000000003790       0x30 ./rt-thread/components/drivers/misc/pin.o
 .text.rt_device_pin_register
                0x00000000000037c0       0x54 ./rt-thread/components/drivers/misc/pin.o
                0x00000000000037c0                rt_device_pin_register
 .text.DMA_DeInit
                0x0000000000003814      0x16c ./libraries/hal_libraries/ch32v307_hal/source/ch32v30x_dma.o
                0x0000000000003814                DMA_DeInit
 .text.DMA_Init
                0x0000000000003980       0x38 ./libraries/hal_libraries/ch32v307_hal/source/ch32v30x_dma.o
                0x0000000000003980                DMA_Init
 .text.DMA_Cmd  0x00000000000039b8       0x14 ./libraries/hal_libraries/ch32v307_hal/source/ch32v30x_dma.o
                0x00000000000039b8                DMA_Cmd
 .text.DMA_SetCurrDataCounter
                0x00000000000039cc        0x4 ./libraries/hal_libraries/ch32v307_hal/source/ch32v30x_dma.o
                0x00000000000039cc                DMA_SetCurrDataCounter
 .text.EXTI_Init
                0x00000000000039d0       0x6a ./libraries/hal_libraries/ch32v307_hal/source/ch32v30x_exti.o
                0x00000000000039d0                EXTI_Init
 .text.EXTI_GetITStatus
                0x0000000000003a3a       0x1e ./libraries/hal_libraries/ch32v307_hal/source/ch32v30x_exti.o
                0x0000000000003a3a                EXTI_GetITStatus
 .text.EXTI_ClearITPendingBit
                0x0000000000003a58        0xa ./libraries/hal_libraries/ch32v307_hal/source/ch32v30x_exti.o
                0x0000000000003a58                EXTI_ClearITPendingBit
 .text.FSMC_NORSRAMInit
                0x0000000000003a62       0xba ./libraries/hal_libraries/ch32v307_hal/source/ch32v30x_fsmc.o
                0x0000000000003a62                FSMC_NORSRAMInit
 .text.FSMC_NORSRAMCmd
                0x0000000000003b1c       0x1e ./libraries/hal_libraries/ch32v307_hal/source/ch32v30x_fsmc.o
                0x0000000000003b1c                FSMC_NORSRAMCmd
 .text.GPIO_Init
                0x0000000000003b3a       0xc2 ./libraries/hal_libraries/ch32v307_hal/source/ch32v30x_gpio.o
                0x0000000000003b3a                GPIO_Init
 .text.GPIO_ReadInputDataBit
                0x0000000000003bfc        0xa ./libraries/hal_libraries/ch32v307_hal/source/ch32v30x_gpio.o
                0x0000000000003bfc                GPIO_ReadInputDataBit
 .text.GPIO_SetBits
                0x0000000000003c06        0x4 ./libraries/hal_libraries/ch32v307_hal/source/ch32v30x_gpio.o
                0x0000000000003c06                GPIO_SetBits
 .text.GPIO_ResetBits
                0x0000000000003c0a        0x4 ./libraries/hal_libraries/ch32v307_hal/source/ch32v30x_gpio.o
                0x0000000000003c0a                GPIO_ResetBits
 .text.GPIO_WriteBit
                0x0000000000003c0e        0xa ./libraries/hal_libraries/ch32v307_hal/source/ch32v30x_gpio.o
                0x0000000000003c0e                GPIO_WriteBit
 .text.GPIO_EXTILineConfig
                0x0000000000003c18       0x2c ./libraries/hal_libraries/ch32v307_hal/source/ch32v30x_gpio.o
                0x0000000000003c18                GPIO_EXTILineConfig
 .text.NVIC_Init
                0x0000000000003c44       0xb8 ./libraries/hal_libraries/ch32v307_hal/source/ch32v30x_misc.o
                0x0000000000003c44                NVIC_Init
 .text.RCC_GetClocksFreq
                0x0000000000003cfc      0x10e ./libraries/hal_libraries/ch32v307_hal/source/ch32v30x_rcc.o
                0x0000000000003cfc                RCC_GetClocksFreq
 .text.RCC_AHBPeriphClockCmd
                0x0000000000003e0a       0x1e ./libraries/hal_libraries/ch32v307_hal/source/ch32v30x_rcc.o
                0x0000000000003e0a                RCC_AHBPeriphClockCmd
 .text.RCC_APB2PeriphClockCmd
                0x0000000000003e28       0x1e ./libraries/hal_libraries/ch32v307_hal/source/ch32v30x_rcc.o
                0x0000000000003e28                RCC_APB2PeriphClockCmd
 .text.RCC_APB1PeriphClockCmd
                0x0000000000003e46       0x1e ./libraries/hal_libraries/ch32v307_hal/source/ch32v30x_rcc.o
                0x0000000000003e46                RCC_APB1PeriphClockCmd
 .text.TIM_TimeBaseInit
                0x0000000000003e64       0xc0 ./libraries/hal_libraries/ch32v307_hal/source/ch32v30x_tim.o
                0x0000000000003e64                TIM_TimeBaseInit
 .text.TIM_OC2Init
                0x0000000000003f24       0xcc ./libraries/hal_libraries/ch32v307_hal/source/ch32v30x_tim.o
                0x0000000000003f24                TIM_OC2Init
 .text.TIM_Cmd  0x0000000000003ff0       0x1c ./libraries/hal_libraries/ch32v307_hal/source/ch32v30x_tim.o
                0x0000000000003ff0                TIM_Cmd
 .text.TIM_CtrlPWMOutputs
                0x000000000000400c       0x16 ./libraries/hal_libraries/ch32v307_hal/source/ch32v30x_tim.o
                0x000000000000400c                TIM_CtrlPWMOutputs
 .text.TIM_ARRPreloadConfig
                0x0000000000004022       0x1e ./libraries/hal_libraries/ch32v307_hal/source/ch32v30x_tim.o
                0x0000000000004022                TIM_ARRPreloadConfig
 .text.TIM_OC2PreloadConfig
                0x0000000000004040       0x1a ./libraries/hal_libraries/ch32v307_hal/source/ch32v30x_tim.o
                0x0000000000004040                TIM_OC2PreloadConfig
 .text.TIM_SetCompare2
                0x000000000000405a        0x6 ./libraries/hal_libraries/ch32v307_hal/source/ch32v30x_tim.o
                0x000000000000405a                TIM_SetCompare2
 .text.USART_Init
                0x0000000000004060       0xd8 ./libraries/hal_libraries/ch32v307_hal/source/ch32v30x_usart.o
                0x0000000000004060                USART_Init
 .text.USART_Cmd
                0x0000000000004138       0x1c ./libraries/hal_libraries/ch32v307_hal/source/ch32v30x_usart.o
                0x0000000000004138                USART_Cmd
 .text.USART_ITConfig
                0x0000000000004154       0x36 ./libraries/hal_libraries/ch32v307_hal/source/ch32v30x_usart.o
                0x0000000000004154                USART_ITConfig
 .text.USART_GetFlagStatus
                0x000000000000418a        0xc ./libraries/hal_libraries/ch32v307_hal/source/ch32v30x_usart.o
                0x000000000000418a                USART_GetFlagStatus
 .text.USART_GetITStatus
                0x0000000000004196       0x44 ./libraries/hal_libraries/ch32v307_hal/source/ch32v30x_usart.o
                0x0000000000004196                USART_GetITStatus
 .text.USART_ClearITPendingBit
                0x00000000000041da       0x16 ./libraries/hal_libraries/ch32v307_hal/source/ch32v30x_usart.o
                0x00000000000041da                USART_ClearITPendingBit
 .text.NMI_Handler
                0x00000000000041f0       0x74 ./libraries/hal_libraries/bmsis/source/ch32v30x_it.o
                0x00000000000041f0                NMI_Handler
 .text.HardFault_Handler
                0x0000000000004264       0x70 ./libraries/hal_libraries/bmsis/source/ch32v30x_it.o
                0x0000000000004264                HardFault_Handler
 .text.__get_MEPC
                0x00000000000042d4        0x6 ./libraries/hal_libraries/bmsis/source/core_riscv.o
                0x00000000000042d4                __get_MEPC
 .text.__get_MCAUSE
                0x00000000000042da        0x6 ./libraries/hal_libraries/bmsis/source/core_riscv.o
                0x00000000000042da                __get_MCAUSE
 .text.__get_MTVAL
                0x00000000000042e0        0x6 ./libraries/hal_libraries/bmsis/source/core_riscv.o
                0x00000000000042e0                __get_MTVAL
 .text.__get_SP
                0x00000000000042e6        0x4 ./libraries/hal_libraries/bmsis/source/core_riscv.o
                0x00000000000042e6                __get_SP
 .text.vector_handler
                0x00000000000042ea       0xbe ./libraries/hal_libraries/bmsis/source/startup_ch32v30x.o
                0x00000000000042ee                Ecall_M_Mode_Handler
                0x00000000000042f0                Ecall_U_Mode_Handler
                0x00000000000042f2                Break_Point_Handler
                0x00000000000042f8                WWDG_IRQHandler
                0x00000000000042fa                PVD_IRQHandler
                0x00000000000042fc                TAMPER_IRQHandler
                0x00000000000042fe                RTC_IRQHandler
                0x0000000000004300                FLASH_IRQHandler
                0x0000000000004302                RCC_IRQHandler
                0x000000000000430e                DMA1_Channel1_IRQHandler
                0x0000000000004310                DMA1_Channel2_IRQHandler
                0x0000000000004312                DMA1_Channel3_IRQHandler
                0x0000000000004314                DMA1_Channel4_IRQHandler
                0x0000000000004316                DMA1_Channel5_IRQHandler
                0x0000000000004318                DMA1_Channel6_IRQHandler
                0x000000000000431a                DMA1_Channel7_IRQHandler
                0x000000000000431c                ADC1_2_IRQHandler
                0x000000000000431e                USB_HP_CAN1_TX_IRQHandler
                0x0000000000004320                USB_LP_CAN1_RX0_IRQHandler
                0x0000000000004322                CAN1_RX1_IRQHandler
                0x0000000000004324                CAN1_SCE_IRQHandler
                0x0000000000004328                TIM1_BRK_IRQHandler
                0x000000000000432a                TIM1_UP_IRQHandler
                0x000000000000432c                TIM1_TRG_COM_IRQHandler
                0x000000000000432e                TIM1_CC_IRQHandler
                0x0000000000004330                TIM2_IRQHandler
                0x0000000000004332                TIM3_IRQHandler
                0x0000000000004334                TIM4_IRQHandler
                0x0000000000004336                I2C1_EV_IRQHandler
                0x0000000000004338                I2C1_ER_IRQHandler
                0x000000000000433a                I2C2_EV_IRQHandler
                0x000000000000433c                I2C2_ER_IRQHandler
                0x000000000000433e                SPI1_IRQHandler
                0x0000000000004340                SPI2_IRQHandler
                0x0000000000004344                USART2_IRQHandler
                0x0000000000004346                USART3_IRQHandler
                0x0000000000004348                EXTI15_10_IRQHandler
                0x000000000000434a                RTCAlarm_IRQHandler
                0x000000000000434c                USBWakeUp_IRQHandler
                0x000000000000434e                TIM8_BRK_IRQHandler
                0x0000000000004350                TIM8_UP_IRQHandler
                0x0000000000004352                TIM8_TRG_COM_IRQHandler
                0x0000000000004354                TIM8_CC_IRQHandler
                0x0000000000004356                RNG_IRQHandler
                0x0000000000004358                FSMC_IRQHandler
                0x000000000000435a                SDIO_IRQHandler
                0x000000000000435c                TIM5_IRQHandler
                0x000000000000435e                SPI3_IRQHandler
                0x0000000000004360                UART4_IRQHandler
                0x0000000000004362                UART5_IRQHandler
                0x0000000000004364                TIM6_IRQHandler
                0x0000000000004366                TIM7_IRQHandler
                0x0000000000004368                DMA2_Channel1_IRQHandler
                0x000000000000436a                DMA2_Channel2_IRQHandler
                0x000000000000436c                DMA2_Channel3_IRQHandler
                0x000000000000436e                DMA2_Channel4_IRQHandler
                0x0000000000004370                DMA2_Channel5_IRQHandler
                0x0000000000004372                ETH_IRQHandler
                0x0000000000004374                ETH_WKUP_IRQHandler
                0x0000000000004376                CAN2_TX_IRQHandler
                0x0000000000004378                CAN2_RX0_IRQHandler
                0x000000000000437a                CAN2_RX1_IRQHandler
                0x000000000000437c                CAN2_SCE_IRQHandler
                0x000000000000437e                OTG_FS_IRQHandler
                0x0000000000004380                USBHSWakeup_IRQHandler
                0x0000000000004382                USBHS_IRQHandler
                0x0000000000004386                UART6_IRQHandler
                0x0000000000004388                UART7_IRQHandler
                0x000000000000438a                UART8_IRQHandler
                0x000000000000438c                TIM9_BRK_IRQHandler
                0x000000000000438e                TIM9_UP_IRQHandler
                0x0000000000004390                TIM9_TRG_COM_IRQHandler
                0x0000000000004392                TIM9_CC_IRQHandler
                0x0000000000004394                TIM10_BRK_IRQHandler
                0x0000000000004396                TIM10_UP_IRQHandler
                0x0000000000004398                TIM10_TRG_COM_IRQHandler
                0x000000000000439a                TIM10_CC_IRQHandler
                0x000000000000439c                DMA2_Channel6_IRQHandler
                0x000000000000439e                DMA2_Channel7_IRQHandler
                0x00000000000043a0                DMA2_Channel8_IRQHandler
                0x00000000000043a2                DMA2_Channel9_IRQHandler
                0x00000000000043a4                DMA2_Channel10_IRQHandler
                0x00000000000043a6                DMA2_Channel11_IRQHandler
 .text.handle_reset
                0x00000000000043a8       0x92 ./libraries/hal_libraries/bmsis/source/startup_ch32v30x.o
                0x00000000000043a8                handle_reset
 .text.SystemInit
                0x000000000000443a       0xf8 ./libraries/hal_libraries/bmsis/source/system_ch32v30x.o
                0x000000000000443a                SystemInit
 .text.get_pin  0x0000000000004532       0x22 ./libraries/hal_drivers/drv_gpio.o
 .text.bit2bitno
                0x0000000000004554       0x1c ./libraries/hal_drivers/drv_gpio.o
 .text.rt_hw_pin_init
                0x0000000000004570       0x26 ./libraries/hal_drivers/drv_gpio.o
                0x0000000000004570                rt_hw_pin_init
 .text.ch32_pin_dettach_irq
                0x0000000000004596       0x5a ./libraries/hal_drivers/drv_gpio.o
 .text.ch32_pin_attach_irq
                0x00000000000045f0       0x96 ./libraries/hal_drivers/drv_gpio.o
 .text.ch32_pin_mode
                0x0000000000004686       0x62 ./libraries/hal_drivers/drv_gpio.o
 .text.ch32_pin_read
                0x00000000000046e8       0x20 ./libraries/hal_drivers/drv_gpio.o
 .text.ch32_pin_write
                0x0000000000004708       0x24 ./libraries/hal_drivers/drv_gpio.o
 .text.ch32_pin_irq_enable
                0x000000000000472c      0x1b4 ./libraries/hal_drivers/drv_gpio.o
 .text.HAL_GPIO_EXTI_Callback
                0x00000000000048e0       0x24 ./libraries/hal_drivers/drv_gpio.o
                0x00000000000048e0                HAL_GPIO_EXTI_Callback
 .text.EXTI0_IRQHandler
                0x0000000000004904       0x7c ./libraries/hal_drivers/drv_gpio.o
                0x0000000000004904                EXTI0_IRQHandler
 .text.EXTI1_IRQHandler
                0x0000000000004980       0x7c ./libraries/hal_drivers/drv_gpio.o
                0x0000000000004980                EXTI1_IRQHandler
 .text.EXTI2_IRQHandler
                0x00000000000049fc       0x7c ./libraries/hal_drivers/drv_gpio.o
                0x00000000000049fc                EXTI2_IRQHandler
 .text.EXTI3_IRQHandler
                0x0000000000004a78       0x7c ./libraries/hal_drivers/drv_gpio.o
                0x0000000000004a78                EXTI3_IRQHandler
 .text.EXTI4_IRQHandler
                0x0000000000004af4       0x7c ./libraries/hal_drivers/drv_gpio.o
                0x0000000000004af4                EXTI4_IRQHandler
 .text.EXTI9_5_IRQHandler
                0x0000000000004b70       0xcc ./libraries/hal_drivers/drv_gpio.o
                0x0000000000004b70                EXTI9_5_IRQHandler
 .text.ch32dma_transmit
                0x0000000000004c3c        0x4 ./libraries/hal_drivers/drv_usart.o
                0x0000000000004c3c                ch32dma_transmit
 .text.ch32_getc
                0x0000000000004c40       0x28 ./libraries/hal_drivers/drv_usart.o
 .text.ch32_putc
                0x0000000000004c68       0x28 ./libraries/hal_drivers/drv_usart.o
 .text.ch32_control
                0x0000000000004c90       0x60 ./libraries/hal_drivers/drv_usart.o
 .text.ch32_configure
                0x0000000000004cf0      0x154 ./libraries/hal_drivers/drv_usart.o
 .text.USART1_IRQHandler
                0x0000000000004e44       0x9a ./libraries/hal_drivers/drv_usart.o
                0x0000000000004e44                USART1_IRQHandler
 .text.rt_hw_usart_init
                0x0000000000004ede       0x3c ./libraries/hal_drivers/drv_usart.o
                0x0000000000004ede                rt_hw_usart_init
 .text.rt_hw_stack_init
                0x0000000000004f1a       0x36 ./libcpu/cpu/cpuport.o
                0x0000000000004f1a                rt_hw_stack_init
 .text.sw_setpend
                0x0000000000004f50       0x10 ./libcpu/cpu/cpuport.o
                0x0000000000004f50                sw_setpend
 .text.sw_clearpend
                0x0000000000004f60        0xe ./libcpu/cpu/cpuport.o
                0x0000000000004f60                sw_clearpend
 .text.rt_hw_interrupt_disable
                0x0000000000004f6e        0xc ./libcpu/cpu/cpuport.o
                0x0000000000004f6e                rt_hw_interrupt_disable
 .text.rt_hw_interrupt_enable
                0x0000000000004f7a        0x6 ./libcpu/cpu/cpuport.o
                0x0000000000004f7a                rt_hw_interrupt_enable
 .text.rt_hw_context_switch_interrupt
                0x0000000000004f80       0x24 ./libcpu/cpu/cpuport.o
                0x0000000000004f80                rt_hw_context_switch_interrupt
 .text.rt_heap_begin_get
                0x0000000000004fa4        0xa ./board/board.o
                0x0000000000004fa4                rt_heap_begin_get
 .text.rt_heap_end_get
                0x0000000000004fae        0xa ./board/board.o
                0x0000000000004fae                rt_heap_end_get
 .text.rt_hw_board_init
                0x0000000000004fb8       0x76 ./board/board.o
                0x0000000000004fb8                rt_hw_board_init
 .text.LED1_BLINK_INIT
                0x000000000000502e       0x36 ./board/board.o
                0x000000000000502e                LED1_BLINK_INIT
 .text.SysTick_Handler
                0x0000000000005064       0x74 ./board/board.o
                0x0000000000005064                SysTick_Handler
 .text.get_RGB565_DVPDMAaddr0
                0x00000000000050d8        0x6 ./applications/HAL/ov2640/HAL_OV2640.o
                0x00000000000050d8                get_RGB565_DVPDMAaddr0
 .text.DVP_Init
                0x00000000000050de       0xfc ./applications/HAL/ov2640/HAL_OV2640.o
                0x00000000000050de                DVP_Init
 .text.DVP_IRQHandler
                0x00000000000051da      0x18e ./applications/HAL/ov2640/HAL_OV2640.o
                0x00000000000051da                DVP_IRQHandler
 .text.ov2640_init
                0x0000000000005368       0x4e ./applications/HAL/ov2640/HAL_OV2640.o
                0x0000000000005368                ov2640_init
 .text.SCCB_GPIO_Init
                0x00000000000053b6       0x4e ./applications/HAL/ov2640/ov.o
                0x00000000000053b6                SCCB_GPIO_Init
 .text.SCCB_Start
                0x0000000000005404       0x36 ./applications/HAL/ov2640/ov.o
                0x0000000000005404                SCCB_Start
 .text.SCCB_Stop
                0x000000000000543a       0x38 ./applications/HAL/ov2640/ov.o
                0x000000000000543a                SCCB_Stop
 .text.SCCB_No_Ack
                0x0000000000005472       0x42 ./applications/HAL/ov2640/ov.o
                0x0000000000005472                SCCB_No_Ack
 .text.SCCB_WR_Byte
                0x00000000000054b4       0xa4 ./applications/HAL/ov2640/ov.o
                0x00000000000054b4                SCCB_WR_Byte
 .text.SCCB_RD_Byte
                0x0000000000005558       0x86 ./applications/HAL/ov2640/ov.o
                0x0000000000005558                SCCB_RD_Byte
 .text.SCCB_WR_Reg
                0x00000000000055de       0x4e ./applications/HAL/ov2640/ov.o
                0x00000000000055de                SCCB_WR_Reg
 .text.SCCB_RD_Reg
                0x000000000000562c       0x58 ./applications/HAL/ov2640/ov.o
                0x000000000000562c                SCCB_RD_Reg
 .text.DVP_GPIO_Init
                0x0000000000005684       0x8a ./applications/HAL/ov2640/ov.o
                0x0000000000005684                DVP_GPIO_Init
 .text.OV2640_Init
                0x000000000000570e       0xd6 ./applications/HAL/ov2640/ov.o
                0x000000000000570e                OV2640_Init
 .text.OV2640_RGB565_Mode
                0x00000000000057e4       0x40 ./applications/HAL/ov2640/ov.o
                0x00000000000057e4                OV2640_RGB565_Mode
 .text.OV2640_OutSize_Set_Custom
                0x0000000000005824       0x42 ./applications/HAL/ov2640/ov.o
                0x0000000000005824                OV2640_OutSize_Set_Custom
 .text.RGB565_Mode_Init
                0x0000000000005866       0x10 ./applications/HAL/ov2640/ov.o
                0x0000000000005866                RGB565_Mode_Init
 .text.LCD_Reset_GPIO_Init
                0x0000000000005876       0x40 ./applications/HAL/ST7789/HAL_ST7789.o
                0x0000000000005876                LCD_Reset_GPIO_Init
 .text.DMA_SRAMLCD_Init
                0x00000000000058b6       0x5c ./applications/HAL/ST7789/HAL_ST7789.o
                0x00000000000058b6                DMA_SRAMLCD_Init
 .text.st7789_init
                0x0000000000005912       0x9a ./applications/HAL/ST7789/HAL_ST7789.o
                0x0000000000005912                st7789_init
 .text.LCD_WriteHalfWord
                0x00000000000059ac       0x16 ./applications/HAL/ST7789/lcd_st7789.o
                0x00000000000059ac                LCD_WriteHalfWord
 .text.LCD_ReadData
                0x00000000000059c2       0x1a ./applications/HAL/ST7789/lcd_st7789.o
                0x00000000000059c2                LCD_ReadData
 .text.LCD_FSMCInit
                0x00000000000059dc      0x110 ./applications/HAL/ST7789/lcd_st7789.o
                0x00000000000059dc                LCD_FSMCInit
 .text.LCD_GPIOInit
                0x0000000000005aec       0x94 ./applications/HAL/ST7789/lcd_st7789.o
                0x0000000000005aec                LCD_GPIOInit
 .text.LCD_SetBrightness
                0x0000000000005b80       0x24 ./applications/HAL/ST7789/lcd_st7789.o
                0x0000000000005b80                LCD_SetBrightness
 .text.LCD_ConvertColor
                0x0000000000005ba4       0x1e ./applications/HAL/ST7789/lcd_st7789.o
                0x0000000000005ba4                LCD_ConvertColor
 .text.LCD_SetColor
                0x0000000000005bc2        0xa ./applications/HAL/ST7789/lcd_st7789.o
                0x0000000000005bc2                LCD_SetColor
 .text.LCD_AddressSetWrite
                0x0000000000005bcc       0x5e ./applications/HAL/ST7789/lcd_st7789.o
                0x0000000000005bcc                LCD_AddressSetWrite
 .text.LCD_AddressSetRead
                0x0000000000005c2a       0x5e ./applications/HAL/ST7789/lcd_st7789.o
                0x0000000000005c2a                LCD_AddressSetRead
 .text.LCD_Clear
                0x0000000000005c88       0x44 ./applications/HAL/ST7789/lcd_st7789.o
                0x0000000000005c88                LCD_Clear
 .text.LCD_Init
                0x0000000000005ccc      0x1f6 ./applications/HAL/ST7789/lcd_st7789.o
                0x0000000000005ccc                LCD_Init
 .text.LCD_DrawPoint
                0x0000000000005ec2       0x18 ./applications/HAL/ST7789/lcd_st7789.o
                0x0000000000005ec2                LCD_DrawPoint
 .text.LCD_Fill
                0x0000000000005eda       0x36 ./applications/HAL/ST7789/lcd_st7789.o
                0x0000000000005eda                LCD_Fill
 .text.LCD_DrawLine
                0x0000000000005f10       0xd8 ./applications/HAL/ST7789/lcd_st7789.o
                0x0000000000005f10                LCD_DrawLine
 .text.LCD_DrawRectangle
                0x0000000000005fe8       0x4a ./applications/HAL/ST7789/lcd_st7789.o
                0x0000000000005fe8                LCD_DrawRectangle
 .text.LCD_ShowChar
                0x0000000000006032      0x2f6 ./applications/HAL/ST7789/lcd_st7789.o
                0x0000000000006032                LCD_ShowChar
 .text.LCD_ShowString
                0x0000000000006328       0xd6 ./applications/HAL/ST7789/lcd_st7789.o
                0x0000000000006328                LCD_ShowString
 .text.led      0x00000000000063fe       0x6e ./applications/main.o
                0x00000000000063fe                led
 .text.startup.main
                0x000000000000646c       0x64 ./applications/main.o
                0x000000000000646c                main
 .text.__sflush_r
                0x00000000000064d0      0x13e d:/rt-threadstudio/repo/extract/toolchain_support_packages/wch/risc-v-gcc-wch/8.2.0/bin/../lib/gcc/riscv-none-embed/8.2.0/../../../../riscv-none-embed/lib/rv32imafc/ilp32f\libc_nano.a(lib_a-fflush.o)
                0x00000000000064d0                __sflush_r
 .text._fflush_r
                0x000000000000660e       0x66 d:/rt-threadstudio/repo/extract/toolchain_support_packages/wch/risc-v-gcc-wch/8.2.0/bin/../lib/gcc/riscv-none-embed/8.2.0/../../../../riscv-none-embed/lib/rv32imafc/ilp32f\libc_nano.a(lib_a-fflush.o)
                0x000000000000660e                _fflush_r
 .text.fileno   0x0000000000006674       0x6e d:/rt-threadstudio/repo/extract/toolchain_support_packages/wch/risc-v-gcc-wch/8.2.0/bin/../lib/gcc/riscv-none-embed/8.2.0/../../../../riscv-none-embed/lib/rv32imafc/ilp32f\libc_nano.a(lib_a-fileno.o)
                0x0000000000006674                fileno
 .text.std      0x00000000000066e2       0x6a d:/rt-threadstudio/repo/extract/toolchain_support_packages/wch/risc-v-gcc-wch/8.2.0/bin/../lib/gcc/riscv-none-embed/8.2.0/../../../../riscv-none-embed/lib/rv32imafc/ilp32f\libc_nano.a(lib_a-findfp.o)
 .text._cleanup_r
                0x000000000000674c        0xa d:/rt-threadstudio/repo/extract/toolchain_support_packages/wch/risc-v-gcc-wch/8.2.0/bin/../lib/gcc/riscv-none-embed/8.2.0/../../../../riscv-none-embed/lib/rv32imafc/ilp32f\libc_nano.a(lib_a-findfp.o)
                0x000000000000674c                _cleanup_r
 .text.__sfmoreglue
                0x0000000000006756       0x48 d:/rt-threadstudio/repo/extract/toolchain_support_packages/wch/risc-v-gcc-wch/8.2.0/bin/../lib/gcc/riscv-none-embed/8.2.0/../../../../riscv-none-embed/lib/rv32imafc/ilp32f\libc_nano.a(lib_a-findfp.o)
                0x0000000000006756                __sfmoreglue
 .text.__sinit  0x000000000000679e       0x6c d:/rt-threadstudio/repo/extract/toolchain_support_packages/wch/risc-v-gcc-wch/8.2.0/bin/../lib/gcc/riscv-none-embed/8.2.0/../../../../riscv-none-embed/lib/rv32imafc/ilp32f\libc_nano.a(lib_a-findfp.o)
                0x000000000000679e                __sinit
 .text.__sfp    0x000000000000680a       0xa0 d:/rt-threadstudio/repo/extract/toolchain_support_packages/wch/risc-v-gcc-wch/8.2.0/bin/../lib/gcc/riscv-none-embed/8.2.0/../../../../riscv-none-embed/lib/rv32imafc/ilp32f\libc_nano.a(lib_a-findfp.o)
                0x000000000000680a                __sfp
 .text._fwalk_reent
                0x00000000000068aa       0x6c d:/rt-threadstudio/repo/extract/toolchain_support_packages/wch/risc-v-gcc-wch/8.2.0/bin/../lib/gcc/riscv-none-embed/8.2.0/../../../../riscv-none-embed/lib/rv32imafc/ilp32f\libc_nano.a(lib_a-fwalk.o)
                0x00000000000068aa                _fwalk_reent
 .text.__swhatbuf_r
                0x0000000000006916       0x5a d:/rt-threadstudio/repo/extract/toolchain_support_packages/wch/risc-v-gcc-wch/8.2.0/bin/../lib/gcc/riscv-none-embed/8.2.0/../../../../riscv-none-embed/lib/rv32imafc/ilp32f\libc_nano.a(lib_a-makebuf.o)
                0x0000000000006916                __swhatbuf_r
 .text.__smakebuf_r
                0x0000000000006970       0xa2 d:/rt-threadstudio/repo/extract/toolchain_support_packages/wch/risc-v-gcc-wch/8.2.0/bin/../lib/gcc/riscv-none-embed/8.2.0/../../../../riscv-none-embed/lib/rv32imafc/ilp32f\libc_nano.a(lib_a-makebuf.o)
                0x0000000000006970                __smakebuf_r
 .text.memcmp   0x0000000000006a12       0x26 d:/rt-threadstudio/repo/extract/toolchain_support_packages/wch/risc-v-gcc-wch/8.2.0/bin/../lib/gcc/riscv-none-embed/8.2.0/../../../../riscv-none-embed/lib/rv32imafc/ilp32f\libc_nano.a(lib_a-memcmp.o)
                0x0000000000006a12                memcmp
 .text.memcpy   0x0000000000006a38       0xb6 d:/rt-threadstudio/repo/extract/toolchain_support_packages/wch/risc-v-gcc-wch/8.2.0/bin/../lib/gcc/riscv-none-embed/8.2.0/../../../../riscv-none-embed/lib/rv32imafc/ilp32f\libc_nano.a(lib_a-memcpy.o)
                0x0000000000006a38                memcpy
 .text.printf   0x0000000000006aee       0x40 d:/rt-threadstudio/repo/extract/toolchain_support_packages/wch/risc-v-gcc-wch/8.2.0/bin/../lib/gcc/riscv-none-embed/8.2.0/../../../../riscv-none-embed/lib/rv32imafc/ilp32f\libc_nano.a(lib_a-printf.o)
                0x0000000000006aee                iprintf
                0x0000000000006aee                printf
 .text.__sread  0x0000000000006b2e       0x32 d:/rt-threadstudio/repo/extract/toolchain_support_packages/wch/risc-v-gcc-wch/8.2.0/bin/../lib/gcc/riscv-none-embed/8.2.0/../../../../riscv-none-embed/lib/rv32imafc/ilp32f\libc_nano.a(lib_a-stdio.o)
                0x0000000000006b2e                __sread
 .text.__swrite
                0x0000000000006b60       0x52 d:/rt-threadstudio/repo/extract/toolchain_support_packages/wch/risc-v-gcc-wch/8.2.0/bin/../lib/gcc/riscv-none-embed/8.2.0/../../../../riscv-none-embed/lib/rv32imafc/ilp32f\libc_nano.a(lib_a-stdio.o)
                0x0000000000006b60                __swrite
 .text.__sseek  0x0000000000006bb2       0x38 d:/rt-threadstudio/repo/extract/toolchain_support_packages/wch/risc-v-gcc-wch/8.2.0/bin/../lib/gcc/riscv-none-embed/8.2.0/../../../../riscv-none-embed/lib/rv32imafc/ilp32f\libc_nano.a(lib_a-stdio.o)
                0x0000000000006bb2                __sseek
 .text.__sclose
                0x0000000000006bea        0x8 d:/rt-threadstudio/repo/extract/toolchain_support_packages/wch/risc-v-gcc-wch/8.2.0/bin/../lib/gcc/riscv-none-embed/8.2.0/../../../../riscv-none-embed/lib/rv32imafc/ilp32f\libc_nano.a(lib_a-stdio.o)
                0x0000000000006bea                __sclose
 .text.strcat   0x0000000000006bf2       0x20 d:/rt-threadstudio/repo/extract/toolchain_support_packages/wch/risc-v-gcc-wch/8.2.0/bin/../lib/gcc/riscv-none-embed/8.2.0/../../../../riscv-none-embed/lib/rv32imafc/ilp32f\libc_nano.a(lib_a-strcat.o)
                0x0000000000006bf2                strcat
 .text.strcpy   0x0000000000006c12       0x12 d:/rt-threadstudio/repo/extract/toolchain_support_packages/wch/risc-v-gcc-wch/8.2.0/bin/../lib/gcc/riscv-none-embed/8.2.0/../../../../riscv-none-embed/lib/rv32imafc/ilp32f\libc_nano.a(lib_a-strcpy.o)
                0x0000000000006c12                strcpy
 .text.strlen   0x0000000000006c24       0x12 d:/rt-threadstudio/repo/extract/toolchain_support_packages/wch/risc-v-gcc-wch/8.2.0/bin/../lib/gcc/riscv-none-embed/8.2.0/../../../../riscv-none-embed/lib/rv32imafc/ilp32f\libc_nano.a(lib_a-strlen.o)
                0x0000000000006c24                strlen
 .text.strncmp  0x0000000000006c36       0x2c d:/rt-threadstudio/repo/extract/toolchain_support_packages/wch/risc-v-gcc-wch/8.2.0/bin/../lib/gcc/riscv-none-embed/8.2.0/../../../../riscv-none-embed/lib/rv32imafc/ilp32f\libc_nano.a(lib_a-strncmp.o)
                0x0000000000006c36                strncmp
 .text.strncpy  0x0000000000006c62       0x24 d:/rt-threadstudio/repo/extract/toolchain_support_packages/wch/risc-v-gcc-wch/8.2.0/bin/../lib/gcc/riscv-none-embed/8.2.0/../../../../riscv-none-embed/lib/rv32imafc/ilp32f\libc_nano.a(lib_a-strncpy.o)
                0x0000000000006c62                strncpy
 .text._vsnprintf_r
                0x0000000000006c86       0x5e d:/rt-threadstudio/repo/extract/toolchain_support_packages/wch/risc-v-gcc-wch/8.2.0/bin/../lib/gcc/riscv-none-embed/8.2.0/../../../../riscv-none-embed/lib/rv32imafc/ilp32f\libc_nano.a(lib_a-vsnprintf.o)
                0x0000000000006c86                _vsniprintf_r
                0x0000000000006c86                _vsnprintf_r
 .text.vsnprintf
                0x0000000000006ce4       0x12 d:/rt-threadstudio/repo/extract/toolchain_support_packages/wch/risc-v-gcc-wch/8.2.0/bin/../lib/gcc/riscv-none-embed/8.2.0/../../../../riscv-none-embed/lib/rv32imafc/ilp32f\libc_nano.a(lib_a-vsnprintf.o)
                0x0000000000006ce4                vsniprintf
                0x0000000000006ce4                vsnprintf
 .text.__ssputs_r
                0x0000000000006cf6       0xee d:/rt-threadstudio/repo/extract/toolchain_support_packages/wch/risc-v-gcc-wch/8.2.0/bin/../lib/gcc/riscv-none-embed/8.2.0/../../../../riscv-none-embed/lib/rv32imafc/ilp32f\libc_nano.a(lib_a-nano-svfprintf.o)
                0x0000000000006cf6                __ssputs_r
 .text._svfprintf_r
                0x0000000000006de4      0x280 d:/rt-threadstudio/repo/extract/toolchain_support_packages/wch/risc-v-gcc-wch/8.2.0/bin/../lib/gcc/riscv-none-embed/8.2.0/../../../../riscv-none-embed/lib/rv32imafc/ilp32f\libc_nano.a(lib_a-nano-svfprintf.o)
                0x0000000000006de4                _svfiprintf_r
                0x0000000000006de4                _svfprintf_r
 .text.__sfputc_r
                0x0000000000007064       0x28 d:/rt-threadstudio/repo/extract/toolchain_support_packages/wch/risc-v-gcc-wch/8.2.0/bin/../lib/gcc/riscv-none-embed/8.2.0/../../../../riscv-none-embed/lib/rv32imafc/ilp32f\libc_nano.a(lib_a-nano-vfprintf.o)
 .text.__sfputs_r
                0x000000000000708c       0x44 d:/rt-threadstudio/repo/extract/toolchain_support_packages/wch/risc-v-gcc-wch/8.2.0/bin/../lib/gcc/riscv-none-embed/8.2.0/../../../../riscv-none-embed/lib/rv32imafc/ilp32f\libc_nano.a(lib_a-nano-vfprintf.o)
                0x000000000000708c                __sfputs_r
 .text._vfprintf_r
                0x00000000000070d0      0x29a d:/rt-threadstudio/repo/extract/toolchain_support_packages/wch/risc-v-gcc-wch/8.2.0/bin/../lib/gcc/riscv-none-embed/8.2.0/../../../../riscv-none-embed/lib/rv32imafc/ilp32f\libc_nano.a(lib_a-nano-vfprintf.o)
                0x00000000000070d0                _vfprintf_r
                0x00000000000070d0                _vfiprintf_r
 .text._printf_common
                0x000000000000736a      0x10c d:/rt-threadstudio/repo/extract/toolchain_support_packages/wch/risc-v-gcc-wch/8.2.0/bin/../lib/gcc/riscv-none-embed/8.2.0/../../../../riscv-none-embed/lib/rv32imafc/ilp32f\libc_nano.a(lib_a-nano-vfprintf_i.o)
                0x000000000000736a                _printf_common
 .text._printf_i
                0x0000000000007476      0x2a4 d:/rt-threadstudio/repo/extract/toolchain_support_packages/wch/risc-v-gcc-wch/8.2.0/bin/../lib/gcc/riscv-none-embed/8.2.0/../../../../riscv-none-embed/lib/rv32imafc/ilp32f\libc_nano.a(lib_a-nano-vfprintf_i.o)
                0x0000000000007476                _printf_i
 .text.__swbuf_r
                0x000000000000771a       0xc6 d:/rt-threadstudio/repo/extract/toolchain_support_packages/wch/risc-v-gcc-wch/8.2.0/bin/../lib/gcc/riscv-none-embed/8.2.0/../../../../riscv-none-embed/lib/rv32imafc/ilp32f\libc_nano.a(lib_a-wbuf.o)
                0x000000000000771a                __swbuf_r
 .text.__swsetup_r
                0x00000000000077e0      0x112 d:/rt-threadstudio/repo/extract/toolchain_support_packages/wch/risc-v-gcc-wch/8.2.0/bin/../lib/gcc/riscv-none-embed/8.2.0/../../../../riscv-none-embed/lib/rv32imafc/ilp32f\libc_nano.a(lib_a-wsetup.o)
                0x00000000000077e0                __swsetup_r
 .text.memchr   0x00000000000078f2       0x1a d:/rt-threadstudio/repo/extract/toolchain_support_packages/wch/risc-v-gcc-wch/8.2.0/bin/../lib/gcc/riscv-none-embed/8.2.0/../../../../riscv-none-embed/lib/rv32imafc/ilp32f\libc_nano.a(lib_a-memchr.o)
                0x00000000000078f2                memchr
 .text.memmove  0x000000000000790c       0x4a d:/rt-threadstudio/repo/extract/toolchain_support_packages/wch/risc-v-gcc-wch/8.2.0/bin/../lib/gcc/riscv-none-embed/8.2.0/../../../../riscv-none-embed/lib/rv32imafc/ilp32f\libc_nano.a(lib_a-memmove.o)
                0x000000000000790c                memmove
 *(.rodata)
 *(.rodata*)
 *fill*         0x0000000000007956        0x2 
 .rodata.rt_application_init.str1.4
                0x0000000000007958        0x5 ./rt-thread/src/components.o
 *fill*         0x000000000000795d        0x3 
 .rodata.rt_device_init.str1.4
                0x0000000000007960       0x36 ./rt-thread/src/device.o
 *fill*         0x0000000000007996        0x2 
 .rodata.rt_thread_idle_init.str1.4
                0x0000000000007998        0x8 ./rt-thread/src/idle.o
 .rodata.__lowest_bit_bitmap
                0x00000000000079a0      0x100 ./rt-thread/src/kservice.o
                0x00000000000079a0                __lowest_bit_bitmap
 .rodata.large_digits.3205
                0x0000000000007aa0       0x11 ./rt-thread/src/kservice.o
 *fill*         0x0000000000007ab1        0x3 
 .rodata.rt_show_version.str1.4
                0x0000000000007ab4       0x86 ./rt-thread/src/kservice.o
 *fill*         0x0000000000007b3a        0x2 
 .rodata.rt_vsnprintf.str1.4
                0x0000000000007b3c        0x7 ./rt-thread/src/kservice.o
 *fill*         0x0000000000007b43        0x1 
 .rodata.small_digits.3204
                0x0000000000007b44       0x11 ./rt-thread/src/kservice.o
 *fill*         0x0000000000007b55        0x3 
 .rodata.list_mem.str1.4
                0x0000000000007b58       0x46 ./rt-thread/src/mem.o
 *fill*         0x0000000000007b9e        0x2 
 .rodata.name   0x0000000000007ba0       0x29 ./rt-thread/src/mem.o
                0x0000000000007ba0                __fsym_list_mem_desc
                0x0000000000007bc0                __fsym_list_mem_name
 *fill*         0x0000000000007bc9        0x3 
 .rodata.rt_free.str1.4
                0x0000000000007bcc       0x4c ./rt-thread/src/mem.o
 .rodata.rt_system_heap_init.str1.4
                0x0000000000007c18       0x42 ./rt-thread/src/mem.o
 *fill*         0x0000000000007c5a        0x2 
 .rodata.rt_timer_control
                0x0000000000007c5c       0x14 ./rt-thread/src/timer.o
 .rodata.clear.str1.4
                0x0000000000007c70        0x8 ./rt-thread/components/finsh/cmd.o
 .rodata.device_type_str
                0x0000000000007c78       0x5c ./rt-thread/components/finsh/cmd.o
 .rodata.hello.str1.4
                0x0000000000007cd4       0x12 ./rt-thread/components/finsh/cmd.o
 *fill*         0x0000000000007ce6        0x2 
 .rodata.list.str1.4
                0x0000000000007ce8       0x25 ./rt-thread/components/finsh/cmd.o
 *fill*         0x0000000000007d0d        0x3 
 .rodata.list_device.str1.4
                0x0000000000007d10       0x6f ./rt-thread/components/finsh/cmd.o
 *fill*         0x0000000000007d7f        0x1 
 .rodata.list_event.str1.4
                0x0000000000007d80       0x76 ./rt-thread/components/finsh/cmd.o
 *fill*         0x0000000000007df6        0x2 
 .rodata.list_mailbox.str1.4
                0x0000000000007df8       0x76 ./rt-thread/components/finsh/cmd.o
                                         0x7a (size before relaxing)
 *fill*         0x0000000000007e6e        0x2 
 .rodata.list_msgqueue.str1.4
                0x0000000000007e70       0x65 ./rt-thread/components/finsh/cmd.o
 *fill*         0x0000000000007ed5        0x3 
 .rodata.list_mutex.str1.4
                0x0000000000007ed8       0x63 ./rt-thread/components/finsh/cmd.o
 *fill*         0x0000000000007f3b        0x1 
 .rodata.list_sem.str1.4
                0x0000000000007f3c       0x60 ./rt-thread/components/finsh/cmd.o
 .rodata.list_thread.str1.4
                0x0000000000007f9c       0xfc ./rt-thread/components/finsh/cmd.o
 .rodata.list_timer.str1.4
                0x0000000000008098       0x9d ./rt-thread/components/finsh/cmd.o
 *fill*         0x0000000000008135        0x3 
 .rodata.name   0x0000000000008138      0x36a ./rt-thread/components/finsh/cmd.o
                0x0000000000008138                __fsym_list_desc
                0x0000000000008154                __fsym_list_name
                0x000000000000815c                __fsym___cmd_list_device_desc
                0x0000000000008174                __fsym___cmd_list_device_name
                0x0000000000008188                __fsym_list_device_desc
                0x00000000000081a0                __fsym_list_device_name
                0x00000000000081ac                __fsym___cmd_list_timer_desc
                0x00000000000081c4                __fsym___cmd_list_timer_name
                0x00000000000081d8                __fsym_list_timer_desc
                0x00000000000081f0                __fsym_list_timer_name
                0x00000000000081fc                __fsym___cmd_list_msgqueue_desc
                0x000000000000821c                __fsym___cmd_list_msgqueue_name
                0x0000000000008230                __fsym_list_msgqueue_desc
                0x0000000000008250                __fsym_list_msgqueue_name
                0x0000000000008260                __fsym___cmd_list_mailbox_desc
                0x0000000000008278                __fsym___cmd_list_mailbox_name
                0x000000000000828c                __fsym_list_mailbox_desc
                0x00000000000082a4                __fsym_list_mailbox_name
                0x00000000000082b4                __fsym___cmd_list_mutex_desc
                0x00000000000082cc                __fsym___cmd_list_mutex_name
                0x00000000000082e0                __fsym_list_mutex_desc
                0x00000000000082f8                __fsym_list_mutex_name
                0x0000000000008304                __fsym___cmd_list_event_desc
                0x000000000000831c                __fsym___cmd_list_event_name
                0x0000000000008330                __fsym_list_event_desc
                0x0000000000008348                __fsym_list_event_name
                0x0000000000008354                __fsym___cmd_list_sem_desc
                0x0000000000008370                __fsym___cmd_list_sem_name
                0x0000000000008380                __fsym_list_sem_desc
                0x000000000000839c                __fsym_list_sem_name
                0x00000000000083a8                __fsym___cmd_list_thread_desc
                0x00000000000083b4                __fsym___cmd_list_thread_name
                0x00000000000083c8                __fsym_list_thread_desc
                0x00000000000083d4                __fsym_list_thread_name
                0x00000000000083e0                __fsym___cmd_version_desc
                0x0000000000008404                __fsym___cmd_version_name
                0x0000000000008414                __fsym_version_desc
                0x0000000000008438                __fsym_version_name
                0x0000000000008440                __fsym___cmd_clear_desc
                0x000000000000845c                __fsym___cmd_clear_name
                0x0000000000008468                __fsym_clear_desc
                0x0000000000008484                __fsym_clear_name
                0x000000000000848c                __fsym_hello_desc
                0x000000000000849c                __fsym_hello_name
 *fill*         0x00000000000084a2        0x2 
 .rodata.object_split.constprop.2.str1.4
                0x00000000000084a4        0x2 ./rt-thread/components/finsh/cmd.o
 *fill*         0x00000000000084a6        0x2 
 .rodata.show_wait_queue.str1.4
                0x00000000000084a8        0x6 ./rt-thread/components/finsh/cmd.o
 *fill*         0x00000000000084ae        0x2 
 .rodata.str1.4
                0x00000000000084b0      0x13f ./rt-thread/components/finsh/cmd.o
 .rodata.msh_auto_complete.str1.4
                0x00000000000085ef      0x13f ./rt-thread/components/finsh/msh.o
                                          0x4 (size before relaxing)
 *fill*         0x00000000000085ef        0x1 
 .rodata.msh_exec.str1.4
                0x00000000000085f0       0x3c ./rt-thread/components/finsh/msh.o
 .rodata.msh_help.str1.4
                0x000000000000862c       0x30 ./rt-thread/components/finsh/msh.o
                                         0x32 (size before relaxing)
 .rodata.name   0x000000000000865c       0x7f ./rt-thread/components/finsh/msh.o
                0x000000000000865c                __fsym___cmd_free_desc
                0x0000000000008684                __fsym___cmd_free_name
                0x0000000000008690                __fsym___cmd_ps_desc
                0x00000000000086ac                __fsym___cmd_ps_name
                0x00000000000086b8                __fsym___cmd_help_desc
                0x00000000000086d0                __fsym___cmd_help_name
 *fill*         0x00000000000086db        0x1 
 .rodata.finsh_get_prompt.str1.4
                0x00000000000086dc       0x12 ./rt-thread/components/finsh/shell.o
 *fill*         0x00000000000086ee        0x2 
 .rodata.finsh_set_device.str1.4
                0x00000000000086f0       0x20 ./rt-thread/components/finsh/shell.o
 .rodata.finsh_system_init.str1.4
                0x0000000000008710       0x25 ./rt-thread/components/finsh/shell.o
 *fill*         0x0000000000008735        0x3 
 .rodata.finsh_thread_entry.str1.4
                0x0000000000008738       0x14 ./rt-thread/components/finsh/shell.o
                                         0x1b (size before relaxing)
 .rodata.shell_handle_history.str1.4
                0x000000000000874c        0xd ./rt-thread/components/finsh/shell.o
 *fill*         0x0000000000008759        0x3 
 .rodata.name   0x000000000000875c       0x9c ./rt-thread/components/drivers/misc/pin.o
                0x000000000000875c                __fsym_pinGet_desc
                0x0000000000008780                __fsym_pinGet_name
                0x0000000000008788                __fsym_pinRead_desc
                0x00000000000087a8                __fsym_pinRead_name
                0x00000000000087b0                __fsym_pinWrite_desc
                0x00000000000087cc                __fsym_pinWrite_name
                0x00000000000087d8                __fsym_pinMode_desc
                0x00000000000087f0                __fsym_pinMode_name
 .rodata.HardFault_Handler.str1.4
                0x00000000000087f8       0x35 ./libraries/hal_libraries/bmsis/source/ch32v30x_it.o
 *fill*         0x000000000000882d        0x3 
 .rodata.NMI_Handler.str1.4
                0x0000000000008830        0xf ./libraries/hal_libraries/bmsis/source/ch32v30x_it.o
 *fill*         0x000000000000883f        0x1 
 .rodata._ch32_pin_ops
                0x0000000000008840       0x1c ./libraries/hal_drivers/drv_gpio.o
 .rodata.pin_irq_map
                0x000000000000885c       0x80 ./libraries/hal_drivers/drv_gpio.o
 .rodata.pins   0x00000000000088dc      0x3c0 ./libraries/hal_drivers/drv_gpio.o
 .rodata.rt_hw_pin_init.str1.4
                0x0000000000008c9c        0x4 ./libraries/hal_drivers/drv_gpio.o
 .rodata.ch32_uart_ops
                0x0000000000008ca0       0x14 ./libraries/hal_drivers/drv_usart.o
 .rodata.str1.4
                0x0000000000008cb4        0x6 ./libraries/hal_drivers/drv_usart.o
 .rodata.rt_hw_board_init.str1.4
                0x0000000000008cba        0x6 ./board/board.o
 *fill*         0x0000000000008cba        0x2 
 .rodata.DVP_IRQHandler.str1.4
                0x0000000000008cbc        0xe ./applications/HAL/ov2640/HAL_OV2640.o
 *fill*         0x0000000000008cca        0x2 
 .rodata.ov2640_init.str1.4
                0x0000000000008ccc       0x32 ./applications/HAL/ov2640/HAL_OV2640.o
 *fill*         0x0000000000008cfe        0x2 
 .rodata.OV2640_Init.str1.4
                0x0000000000008d00       0x17 ./applications/HAL/ov2640/ov.o
 *fill*         0x0000000000008d17        0x1 
 .rodata.ov2640_init_regs
                0x0000000000008d18      0x156 ./applications/HAL/ov2640/ov.o
 *fill*         0x0000000000008e6e        0x2 
 .rodata.ov2640_qvga_regs
                0x0000000000008e70        0xc ./applications/HAL/ov2640/ov.o
 .rodata.ov2640_size_change_preamble_regs
                0x0000000000008e7c       0x18 ./applications/HAL/ov2640/ov.o
 .rodata.st7789_init.str1.4
                0x0000000000008e94       0x15 ./applications/HAL/ST7789/HAL_ST7789.o
 *fill*         0x0000000000008ea9        0x3 
 .rodata.LCD_Init.str1.4
                0x0000000000008eac       0x47 ./applications/HAL/ST7789/lcd_st7789.o
 *fill*         0x0000000000008ef3        0x1 
 .rodata.LCD_ShowChar.str1.4
                0x0000000000008ef4       0x4a ./applications/HAL/ST7789/lcd_st7789.o
 *fill*         0x0000000000008f3e        0x2 
 .rodata.LCD_ShowString.str1.4
                0x0000000000008f40       0x1e ./applications/HAL/ST7789/lcd_st7789.o
 *fill*         0x0000000000008f5e        0x2 
 .rodata.asc2_1608
                0x0000000000008f60      0x5e0 ./applications/HAL/ST7789/lcd_st7789.o
                0x0000000000008f60                asc2_1608
 .rodata.asc2_2412
                0x0000000000009540     0x11a0 ./applications/HAL/ST7789/lcd_st7789.o
                0x0000000000009540                asc2_2412
 .rodata.asc2_3216
                0x000000000000a6e0     0x1780 ./applications/HAL/ST7789/lcd_st7789.o
                0x000000000000a6e0                asc2_3216
 .rodata.led.str1.4
                0x000000000000be60       0x32 ./applications/main.o
 *fill*         0x000000000000be92        0x2 
 .rodata.main.str1.4
                0x000000000000be94       0x2c ./applications/main.o
 .rodata.name   0x000000000000bec0       0x2a ./applications/main.o
                0x000000000000bec0                __fsym___cmd_led_desc
                0x000000000000bee0                __fsym___cmd_led_name
 *fill*         0x000000000000beea        0x2 
 .rodata.__sf_fake_stderr
                0x000000000000beec       0x20 d:/rt-threadstudio/repo/extract/toolchain_support_packages/wch/risc-v-gcc-wch/8.2.0/bin/../lib/gcc/riscv-none-embed/8.2.0/../../../../riscv-none-embed/lib/rv32imafc/ilp32f\libc_nano.a(lib_a-findfp.o)
                0x000000000000beec                __sf_fake_stderr
 .rodata.__sf_fake_stdin
                0x000000000000bf0c       0x20 d:/rt-threadstudio/repo/extract/toolchain_support_packages/wch/risc-v-gcc-wch/8.2.0/bin/../lib/gcc/riscv-none-embed/8.2.0/../../../../riscv-none-embed/lib/rv32imafc/ilp32f\libc_nano.a(lib_a-findfp.o)
                0x000000000000bf0c                __sf_fake_stdin
 .rodata.__sf_fake_stdout
                0x000000000000bf2c       0x20 d:/rt-threadstudio/repo/extract/toolchain_support_packages/wch/risc-v-gcc-wch/8.2.0/bin/../lib/gcc/riscv-none-embed/8.2.0/../../../../riscv-none-embed/lib/rv32imafc/ilp32f\libc_nano.a(lib_a-findfp.o)
                0x000000000000bf2c                __sf_fake_stdout
 .rodata._svfprintf_r.str1.4
                0x000000000000bf4c       0x13 d:/rt-threadstudio/repo/extract/toolchain_support_packages/wch/risc-v-gcc-wch/8.2.0/bin/../lib/gcc/riscv-none-embed/8.2.0/../../../../riscv-none-embed/lib/rv32imafc/ilp32f\libc_nano.a(lib_a-nano-svfprintf.o)
 .rodata._vfprintf_r.str1.4
                0x000000000000bf5f       0x13 d:/rt-threadstudio/repo/extract/toolchain_support_packages/wch/risc-v-gcc-wch/8.2.0/bin/../lib/gcc/riscv-none-embed/8.2.0/../../../../riscv-none-embed/lib/rv32imafc/ilp32f\libc_nano.a(lib_a-nano-vfprintf.o)
 *fill*         0x000000000000bf5f        0x1 
 .rodata._printf_i.str1.4
                0x000000000000bf60       0x28 d:/rt-threadstudio/repo/extract/toolchain_support_packages/wch/risc-v-gcc-wch/8.2.0/bin/../lib/gcc/riscv-none-embed/8.2.0/../../../../riscv-none-embed/lib/rv32imafc/ilp32f\libc_nano.a(lib_a-nano-vfprintf_i.o)
                                         0x25 (size before relaxing)
 *(.glue_7)
 *(.glue_7t)
 *(.gnu.linkonce.t.*)
                0x000000000000bf88                . = ALIGN (0x4)
                0x000000000000bf88                __fsymtab_start = .
 *(FSymTab)
 FSymTab        0x000000000000bf88        0xc ./rt-thread/src/mem.o
                0x000000000000bf88                __fsym_list_mem
 FSymTab        0x000000000000bf94      0x108 ./rt-thread/components/finsh/cmd.o
                0x000000000000bf94                __fsym_list
                0x000000000000bfa0                __fsym___cmd_list_device
                0x000000000000bfac                __fsym_list_device
                0x000000000000bfb8                __fsym___cmd_list_timer
                0x000000000000bfc4                __fsym_list_timer
                0x000000000000bfd0                __fsym___cmd_list_msgqueue
                0x000000000000bfdc                __fsym_list_msgqueue
                0x000000000000bfe8                __fsym___cmd_list_mailbox
                0x000000000000bff4                __fsym_list_mailbox
                0x000000000000c000                __fsym___cmd_list_mutex
                0x000000000000c00c                __fsym_list_mutex
                0x000000000000c018                __fsym___cmd_list_event
                0x000000000000c024                __fsym_list_event
                0x000000000000c030                __fsym___cmd_list_sem
                0x000000000000c03c                __fsym_list_sem
                0x000000000000c048                __fsym___cmd_list_thread
                0x000000000000c054                __fsym_list_thread
                0x000000000000c060                __fsym___cmd_version
                0x000000000000c06c                __fsym_version
                0x000000000000c078                __fsym___cmd_clear
                0x000000000000c084                __fsym_clear
                0x000000000000c090                __fsym_hello
 FSymTab        0x000000000000c09c       0x24 ./rt-thread/components/finsh/msh.o
                0x000000000000c09c                __fsym___cmd_free
                0x000000000000c0a8                __fsym___cmd_ps
                0x000000000000c0b4                __fsym___cmd_help
 FSymTab        0x000000000000c0c0       0x30 ./rt-thread/components/drivers/misc/pin.o
                0x000000000000c0c0                __fsym_pinGet
                0x000000000000c0cc                __fsym_pinRead
                0x000000000000c0d8                __fsym_pinWrite
                0x000000000000c0e4                __fsym_pinMode
 FSymTab        0x000000000000c0f0        0xc ./applications/main.o
                0x000000000000c0f0                __fsym___cmd_led
                0x000000000000c0fc                __fsymtab_end = .
                0x000000000000c0fc                . = ALIGN (0x4)
                0x000000000000c0fc                __vsymtab_start = .
 *(VSymTab)
                0x000000000000c0fc                __vsymtab_end = .
                0x000000000000c0fc                . = ALIGN (0x4)
                0x000000000000c0fc                . = ALIGN (0x4)
                0x000000000000c0fc                __rt_init_start = .
 *(SORT_BY_NAME(.rti_fn*))
 .rti_fn.0      0x000000000000c0fc        0x4 ./rt-thread/src/components.o
                0x000000000000c0fc                __rt_init_rti_start
 .rti_fn.0.end  0x000000000000c100        0x4 ./rt-thread/src/components.o
                0x000000000000c100                __rt_init_rti_board_start
 .rti_fn.1      0x000000000000c104        0x4 ./libraries/hal_drivers/drv_gpio.o
                0x000000000000c104                __rt_init_rt_hw_pin_init
 .rti_fn.1.end  0x000000000000c108        0x4 ./rt-thread/src/components.o
                0x000000000000c108                __rt_init_rti_board_end
 .rti_fn.4      0x000000000000c10c        0x4 ./rt-thread/components/libc/compilers/newlib/libc.o
                0x000000000000c10c                __rt_init_libc_system_init
 .rti_fn.6      0x000000000000c110        0x4 ./rt-thread/components/finsh/shell.o
                0x000000000000c110                __rt_init_finsh_system_init
 .rti_fn.6      0x000000000000c114        0x4 ./applications/HAL/ST7789/HAL_ST7789.o
                0x000000000000c114                __rt_init_st7789_init
 .rti_fn.6.end  0x000000000000c118        0x4 ./rt-thread/src/components.o
                0x000000000000c118                __rt_init_rti_end
                0x000000000000c11c                __rt_init_end = .
                0x000000000000c11c                . = ALIGN (0x4)
                0x000000000000c11c                . = ALIGN (0x4)
                0x000000000000c11c                __rtmsymtab_start = .
 *(RTMSymTab)
                0x000000000000c11c                __rtmsymtab_end = .
                0x000000000000c11c                . = ALIGN (0x4)

.rela.dyn       0x000000000000c11c        0x0
 .rela.text.rt_device_open
                0x000000000000c11c        0x0 ./rt-thread/src/clock.o
 .rela.text.rt_set_errno
                0x000000000000c11c        0x0 ./rt-thread/src/clock.o
 .rela.text.rt_kprintf
                0x000000000000c11c        0x0 ./rt-thread/src/clock.o
 .rela.text.rt_show_version
                0x000000000000c11c        0x0 ./rt-thread/src/clock.o
 .rela.text.list_mem
                0x000000000000c11c        0x0 ./rt-thread/src/clock.o
 .rela.text.rt_system_heap_init
                0x000000000000c11c        0x0 ./rt-thread/src/clock.o
 .rela.text.rt_calloc
                0x000000000000c11c        0x0 ./rt-thread/src/clock.o
 .rela.text.rt_free
                0x000000000000c11c        0x0 ./rt-thread/src/clock.o
 .rela.text.rt_realloc
                0x000000000000c11c        0x0 ./rt-thread/src/clock.o
 .rela.text.rt_object_allocate
                0x000000000000c11c        0x0 ./rt-thread/src/clock.o
 .rela.text._rt_thread_init.isra.0
                0x000000000000c11c        0x0 ./rt-thread/src/clock.o
 .rela.text.hello
                0x000000000000c11c        0x0 ./rt-thread/src/clock.o
 .rela.text.clear
                0x000000000000c11c        0x0 ./rt-thread/src/clock.o
 .rela.text.show_wait_queue
                0x000000000000c11c        0x0 ./rt-thread/src/clock.o
 .rela.text.list
                0x000000000000c11c        0x0 ./rt-thread/src/clock.o
 .rela.text.object_split.constprop.2
                0x000000000000c11c        0x0 ./rt-thread/src/clock.o
 .rela.text.list_mailbox
                0x000000000000c11c        0x0 ./rt-thread/src/clock.o
 .rela.text.list_device
                0x000000000000c11c        0x0 ./rt-thread/src/clock.o
 .rela.text.list_timer
                0x000000000000c11c        0x0 ./rt-thread/src/clock.o
 .rela.text.list_thread
                0x000000000000c11c        0x0 ./rt-thread/src/clock.o
 .rela.text.list_mutex
                0x000000000000c11c        0x0 ./rt-thread/src/clock.o
 .rela.text.list_event
                0x000000000000c11c        0x0 ./rt-thread/src/clock.o
 .rela.text.list_sem
                0x000000000000c11c        0x0 ./rt-thread/src/clock.o
 .rela.text.list_msgqueue
                0x000000000000c11c        0x0 ./rt-thread/src/clock.o
 .rela.text.msh_help
                0x000000000000c11c        0x0 ./rt-thread/src/clock.o
 .rela.text.msh_exec
                0x000000000000c11c        0x0 ./rt-thread/src/clock.o
 .rela.text.msh_auto_complete
                0x000000000000c11c        0x0 ./rt-thread/src/clock.o
 .rela.text.finsh_system_init
                0x000000000000c11c        0x0 ./rt-thread/src/clock.o
 .rela.text.shell_handle_history
                0x000000000000c11c        0x0 ./rt-thread/src/clock.o
 .rela.text.finsh_set_device
                0x000000000000c11c        0x0 ./rt-thread/src/clock.o
 .rela.text.finsh_thread_entry
                0x000000000000c11c        0x0 ./rt-thread/src/clock.o
 .rela.text.rt_serial_open
                0x000000000000c11c        0x0 ./rt-thread/src/clock.o
 .rela.text.NMI_Handler
                0x000000000000c11c        0x0 ./rt-thread/src/clock.o
 .rela.text.HardFault_Handler
                0x000000000000c11c        0x0 ./rt-thread/src/clock.o
 .rela.init     0x000000000000c11c        0x0 ./rt-thread/src/clock.o
 .rela.vector   0x000000000000c11c        0x0 ./rt-thread/src/clock.o
 .rela.text.handle_reset
                0x000000000000c11c        0x0 ./rt-thread/src/clock.o
 .rela.text     0x000000000000c11c        0x0 ./rt-thread/src/clock.o
 .rela.text.rt_hw_board_init
                0x000000000000c11c        0x0 ./rt-thread/src/clock.o
 .rela.text.DVP_IRQHandler
                0x000000000000c11c        0x0 ./rt-thread/src/clock.o
 .rela.text.ov2640_init
                0x000000000000c11c        0x0 ./rt-thread/src/clock.o
 .rela.text.st7789_init
                0x000000000000c11c        0x0 ./rt-thread/src/clock.o
 .rela.text.LCD_Init
                0x000000000000c11c        0x0 ./rt-thread/src/clock.o
 .rela.text.LCD_ShowChar
                0x000000000000c11c        0x0 ./rt-thread/src/clock.o
 .rela.text.LCD_ShowString
                0x000000000000c11c        0x0 ./rt-thread/src/clock.o
 .rela.text.led
                0x000000000000c11c        0x0 ./rt-thread/src/clock.o
 .rela.text.startup.main
                0x000000000000c11c        0x0 ./rt-thread/src/clock.o
 .rela.text._svfprintf_r
                0x000000000000c11c        0x0 ./rt-thread/src/clock.o
 .rela.text._vfprintf_r
                0x000000000000c11c        0x0 ./rt-thread/src/clock.o

.fini           0x000000000000c11c        0x0
 *(SORT_NONE(.fini))
                0x000000000000c11c                . = ALIGN (0x4)
                [!provide]                        PROVIDE (_etext = .)
                [!provide]                        PROVIDE (_eitcm = .)

.preinit_array  0x000000000000c11c        0x0
                [!provide]                        PROVIDE (__preinit_array_start = .)
 *(.preinit_array)
                [!provide]                        PROVIDE (__preinit_array_end = .)

.init_array     0x000000000000c11c        0x0
                [!provide]                        PROVIDE (__init_array_start = .)
 *(SORT_BY_INIT_PRIORITY(.init_array.*) SORT_BY_INIT_PRIORITY(.ctors.*))
 *(.init_array EXCLUDE_FILE(*crtend?.o *crtend.o *crtbegin?.o *crtbegin.o) .ctors)
                [!provide]                        PROVIDE (__init_array_end = .)

.fini_array     0x000000000000c11c        0x0
                [!provide]                        PROVIDE (__fini_array_start = .)
 *(SORT_BY_INIT_PRIORITY(.fini_array.*) SORT_BY_INIT_PRIORITY(.dtors.*))
 *(.fini_array EXCLUDE_FILE(*crtend?.o *crtend.o *crtbegin?.o *crtbegin.o) .dtors)
                [!provide]                        PROVIDE (__fini_array_end = .)

.ctors
 *crtbegin.o(.ctors)
 *crtbegin?.o(.ctors)
 *(EXCLUDE_FILE(*crtend?.o *crtend.o) .ctors)
 *(SORT_BY_NAME(.ctors.*))
 *(.ctors)

.dtors
 *crtbegin.o(.dtors)
 *crtbegin?.o(.dtors)
 *(EXCLUDE_FILE(*crtend?.o *crtend.o) .dtors)
 *(SORT_BY_NAME(.dtors.*))
 *(.dtors)

.dalign         0x0000000020000000        0x0 load address 0x000000000000c11c
                0x0000000020000000                . = ALIGN (0x4)
                0x0000000020000000                PROVIDE (_data_vma = .)

.dlalign        0x000000000000c11c        0x0
                0x000000000000c11c                . = ALIGN (0x4)
                0x000000000000c11c                PROVIDE (_data_lma = .)

.data           0x0000000020000000      0x1e8 load address 0x000000000000c11c
 *(.gnu.linkonce.r.*)
 *(.data .data.*)
 .data.rt_object_container
                0x0000000020000000       0x80 ./rt-thread/src/object.o
 .data.APBAHBPrescTable
                0x0000000020000080       0x10 ./libraries/hal_libraries/ch32v307_hal/source/ch32v30x_rcc.o
 .data.pin_irq_hdr_tab
                0x0000000020000090       0xc0 ./libraries/hal_drivers/drv_gpio.o
 .data.uart_config
                0x0000000020000150        0xc ./libraries/hal_drivers/drv_usart.o
 .data.impure_data
                0x000000002000015c       0x60 d:/rt-threadstudio/repo/extract/toolchain_support_packages/wch/risc-v-gcc-wch/8.2.0/bin/../lib/gcc/riscv-none-embed/8.2.0/../../../../riscv-none-embed/lib/rv32imafc/ilp32f\libc_nano.a(lib_a-impure.o)
 *(.gnu.linkonce.d.*)
                0x00000000200001c0                . = ALIGN (0x8)
 *fill*         0x00000000200001bc        0x4 
                0x00000000200009c0                PROVIDE (__global_pointer$ = (. + 0x800))
 *(.sdata .sdata.*)
 .sdata._rt_thread_defunct
                0x00000000200001c0        0x8 ./rt-thread/src/idle.o
 .sdata.ADCPrescTable
                0x00000000200001c8        0x4 ./libraries/hal_libraries/ch32v307_hal/source/ch32v30x_rcc.o
 .sdata.SystemCoreClock
                0x00000000200001cc        0x4 ./libraries/hal_libraries/bmsis/source/system_ch32v30x.o
                0x00000000200001cc                SystemCoreClock
 .sdata.JPEG_DVPDMAaddr0
                0x00000000200001d0        0x4 ./applications/HAL/ov2640/HAL_OV2640.o
                0x00000000200001d0                JPEG_DVPDMAaddr0
 .sdata.RGB565_DVPDMAaddr0
                0x00000000200001d4        0x4 ./applications/HAL/ov2640/HAL_OV2640.o
                0x00000000200001d4                RGB565_DVPDMAaddr0
 .sdata.RGB565_DVPDMAaddr1
                0x00000000200001d8        0x4 ./applications/HAL/ov2640/HAL_OV2640.o
                0x00000000200001d8                RGB565_DVPDMAaddr1
 .sdata.FORE_COLOR
                0x00000000200001dc        0x2 ./applications/HAL/ST7789/lcd_st7789.o
                0x00000000200001dc                FORE_COLOR
 *fill*         0x00000000200001de        0x2 
 .sdata._impure_ptr
                0x00000000200001e0        0x4 d:/rt-threadstudio/repo/extract/toolchain_support_packages/wch/risc-v-gcc-wch/8.2.0/bin/../lib/gcc/riscv-none-embed/8.2.0/../../../../riscv-none-embed/lib/rv32imafc/ilp32f\libc_nano.a(lib_a-impure.o)
                0x00000000200001e0                _impure_ptr
 *(.sdata2.*)
 .sdata2._global_impure_ptr
                0x00000000200001e4        0x4 d:/rt-threadstudio/repo/extract/toolchain_support_packages/wch/risc-v-gcc-wch/8.2.0/bin/../lib/gcc/riscv-none-embed/8.2.0/../../../../riscv-none-embed/lib/rv32imafc/ilp32f\libc_nano.a(lib_a-impure.o)
                0x00000000200001e4                _global_impure_ptr
 *(.gnu.linkonce.s.*)
                0x00000000200001e8                . = ALIGN (0x8)
 *(.srodata.cst16)
 *(.srodata.cst8)
 *(.srodata.cst4)
 *(.srodata.cst2)
 *(.srodata .srodata.*)
                0x00000000200001e8                . = ALIGN (0x4)
                0x00000000200001e8                PROVIDE (_edata = .)

.bss            0x00000000200001e8     0x462c load address 0x000000000000c304
                0x00000000200001e8                . = ALIGN (0x4)
                0x00000000200001e8                PROVIDE (_sbss = .)
 *(.sbss*)
 .sbss.rt_tick  0x00000000200001e8        0x4 ./rt-thread/src/clock.o
 .sbss.rt_interrupt_enter_hook
                0x00000000200001ec        0x4 ./rt-thread/src/irq.o
 .sbss.rt_interrupt_leave_hook
                0x00000000200001f0        0x4 ./rt-thread/src/irq.o
 .sbss.rt_interrupt_nest
                0x00000000200001f4        0x1 ./rt-thread/src/irq.o
                0x00000000200001f4                rt_interrupt_nest
 *fill*         0x00000000200001f5        0x3 
 .sbss.__rt_errno
                0x00000000200001f8        0x4 ./rt-thread/src/kservice.o
 .sbss._console_device
                0x00000000200001fc        0x4 ./rt-thread/src/kservice.o
 .sbss.heap_end
                0x0000000020000200        0x4 ./rt-thread/src/mem.o
 .sbss.heap_ptr
                0x0000000020000204        0x4 ./rt-thread/src/mem.o
 .sbss.lfree    0x0000000020000208        0x4 ./rt-thread/src/mem.o
 .sbss.max_mem  0x000000002000020c        0x4 ./rt-thread/src/mem.o
 .sbss.mem_size_aligned
                0x0000000020000210        0x4 ./rt-thread/src/mem.o
 .sbss.rt_free_hook
                0x0000000020000214        0x4 ./rt-thread/src/mem.o
 .sbss.rt_malloc_hook
                0x0000000020000218        0x4 ./rt-thread/src/mem.o
 .sbss.used_mem
                0x000000002000021c        0x4 ./rt-thread/src/mem.o
 .sbss.rt_object_attach_hook
                0x0000000020000220        0x4 ./rt-thread/src/object.o
 .sbss.rt_object_detach_hook
                0x0000000020000224        0x4 ./rt-thread/src/object.o
 .sbss.rt_object_put_hook
                0x0000000020000228        0x4 ./rt-thread/src/object.o
                0x0000000020000228                rt_object_put_hook
 .sbss.rt_object_take_hook
                0x000000002000022c        0x4 ./rt-thread/src/object.o
                0x000000002000022c                rt_object_take_hook
 .sbss.rt_object_trytake_hook
                0x0000000020000230        0x4 ./rt-thread/src/object.o
                0x0000000020000230                rt_object_trytake_hook
 .sbss.rt_current_priority
                0x0000000020000234        0x1 ./rt-thread/src/scheduler.o
                0x0000000020000234                rt_current_priority
 *fill*         0x0000000020000235        0x3 
 .sbss.rt_current_thread
                0x0000000020000238        0x4 ./rt-thread/src/scheduler.o
                0x0000000020000238                rt_current_thread
 .sbss.rt_scheduler_hook
                0x000000002000023c        0x4 ./rt-thread/src/scheduler.o
 .sbss.rt_scheduler_lock_nest
                0x0000000020000240        0x2 ./rt-thread/src/scheduler.o
 *fill*         0x0000000020000242        0x2 
 .sbss.rt_scheduler_switch_hook
                0x0000000020000244        0x4 ./rt-thread/src/scheduler.o
 .sbss.rt_thread_ready_priority_group
                0x0000000020000248        0x4 ./rt-thread/src/scheduler.o
                0x0000000020000248                rt_thread_ready_priority_group
 .sbss.rt_thread_inited_hook
                0x000000002000024c        0x4 ./rt-thread/src/thread.o
 .sbss.rt_thread_resume_hook
                0x0000000020000250        0x4 ./rt-thread/src/thread.o
 .sbss.rt_thread_suspend_hook
                0x0000000020000254        0x4 ./rt-thread/src/thread.o
 .sbss.random_nr.3107
                0x0000000020000258        0x4 ./rt-thread/src/timer.o
 .sbss.rt_timer_enter_hook
                0x000000002000025c        0x4 ./rt-thread/src/timer.o
 .sbss.rt_timer_exit_hook
                0x0000000020000260        0x4 ./rt-thread/src/timer.o
 .sbss.rt_timer_list
                0x0000000020000264        0x8 ./rt-thread/src/timer.o
 .sbss._syscall_table_begin
                0x000000002000026c        0x4 ./rt-thread/components/finsh/shell.o
                0x000000002000026c                _syscall_table_begin
 .sbss._syscall_table_end
                0x0000000020000270        0x4 ./rt-thread/components/finsh/shell.o
                0x0000000020000270                _syscall_table_end
 .sbss._sysvar_table_begin
                0x0000000020000274        0x4 ./rt-thread/components/finsh/shell.o
                0x0000000020000274                _sysvar_table_begin
 .sbss._sysvar_table_end
                0x0000000020000278        0x4 ./rt-thread/components/finsh/shell.o
                0x0000000020000278                _sysvar_table_end
 .sbss.finsh_prompt_custom
                0x000000002000027c        0x4 ./rt-thread/components/finsh/shell.o
 .sbss.shell    0x0000000020000280        0x4 ./rt-thread/components/finsh/shell.o
                0x0000000020000280                shell
 .sbss.already_output.3482
                0x0000000020000284        0x4 ./rt-thread/components/drivers/serial/serial.o
 .sbss.NVIC_Priority_Group
                0x0000000020000288        0x4 ./libraries/hal_libraries/ch32v307_hal/source/ch32v30x_misc.o
                0x0000000020000288                NVIC_Priority_Group
 .sbss.pin_irq_enable_mask
                0x000000002000028c        0x4 ./libraries/hal_drivers/drv_gpio.o
 .sbss.rt_interrupt_from_thread
                0x0000000020000290        0x4 ./libcpu/cpu/cpuport.o
                0x0000000020000290                rt_interrupt_from_thread
 .sbss.rt_interrupt_to_thread
                0x0000000020000294        0x4 ./libcpu/cpu/cpuport.o
                0x0000000020000294                rt_interrupt_to_thread
 .sbss.rt_thread_switch_interrupt_flag
                0x0000000020000298        0x4 ./libcpu/cpu/cpuport.o
                0x0000000020000298                rt_thread_switch_interrupt_flag
 .sbss.addr_cnt
                0x000000002000029c        0x4 ./applications/HAL/ov2640/HAL_OV2640.o
                0x000000002000029c                addr_cnt
 .sbss.frame_cnt
                0x00000000200002a0        0x4 ./applications/HAL/ov2640/HAL_OV2640.o
                0x00000000200002a0                frame_cnt
 .sbss.href_cnt
                0x00000000200002a4        0x4 ./applications/HAL/ov2640/HAL_OV2640.o
                0x00000000200002a4                href_cnt
 .sbss.BACK_COLOR
                0x00000000200002a8        0x2 ./applications/HAL/ST7789/lcd_st7789.o
                0x00000000200002a8                BACK_COLOR
 *(.gnu.linkonce.sb.*)
 *(.bss*)
 *fill*         0x00000000200002aa        0x2 
 .bss.idle      0x00000000200002ac       0x80 ./rt-thread/src/idle.o
 .bss.idle_hook_list
                0x000000002000032c       0x10 ./rt-thread/src/idle.o
 .bss.rt_thread_stack
                0x000000002000033c      0x200 ./rt-thread/src/idle.o
 .bss.rt_log_buf.3317
                0x000000002000053c       0x80 ./rt-thread/src/kservice.o
 .bss.heap_sem  0x00000000200005bc       0x20 ./rt-thread/src/mem.o
 .bss.rt_thread_priority_table
                0x00000000200005dc      0x100 ./rt-thread/src/scheduler.o
                0x00000000200005dc                rt_thread_priority_table
 .bss.finsh_prompt.4615
                0x00000000200006dc       0x81 ./rt-thread/components/finsh/shell.o
 *fill*         0x000000002000075d        0x3 
 .bss._hw_pin   0x0000000020000760       0x48 ./rt-thread/components/drivers/misc/pin.o
 .bss.uart_obj  0x00000000200007a8       0x6c ./libraries/hal_drivers/drv_usart.o
 .bss.rt_heap   0x0000000020000814     0x4000 ./board/board.o
 *(.gnu.linkonce.b.*)
 *(COMMON*)
                0x0000000020004814                . = ALIGN (0x4)
                0x0000000020004814                PROVIDE (_ebss = .)
                0x0000000020004814                PROVIDE (_end = _ebss)
                [!provide]                        PROVIDE (end = .)

.stack          0x0000000020017800      0x800
                0x0000000020017800                . = ALIGN (0x4)
                [!provide]                        PROVIDE (_susrstack = .)
                0x0000000020018000                . = (. + __stack_size)
 *fill*         0x0000000020017800      0x800 
                0x0000000020018000                PROVIDE (_eusrstack = .)
OUTPUT(rtthread.elf elf32-littleriscv)

.debug_info     0x0000000000000000    0x35d90
 .debug_info    0x0000000000000000      0xe1e ./rt-thread/src/clock.o
 .debug_info    0x0000000000000e1e      0xf42 ./rt-thread/src/components.o
 .debug_info    0x0000000000001d60     0x12a9 ./rt-thread/src/device.o
 .debug_info    0x0000000000003009     0x1193 ./rt-thread/src/idle.o
 .debug_info    0x000000000000419c     0x331d ./rt-thread/src/ipc.o
 .debug_info    0x00000000000074b9      0xb40 ./rt-thread/src/irq.o
 .debug_info    0x0000000000007ff9     0x1e79 ./rt-thread/src/kservice.o
 .debug_info    0x0000000000009e72     0x1356 ./rt-thread/src/mem.o
 .debug_info    0x000000000000b1c8     0x1363 ./rt-thread/src/object.o
 .debug_info    0x000000000000c52b     0x129a ./rt-thread/src/scheduler.o
 .debug_info    0x000000000000d7c5     0x1c93 ./rt-thread/src/thread.o
 .debug_info    0x000000000000f458     0x16e5 ./rt-thread/src/timer.o
 .debug_info    0x0000000000010b3d      0xa1e ./rt-thread/components/libc/compilers/newlib/libc.o
 .debug_info    0x000000000001155b     0x17bf ./rt-thread/components/libc/compilers/newlib/syscalls.o
 .debug_info    0x0000000000012d1a     0x2f5b ./rt-thread/components/finsh/cmd.o
 .debug_info    0x0000000000015c75     0x12f3 ./rt-thread/components/finsh/msh.o
 .debug_info    0x0000000000016f68     0x1cff ./rt-thread/components/finsh/shell.o
 .debug_info    0x0000000000018c67      0xfbb ./rt-thread/components/drivers/src/completion.o
 .debug_info    0x0000000000019c22     0x1a43 ./rt-thread/components/drivers/serial/serial.o
 .debug_info    0x000000000001b665     0x1680 ./rt-thread/components/drivers/misc/pin.o
 .debug_info    0x000000000001cce5      0xd29 ./libraries/hal_libraries/ch32v307_hal/source/ch32v30x_dma.o
 .debug_info    0x000000000001da0e      0xc23 ./libraries/hal_libraries/ch32v307_hal/source/ch32v30x_exti.o
 .debug_info    0x000000000001e631     0x1063 ./libraries/hal_libraries/ch32v307_hal/source/ch32v30x_fsmc.o
 .debug_info    0x000000000001f694     0x10a9 ./libraries/hal_libraries/ch32v307_hal/source/ch32v30x_gpio.o
 .debug_info    0x000000000002073d      0xf83 ./libraries/hal_libraries/ch32v307_hal/source/ch32v30x_misc.o
 .debug_info    0x00000000000216c0     0x1573 ./libraries/hal_libraries/ch32v307_hal/source/ch32v30x_rcc.o
 .debug_info    0x0000000000022c33     0x2a2c ./libraries/hal_libraries/ch32v307_hal/source/ch32v30x_tim.o
 .debug_info    0x000000000002565f     0x1436 ./libraries/hal_libraries/ch32v307_hal/source/ch32v30x_usart.o
 .debug_info    0x0000000000026a95      0xb1f ./libraries/hal_libraries/bmsis/source/ch32v30x_it.o
 .debug_info    0x00000000000275b4      0x659 ./libraries/hal_libraries/bmsis/source/core_riscv.o
 .debug_info    0x0000000000027c0d       0x22 ./libraries/hal_libraries/bmsis/source/startup_ch32v30x.o
 .debug_info    0x0000000000027c2f      0xb79 ./libraries/hal_libraries/bmsis/source/system_ch32v30x.o
 .debug_info    0x00000000000287a8     0x2127 ./libraries/hal_drivers/drv_gpio.o
 .debug_info    0x000000000002a8cf     0x1caa ./libraries/hal_drivers/drv_usart.o
 .debug_info    0x000000000002c579       0x26 ./libcpu/cpu/context_gcc.o
 .debug_info    0x000000000002c59f      0xe37 ./libcpu/cpu/cpuport.o
 .debug_info    0x000000000002d3d6       0x26 ./libcpu/cpu/interrupt_gcc.o
 .debug_info    0x000000000002d3fc     0x1336 ./board/board.o
 .debug_info    0x000000000002e732     0x1161 ./applications/HAL/ov2640/HAL_OV2640.o
 .debug_info    0x000000000002f893     0x164a ./applications/HAL/ov2640/ov.o
 .debug_info    0x0000000000030edd     0x1050 ./applications/HAL/ST7789/HAL_ST7789.o
 .debug_info    0x0000000000031f2d     0x3130 ./applications/HAL/ST7789/lcd_st7789.o
 .debug_info    0x000000000003505d      0xd33 ./applications/main.o

.debug_abbrev   0x0000000000000000     0x82f1
 .debug_abbrev  0x0000000000000000      0x27d ./rt-thread/src/clock.o
 .debug_abbrev  0x000000000000027d      0x2b6 ./rt-thread/src/components.o
 .debug_abbrev  0x0000000000000533      0x30a ./rt-thread/src/device.o
 .debug_abbrev  0x000000000000083d      0x3c3 ./rt-thread/src/idle.o
 .debug_abbrev  0x0000000000000c00      0x427 ./rt-thread/src/ipc.o
 .debug_abbrev  0x0000000000001027      0x252 ./rt-thread/src/irq.o
 .debug_abbrev  0x0000000000001279      0x49c ./rt-thread/src/kservice.o
 .debug_abbrev  0x0000000000001715      0x393 ./rt-thread/src/mem.o
 .debug_abbrev  0x0000000000001aa8      0x36c ./rt-thread/src/object.o
 .debug_abbrev  0x0000000000001e14      0x3a1 ./rt-thread/src/scheduler.o
 .debug_abbrev  0x00000000000021b5      0x43d ./rt-thread/src/thread.o
 .debug_abbrev  0x00000000000025f2      0x46c ./rt-thread/src/timer.o
 .debug_abbrev  0x0000000000002a5e      0x1af ./rt-thread/components/libc/compilers/newlib/libc.o
 .debug_abbrev  0x0000000000002c0d      0x3e5 ./rt-thread/components/libc/compilers/newlib/syscalls.o
 .debug_abbrev  0x0000000000002ff2      0x475 ./rt-thread/components/finsh/cmd.o
 .debug_abbrev  0x0000000000003467      0x3f0 ./rt-thread/components/finsh/msh.o
 .debug_abbrev  0x0000000000003857      0x52e ./rt-thread/components/finsh/shell.o
 .debug_abbrev  0x0000000000003d85      0x2b6 ./rt-thread/components/drivers/src/completion.o
 .debug_abbrev  0x000000000000403b      0x460 ./rt-thread/components/drivers/serial/serial.o
 .debug_abbrev  0x000000000000449b      0x325 ./rt-thread/components/drivers/misc/pin.o
 .debug_abbrev  0x00000000000047c0      0x2ce ./libraries/hal_libraries/ch32v307_hal/source/ch32v30x_dma.o
 .debug_abbrev  0x0000000000004a8e      0x2ab ./libraries/hal_libraries/ch32v307_hal/source/ch32v30x_exti.o
 .debug_abbrev  0x0000000000004d39      0x299 ./libraries/hal_libraries/ch32v307_hal/source/ch32v30x_fsmc.o
 .debug_abbrev  0x0000000000004fd2      0x2c9 ./libraries/hal_libraries/ch32v307_hal/source/ch32v30x_gpio.o
 .debug_abbrev  0x000000000000529b      0x2bd ./libraries/hal_libraries/ch32v307_hal/source/ch32v30x_misc.o
 .debug_abbrev  0x0000000000005558      0x322 ./libraries/hal_libraries/ch32v307_hal/source/ch32v30x_rcc.o
 .debug_abbrev  0x000000000000587a      0x3c8 ./libraries/hal_libraries/ch32v307_hal/source/ch32v30x_tim.o
 .debug_abbrev  0x0000000000005c42      0x2d2 ./libraries/hal_libraries/ch32v307_hal/source/ch32v30x_usart.o
 .debug_abbrev  0x0000000000005f14      0x1de ./libraries/hal_libraries/bmsis/source/ch32v30x_it.o
 .debug_abbrev  0x00000000000060f2      0x10d ./libraries/hal_libraries/bmsis/source/core_riscv.o
 .debug_abbrev  0x00000000000061ff       0x12 ./libraries/hal_libraries/bmsis/source/startup_ch32v30x.o
 .debug_abbrev  0x0000000000006211      0x291 ./libraries/hal_libraries/bmsis/source/system_ch32v30x.o
 .debug_abbrev  0x00000000000064a2      0x452 ./libraries/hal_drivers/drv_gpio.o
 .debug_abbrev  0x00000000000068f4      0x452 ./libraries/hal_drivers/drv_usart.o
 .debug_abbrev  0x0000000000006d46       0x14 ./libcpu/cpu/context_gcc.o
 .debug_abbrev  0x0000000000006d5a      0x2e4 ./libcpu/cpu/cpuport.o
 .debug_abbrev  0x000000000000703e       0x14 ./libcpu/cpu/interrupt_gcc.o
 .debug_abbrev  0x0000000000007052      0x325 ./board/board.o
 .debug_abbrev  0x0000000000007377      0x2dd ./applications/HAL/ov2640/HAL_OV2640.o
 .debug_abbrev  0x0000000000007654      0x34d ./applications/HAL/ov2640/ov.o
 .debug_abbrev  0x00000000000079a1      0x29d ./applications/HAL/ST7789/HAL_ST7789.o
 .debug_abbrev  0x0000000000007c3e      0x468 ./applications/HAL/ST7789/lcd_st7789.o
 .debug_abbrev  0x00000000000080a6      0x24b ./applications/main.o

.debug_loc      0x0000000000000000     0xef5c
 .debug_loc     0x0000000000000000       0xb4 ./rt-thread/src/clock.o
 .debug_loc     0x00000000000000b4       0x8a ./rt-thread/src/components.o
 .debug_loc     0x000000000000013e      0x639 ./rt-thread/src/device.o
 .debug_loc     0x0000000000000777      0x251 ./rt-thread/src/idle.o
 .debug_loc     0x00000000000009c8     0x1b65 ./rt-thread/src/ipc.o
 .debug_loc     0x000000000000252d       0x51 ./rt-thread/src/irq.o
 .debug_loc     0x000000000000257e     0x181a ./rt-thread/src/kservice.o
 .debug_loc     0x0000000000003d98      0x4c3 ./rt-thread/src/mem.o
 .debug_loc     0x000000000000425b      0x5c8 ./rt-thread/src/object.o
 .debug_loc     0x0000000000004823      0x2a7 ./rt-thread/src/scheduler.o
 .debug_loc     0x0000000000004aca      0x85c ./rt-thread/src/thread.o
 .debug_loc     0x0000000000005326      0x767 ./rt-thread/src/timer.o
 .debug_loc     0x0000000000005a8d      0x4a2 ./rt-thread/components/libc/compilers/newlib/syscalls.o
 .debug_loc     0x0000000000005f2f      0xcc9 ./rt-thread/components/finsh/cmd.o
 .debug_loc     0x0000000000006bf8      0x548 ./rt-thread/components/finsh/msh.o
 .debug_loc     0x0000000000007140      0x280 ./rt-thread/components/finsh/shell.o
 .debug_loc     0x00000000000073c0      0x18c ./rt-thread/components/drivers/src/completion.o
 .debug_loc     0x000000000000754c      0xbe2 ./rt-thread/components/drivers/serial/serial.o
 .debug_loc     0x000000000000812e      0x787 ./rt-thread/components/drivers/misc/pin.o
 .debug_loc     0x00000000000088b5      0x19a ./libraries/hal_libraries/ch32v307_hal/source/ch32v30x_dma.o
 .debug_loc     0x0000000000008a4f      0x181 ./libraries/hal_libraries/ch32v307_hal/source/ch32v30x_exti.o
 .debug_loc     0x0000000000008bd0      0x454 ./libraries/hal_libraries/ch32v307_hal/source/ch32v30x_fsmc.o
 .debug_loc     0x0000000000009024      0x670 ./libraries/hal_libraries/ch32v307_hal/source/ch32v30x_gpio.o
 .debug_loc     0x0000000000009694       0xce ./libraries/hal_libraries/ch32v307_hal/source/ch32v30x_misc.o
 .debug_loc     0x0000000000009762      0xa54 ./libraries/hal_libraries/ch32v307_hal/source/ch32v30x_rcc.o
 .debug_loc     0x000000000000a1b6     0x195e ./libraries/hal_libraries/ch32v307_hal/source/ch32v30x_tim.o
 .debug_loc     0x000000000000bb14      0x7bb ./libraries/hal_libraries/ch32v307_hal/source/ch32v30x_usart.o
 .debug_loc     0x000000000000c2cf       0xe5 ./libraries/hal_libraries/bmsis/source/system_ch32v30x.o
 .debug_loc     0x000000000000c3b4      0x601 ./libraries/hal_drivers/drv_gpio.o
 .debug_loc     0x000000000000c9b5      0x2be ./libraries/hal_drivers/drv_usart.o
 .debug_loc     0x000000000000cc73      0x100 ./libcpu/cpu/cpuport.o
 .debug_loc     0x000000000000cd73       0x9a ./board/board.o
 .debug_loc     0x000000000000ce0d       0x3e ./applications/HAL/ov2640/HAL_OV2640.o
 .debug_loc     0x000000000000ce4b      0x3ea ./applications/HAL/ov2640/ov.o
 .debug_loc     0x000000000000d235       0x1e ./applications/HAL/ST7789/HAL_ST7789.o
 .debug_loc     0x000000000000d253     0x1cea ./applications/HAL/ST7789/lcd_st7789.o
 .debug_loc     0x000000000000ef3d       0x1f ./applications/main.o

.debug_aranges  0x0000000000000000     0x1758
 .debug_aranges
                0x0000000000000000       0x40 ./rt-thread/src/clock.o
 .debug_aranges
                0x0000000000000040       0x50 ./rt-thread/src/components.o
 .debug_aranges
                0x0000000000000090       0x80 ./rt-thread/src/device.o
 .debug_aranges
                0x0000000000000110       0x50 ./rt-thread/src/idle.o
 .debug_aranges
                0x0000000000000160      0x178 ./rt-thread/src/ipc.o
 .debug_aranges
                0x00000000000002d8       0x40 ./rt-thread/src/irq.o
 .debug_aranges
                0x0000000000000318      0x100 ./rt-thread/src/kservice.o
 .debug_aranges
                0x0000000000000418       0x68 ./rt-thread/src/mem.o
 .debug_aranges
                0x0000000000000480       0x90 ./rt-thread/src/object.o
 .debug_aranges
                0x0000000000000510       0x68 ./rt-thread/src/scheduler.o
 .debug_aranges
                0x0000000000000578       0xc8 ./rt-thread/src/thread.o
 .debug_aranges
                0x0000000000000640       0x88 ./rt-thread/src/timer.o
 .debug_aranges
                0x00000000000006c8       0x20 ./rt-thread/components/libc/compilers/newlib/libc.o
 .debug_aranges
                0x00000000000006e8       0xe0 ./rt-thread/components/libc/compilers/newlib/syscalls.o
 .debug_aranges
                0x00000000000007c8       0x98 ./rt-thread/components/finsh/cmd.o
 .debug_aranges
                0x0000000000000860       0x48 ./rt-thread/components/finsh/msh.o
 .debug_aranges
                0x00000000000008a8       0x88 ./rt-thread/components/finsh/shell.o
 .debug_aranges
                0x0000000000000930       0x30 ./rt-thread/components/drivers/src/completion.o
 .debug_aranges
                0x0000000000000960       0x58 ./rt-thread/components/drivers/serial/serial.o
 .debug_aranges
                0x00000000000009b8       0x70 ./rt-thread/components/drivers/misc/pin.o
 .debug_aranges
                0x0000000000000a28       0x60 ./libraries/hal_libraries/ch32v307_hal/source/ch32v30x_dma.o
 .debug_aranges
                0x0000000000000a88       0x50 ./libraries/hal_libraries/ch32v307_hal/source/ch32v30x_exti.o
 .debug_aranges
                0x0000000000000ad8       0x90 ./libraries/hal_libraries/ch32v307_hal/source/ch32v30x_fsmc.o
 .debug_aranges
                0x0000000000000b68       0xa8 ./libraries/hal_libraries/ch32v307_hal/source/ch32v30x_gpio.o
 .debug_aranges
                0x0000000000000c10       0x28 ./libraries/hal_libraries/ch32v307_hal/source/ch32v30x_misc.o
 .debug_aranges
                0x0000000000000c38      0x1a8 ./libraries/hal_libraries/ch32v307_hal/source/ch32v30x_rcc.o
 .debug_aranges
                0x0000000000000de0      0x2d0 ./libraries/hal_libraries/ch32v307_hal/source/ch32v30x_tim.o
 .debug_aranges
                0x00000000000010b0      0x100 ./libraries/hal_libraries/ch32v307_hal/source/ch32v30x_usart.o
 .debug_aranges
                0x00000000000011b0       0x28 ./libraries/hal_libraries/bmsis/source/ch32v30x_it.o
 .debug_aranges
                0x00000000000011d8      0x140 ./libraries/hal_libraries/bmsis/source/core_riscv.o
 .debug_aranges
                0x0000000000001318       0x30 ./libraries/hal_libraries/bmsis/source/startup_ch32v30x.o
 .debug_aranges
                0x0000000000001348       0x28 ./libraries/hal_libraries/bmsis/source/system_ch32v30x.o
 .debug_aranges
                0x0000000000001370       0x98 ./libraries/hal_drivers/drv_gpio.o
 .debug_aranges
                0x0000000000001408       0x50 ./libraries/hal_drivers/drv_usart.o
 .debug_aranges
                0x0000000000001458       0x20 ./libcpu/cpu/context_gcc.o
 .debug_aranges
                0x0000000000001478       0x50 ./libcpu/cpu/cpuport.o
 .debug_aranges
                0x00000000000014c8       0x20 ./libcpu/cpu/interrupt_gcc.o
 .debug_aranges
                0x00000000000014e8       0x40 ./board/board.o
 .debug_aranges
                0x0000000000001528       0x38 ./applications/HAL/ov2640/HAL_OV2640.o
 .debug_aranges
                0x0000000000001560       0x90 ./applications/HAL/ov2640/ov.o
 .debug_aranges
                0x00000000000015f0       0x38 ./applications/HAL/ST7789/HAL_ST7789.o
 .debug_aranges
                0x0000000000001628      0x108 ./applications/HAL/ST7789/lcd_st7789.o
 .debug_aranges
                0x0000000000001730       0x28 ./applications/main.o

.debug_ranges   0x0000000000000000     0x2168
 .debug_ranges  0x0000000000000000       0x30 ./rt-thread/src/clock.o
 .debug_ranges  0x0000000000000030       0x40 ./rt-thread/src/components.o
 .debug_ranges  0x0000000000000070       0x70 ./rt-thread/src/device.o
 .debug_ranges  0x00000000000000e0       0xa8 ./rt-thread/src/idle.o
 .debug_ranges  0x0000000000000188      0x360 ./rt-thread/src/ipc.o
 .debug_ranges  0x00000000000004e8       0x30 ./rt-thread/src/irq.o
 .debug_ranges  0x0000000000000518      0x128 ./rt-thread/src/kservice.o
 .debug_ranges  0x0000000000000640       0x58 ./rt-thread/src/mem.o
 .debug_ranges  0x0000000000000698       0xe8 ./rt-thread/src/object.o
 .debug_ranges  0x0000000000000780       0xe0 ./rt-thread/src/scheduler.o
 .debug_ranges  0x0000000000000860      0x130 ./rt-thread/src/thread.o
 .debug_ranges  0x0000000000000990      0x130 ./rt-thread/src/timer.o
 .debug_ranges  0x0000000000000ac0       0x10 ./rt-thread/components/libc/compilers/newlib/libc.o
 .debug_ranges  0x0000000000000ad0       0xd0 ./rt-thread/components/libc/compilers/newlib/syscalls.o
 .debug_ranges  0x0000000000000ba0      0x3c0 ./rt-thread/components/finsh/cmd.o
 .debug_ranges  0x0000000000000f60      0x108 ./rt-thread/components/finsh/msh.o
 .debug_ranges  0x0000000000001068      0x150 ./rt-thread/components/finsh/shell.o
 .debug_ranges  0x00000000000011b8       0x58 ./rt-thread/components/drivers/src/completion.o
 .debug_ranges  0x0000000000001210       0xf0 ./rt-thread/components/drivers/serial/serial.o
 .debug_ranges  0x0000000000001300       0x90 ./rt-thread/components/drivers/misc/pin.o
 .debug_ranges  0x0000000000001390       0x50 ./libraries/hal_libraries/ch32v307_hal/source/ch32v30x_dma.o
 .debug_ranges  0x00000000000013e0       0x40 ./libraries/hal_libraries/ch32v307_hal/source/ch32v30x_exti.o
 .debug_ranges  0x0000000000001420       0x80 ./libraries/hal_libraries/ch32v307_hal/source/ch32v30x_fsmc.o
 .debug_ranges  0x00000000000014a0       0x98 ./libraries/hal_libraries/ch32v307_hal/source/ch32v30x_gpio.o
 .debug_ranges  0x0000000000001538       0x48 ./libraries/hal_libraries/ch32v307_hal/source/ch32v30x_misc.o
 .debug_ranges  0x0000000000001580      0x198 ./libraries/hal_libraries/ch32v307_hal/source/ch32v30x_rcc.o
 .debug_ranges  0x0000000000001718      0x2f0 ./libraries/hal_libraries/ch32v307_hal/source/ch32v30x_tim.o
 .debug_ranges  0x0000000000001a08       0xf0 ./libraries/hal_libraries/ch32v307_hal/source/ch32v30x_usart.o
 .debug_ranges  0x0000000000001af8       0x18 ./libraries/hal_libraries/bmsis/source/ch32v30x_it.o
 .debug_ranges  0x0000000000001b10      0x130 ./libraries/hal_libraries/bmsis/source/core_riscv.o
 .debug_ranges  0x0000000000001c40       0x28 ./libraries/hal_libraries/bmsis/source/startup_ch32v30x.o
 .debug_ranges  0x0000000000001c68       0x38 ./libraries/hal_libraries/bmsis/source/system_ch32v30x.o
 .debug_ranges  0x0000000000001ca0       0xa0 ./libraries/hal_drivers/drv_gpio.o
 .debug_ranges  0x0000000000001d40       0x88 ./libraries/hal_drivers/drv_usart.o
 .debug_ranges  0x0000000000001dc8       0x40 ./libcpu/cpu/cpuport.o
 .debug_ranges  0x0000000000001e08       0x60 ./board/board.o
 .debug_ranges  0x0000000000001e68       0x68 ./applications/HAL/ov2640/HAL_OV2640.o
 .debug_ranges  0x0000000000001ed0       0xb0 ./applications/HAL/ov2640/ov.o
 .debug_ranges  0x0000000000001f80       0x28 ./applications/HAL/ST7789/HAL_ST7789.o
 .debug_ranges  0x0000000000001fa8      0x1a8 ./applications/HAL/ST7789/lcd_st7789.o
 .debug_ranges  0x0000000000002150       0x18 ./applications/main.o

.debug_line     0x0000000000000000    0x261e2
 .debug_line    0x0000000000000000      0x4e2 ./rt-thread/src/clock.o
 .debug_line    0x00000000000004e2      0x518 ./rt-thread/src/components.o
 .debug_line    0x00000000000009fa      0xa40 ./rt-thread/src/device.o
 .debug_line    0x000000000000143a      0x7a8 ./rt-thread/src/idle.o
 .debug_line    0x0000000000001be2     0x3845 ./rt-thread/src/ipc.o
 .debug_line    0x0000000000005427      0x47d ./rt-thread/src/irq.o
 .debug_line    0x00000000000058a4     0x20ea ./rt-thread/src/kservice.o
 .debug_line    0x000000000000798e      0xfaa ./rt-thread/src/mem.o
 .debug_line    0x0000000000008938      0xc38 ./rt-thread/src/object.o
 .debug_line    0x0000000000009570      0xad7 ./rt-thread/src/scheduler.o
 .debug_line    0x000000000000a047     0x1275 ./rt-thread/src/thread.o
 .debug_line    0x000000000000b2bc      0xf6e ./rt-thread/src/timer.o
 .debug_line    0x000000000000c22a      0x317 ./rt-thread/components/libc/compilers/newlib/libc.o
 .debug_line    0x000000000000c541      0x99e ./rt-thread/components/libc/compilers/newlib/syscalls.o
 .debug_line    0x000000000000cedf     0x1b92 ./rt-thread/components/finsh/cmd.o
 .debug_line    0x000000000000ea71      0xbda ./rt-thread/components/finsh/msh.o
 .debug_line    0x000000000000f64b     0x134e ./rt-thread/components/finsh/shell.o
 .debug_line    0x0000000000010999      0x6af ./rt-thread/components/drivers/src/completion.o
 .debug_line    0x0000000000011048     0x137c ./rt-thread/components/drivers/serial/serial.o
 .debug_line    0x00000000000123c4      0x95d ./rt-thread/components/drivers/misc/pin.o
 .debug_line    0x0000000000012d21      0xa8e ./libraries/hal_libraries/ch32v307_hal/source/ch32v30x_dma.o
 .debug_line    0x00000000000137af      0x693 ./libraries/hal_libraries/ch32v307_hal/source/ch32v30x_exti.o
 .debug_line    0x0000000000013e42      0xeef ./libraries/hal_libraries/ch32v307_hal/source/ch32v30x_fsmc.o
 .debug_line    0x0000000000014d31      0xe01 ./libraries/hal_libraries/ch32v307_hal/source/ch32v30x_gpio.o
 .debug_line    0x0000000000015b32      0x58d ./libraries/hal_libraries/ch32v307_hal/source/ch32v30x_misc.o
 .debug_line    0x00000000000160bf     0x18ae ./libraries/hal_libraries/ch32v307_hal/source/ch32v30x_rcc.o
 .debug_line    0x000000000001796d     0x33b3 ./libraries/hal_libraries/ch32v307_hal/source/ch32v30x_tim.o
 .debug_line    0x000000000001ad20     0x1120 ./libraries/hal_libraries/ch32v307_hal/source/ch32v30x_usart.o
 .debug_line    0x000000000001be40      0x549 ./libraries/hal_libraries/bmsis/source/ch32v30x_it.o
 .debug_line    0x000000000001c389      0x78a ./libraries/hal_libraries/bmsis/source/core_riscv.o
 .debug_line    0x000000000001cb13      0x375 ./libraries/hal_libraries/bmsis/source/startup_ch32v30x.o
 .debug_line    0x000000000001ce88      0x7ed ./libraries/hal_libraries/bmsis/source/system_ch32v30x.o
 .debug_line    0x000000000001d675     0x149c ./libraries/hal_drivers/drv_gpio.o
 .debug_line    0x000000000001eb11      0xe28 ./libraries/hal_drivers/drv_usart.o
 .debug_line    0x000000000001f939      0x238 ./libcpu/cpu/context_gcc.o
 .debug_line    0x000000000001fb71      0x69a ./libcpu/cpu/cpuport.o
 .debug_line    0x000000000002020b      0x258 ./libcpu/cpu/interrupt_gcc.o
 .debug_line    0x0000000000020463      0x7f6 ./board/board.o
 .debug_line    0x0000000000020c59      0xa78 ./applications/HAL/ov2640/HAL_OV2640.o
 .debug_line    0x00000000000216d1      0xfeb ./applications/HAL/ov2640/ov.o
 .debug_line    0x00000000000226bc      0x7f4 ./applications/HAL/ST7789/HAL_ST7789.o
 .debug_line    0x0000000000022eb0     0x2c41 ./applications/HAL/ST7789/lcd_st7789.o
 .debug_line    0x0000000000025af1      0x6f1 ./applications/main.o

.debug_str      0x0000000000000000     0x6e4e
 .debug_str     0x0000000000000000      0x761 ./rt-thread/src/clock.o
                                        0x88a (size before relaxing)
 .debug_str     0x0000000000000761      0x1b7 ./rt-thread/src/components.o
                                        0x998 (size before relaxing)
 .debug_str     0x0000000000000918      0x558 ./rt-thread/src/device.o
                                        0xc5e (size before relaxing)
 .debug_str     0x0000000000000e70      0x16e ./rt-thread/src/idle.o
                                        0x9b1 (size before relaxing)
 .debug_str     0x0000000000000fde      0x507 ./rt-thread/src/ipc.o
                                        0xf02 (size before relaxing)
 .debug_str     0x00000000000014e5       0xcb ./rt-thread/src/irq.o
                                        0x751 (size before relaxing)
 .debug_str     0x00000000000015b0      0x28e ./rt-thread/src/kservice.o
                                        0xdf0 (size before relaxing)
 .debug_str     0x000000000000183e      0x214 ./rt-thread/src/mem.o
                                        0x98f (size before relaxing)
 .debug_str     0x0000000000001a52      0x25f ./rt-thread/src/object.o
                                        0xbe3 (size before relaxing)
 .debug_str     0x0000000000001cb1      0x1f5 ./rt-thread/src/scheduler.o
                                        0xae9 (size before relaxing)
 .debug_str     0x0000000000001ea6      0x1dc ./rt-thread/src/thread.o
                                        0xd22 (size before relaxing)
 .debug_str     0x0000000000002082      0x12b ./rt-thread/src/timer.o
                                        0xb09 (size before relaxing)
 .debug_str     0x00000000000021ad       0x50 ./rt-thread/components/libc/compilers/newlib/libc.o
                                        0x6ac (size before relaxing)
 .debug_str     0x00000000000021fd      0x29f ./rt-thread/components/libc/compilers/newlib/syscalls.o
                                        0xcd1 (size before relaxing)
 .debug_str     0x000000000000249c      0x6df ./rt-thread/components/finsh/cmd.o
                                       0x1592 (size before relaxing)
 .debug_str     0x0000000000002b7b      0x1ce ./rt-thread/components/finsh/msh.o
                                        0x951 (size before relaxing)
 .debug_str     0x0000000000002d49      0x26f ./rt-thread/components/finsh/shell.o
                                        0xf7c (size before relaxing)
 .debug_str     0x0000000000002fb8       0x87 ./rt-thread/components/drivers/src/completion.o
                                        0x925 (size before relaxing)
 .debug_str     0x000000000000303f      0x200 ./rt-thread/components/drivers/serial/serial.o
                                        0xca7 (size before relaxing)
 .debug_str     0x000000000000323f      0x1e2 ./rt-thread/components/drivers/misc/pin.o
                                        0xc9b (size before relaxing)
 .debug_str     0x0000000000003421      0x276 ./libraries/hal_libraries/ch32v307_hal/source/ch32v30x_dma.o
                                        0x87b (size before relaxing)
 .debug_str     0x0000000000003697      0x1d8 ./libraries/hal_libraries/ch32v307_hal/source/ch32v30x_exti.o
                                        0x815 (size before relaxing)
 .debug_str     0x000000000000386f      0x4fa ./libraries/hal_libraries/ch32v307_hal/source/ch32v30x_fsmc.o
                                        0xb50 (size before relaxing)
 .debug_str     0x0000000000003d69      0x399 ./libraries/hal_libraries/ch32v307_hal/source/ch32v30x_gpio.o
                                        0x9f9 (size before relaxing)
 .debug_str     0x0000000000004102      0x718 ./libraries/hal_libraries/ch32v307_hal/source/ch32v30x_misc.o
                                        0xd53 (size before relaxing)
 .debug_str     0x000000000000481a      0x6ac ./libraries/hal_libraries/ch32v307_hal/source/ch32v30x_rcc.o
                                        0xd49 (size before relaxing)
 .debug_str     0x0000000000004ec6      0xbb3 ./libraries/hal_libraries/ch32v307_hal/source/ch32v30x_tim.o
                                       0x1303 (size before relaxing)
 .debug_str     0x0000000000005a79      0x439 ./libraries/hal_libraries/ch32v307_hal/source/ch32v30x_usart.o
                                        0xb9f (size before relaxing)
 .debug_str     0x0000000000005eb2       0x7e ./libraries/hal_libraries/bmsis/source/ch32v30x_it.o
                                        0x70a (size before relaxing)
 .debug_str     0x0000000000005f30      0x1e3 ./libraries/hal_libraries/bmsis/source/core_riscv.o
                                        0x3c4 (size before relaxing)
 .debug_str     0x0000000000006113       0x47 ./libraries/hal_libraries/bmsis/source/startup_ch32v30x.o
                                         0xab (size before relaxing)
 .debug_str     0x000000000000615a       0x78 ./libraries/hal_libraries/bmsis/source/system_ch32v30x.o
                                        0x73c (size before relaxing)
 .debug_str     0x00000000000061d2      0x1e4 ./libraries/hal_drivers/drv_gpio.o
                                       0x15cf (size before relaxing)
 .debug_str     0x00000000000063b6      0x107 ./libraries/hal_drivers/drv_usart.o
                                       0x1468 (size before relaxing)
 .debug_str     0x00000000000064bd       0x1c ./libcpu/cpu/context_gcc.o
                                         0x8c (size before relaxing)
 .debug_str     0x00000000000064d9       0xd7 ./libcpu/cpu/cpuport.o
                                        0x803 (size before relaxing)
 .debug_str     0x00000000000065b0       0x1e ./libcpu/cpu/interrupt_gcc.o
                                         0x8e (size before relaxing)
 .debug_str     0x00000000000065ce       0x71 ./board/board.o
                                        0xf51 (size before relaxing)
 .debug_str     0x000000000000663f      0x163 ./applications/HAL/ov2640/HAL_OV2640.o
                                        0xe6f (size before relaxing)
 .debug_str     0x00000000000067a2      0x287 ./applications/HAL/ov2640/ov.o
                                        0xa39 (size before relaxing)
 .debug_str     0x0000000000006a29       0xdc ./applications/HAL/ST7789/HAL_ST7789.o
                                        0xa85 (size before relaxing)
 .debug_str     0x0000000000006b05      0x2f5 ./applications/HAL/ST7789/lcd_st7789.o
                                       0x10d8 (size before relaxing)
 .debug_str     0x0000000000006dfa       0x54 ./applications/main.o
                                        0x777 (size before relaxing)

.comment        0x0000000000000000       0x33
 .comment       0x0000000000000000       0x33 ./rt-thread/src/clock.o
                                         0x34 (size before relaxing)
 .comment       0x0000000000000033       0x34 ./rt-thread/src/components.o
 .comment       0x0000000000000033       0x34 ./rt-thread/src/device.o
 .comment       0x0000000000000033       0x34 ./rt-thread/src/idle.o
 .comment       0x0000000000000033       0x34 ./rt-thread/src/ipc.o
 .comment       0x0000000000000033       0x34 ./rt-thread/src/irq.o
 .comment       0x0000000000000033       0x34 ./rt-thread/src/kservice.o
 .comment       0x0000000000000033       0x34 ./rt-thread/src/mem.o
 .comment       0x0000000000000033       0x34 ./rt-thread/src/object.o
 .comment       0x0000000000000033       0x34 ./rt-thread/src/scheduler.o
 .comment       0x0000000000000033       0x34 ./rt-thread/src/thread.o
 .comment       0x0000000000000033       0x34 ./rt-thread/src/timer.o
 .comment       0x0000000000000033       0x34 ./rt-thread/components/libc/compilers/newlib/libc.o
 .comment       0x0000000000000033       0x34 ./rt-thread/components/libc/compilers/newlib/syscalls.o
 .comment       0x0000000000000033       0x34 ./rt-thread/components/finsh/cmd.o
 .comment       0x0000000000000033       0x34 ./rt-thread/components/finsh/msh.o
 .comment       0x0000000000000033       0x34 ./rt-thread/components/finsh/shell.o
 .comment       0x0000000000000033       0x34 ./rt-thread/components/drivers/src/completion.o
 .comment       0x0000000000000033       0x34 ./rt-thread/components/drivers/serial/serial.o
 .comment       0x0000000000000033       0x34 ./rt-thread/components/drivers/misc/pin.o
 .comment       0x0000000000000033       0x34 ./libraries/hal_libraries/ch32v307_hal/source/ch32v30x_dma.o
 .comment       0x0000000000000033       0x34 ./libraries/hal_libraries/ch32v307_hal/source/ch32v30x_exti.o
 .comment       0x0000000000000033       0x34 ./libraries/hal_libraries/ch32v307_hal/source/ch32v30x_fsmc.o
 .comment       0x0000000000000033       0x34 ./libraries/hal_libraries/ch32v307_hal/source/ch32v30x_gpio.o
 .comment       0x0000000000000033       0x34 ./libraries/hal_libraries/ch32v307_hal/source/ch32v30x_misc.o
 .comment       0x0000000000000033       0x34 ./libraries/hal_libraries/ch32v307_hal/source/ch32v30x_rcc.o
 .comment       0x0000000000000033       0x34 ./libraries/hal_libraries/ch32v307_hal/source/ch32v30x_tim.o
 .comment       0x0000000000000033       0x34 ./libraries/hal_libraries/ch32v307_hal/source/ch32v30x_usart.o
 .comment       0x0000000000000033       0x34 ./libraries/hal_libraries/bmsis/source/ch32v30x_it.o
 .comment       0x0000000000000033       0x34 ./libraries/hal_libraries/bmsis/source/core_riscv.o
 .comment       0x0000000000000033       0x34 ./libraries/hal_libraries/bmsis/source/system_ch32v30x.o
 .comment       0x0000000000000033       0x34 ./libraries/hal_drivers/drv_gpio.o
 .comment       0x0000000000000033       0x34 ./libraries/hal_drivers/drv_usart.o
 .comment       0x0000000000000033       0x34 ./libcpu/cpu/cpuport.o
 .comment       0x0000000000000033       0x34 ./board/board.o
 .comment       0x0000000000000033       0x34 ./applications/HAL/ov2640/HAL_OV2640.o
 .comment       0x0000000000000033       0x34 ./applications/HAL/ov2640/ov.o
 .comment       0x0000000000000033       0x34 ./applications/HAL/ST7789/HAL_ST7789.o
 .comment       0x0000000000000033       0x34 ./applications/HAL/ST7789/lcd_st7789.o
 .comment       0x0000000000000033       0x34 ./applications/main.o

.debug_frame    0x0000000000000000     0x4a18
 .debug_frame   0x0000000000000000       0x7c ./rt-thread/src/clock.o
 .debug_frame   0x000000000000007c      0x108 ./rt-thread/src/components.o
 .debug_frame   0x0000000000000184      0x190 ./rt-thread/src/device.o
 .debug_frame   0x0000000000000314       0xc4 ./rt-thread/src/idle.o
 .debug_frame   0x00000000000003d8      0x660 ./rt-thread/src/ipc.o
 .debug_frame   0x0000000000000a38       0x8c ./rt-thread/src/irq.o
 .debug_frame   0x0000000000000ac4      0x2fc ./rt-thread/src/kservice.o
 .debug_frame   0x0000000000000dc0      0x130 ./rt-thread/src/mem.o
 .debug_frame   0x0000000000000ef0      0x194 ./rt-thread/src/object.o
 .debug_frame   0x0000000000001084      0x11c ./rt-thread/src/scheduler.o
 .debug_frame   0x00000000000011a0      0x2d4 ./rt-thread/src/thread.o
 .debug_frame   0x0000000000001474      0x1b0 ./rt-thread/src/timer.o
 .debug_frame   0x0000000000001624       0x20 ./rt-thread/components/libc/compilers/newlib/libc.o
 .debug_frame   0x0000000000001644      0x234 ./rt-thread/components/libc/compilers/newlib/syscalls.o
 .debug_frame   0x0000000000001878      0x2fc ./rt-thread/components/finsh/cmd.o
 .debug_frame   0x0000000000001b74       0xf0 ./rt-thread/components/finsh/msh.o
 .debug_frame   0x0000000000001c64      0x174 ./rt-thread/components/finsh/shell.o
 .debug_frame   0x0000000000001dd8       0x84 ./rt-thread/components/drivers/src/completion.o
 .debug_frame   0x0000000000001e5c      0x150 ./rt-thread/components/drivers/serial/serial.o
 .debug_frame   0x0000000000001fac      0x154 ./rt-thread/components/drivers/misc/pin.o
 .debug_frame   0x0000000000002100       0xd8 ./libraries/hal_libraries/ch32v307_hal/source/ch32v30x_dma.o
 .debug_frame   0x00000000000021d8       0x90 ./libraries/hal_libraries/ch32v307_hal/source/ch32v30x_exti.o
 .debug_frame   0x0000000000002268      0x100 ./libraries/hal_libraries/ch32v307_hal/source/ch32v30x_fsmc.o
 .debug_frame   0x0000000000002368      0x148 ./libraries/hal_libraries/ch32v307_hal/source/ch32v30x_gpio.o
 .debug_frame   0x00000000000024b0       0x30 ./libraries/hal_libraries/ch32v307_hal/source/ch32v30x_misc.o
 .debug_frame   0x00000000000024e0      0x344 ./libraries/hal_libraries/ch32v307_hal/source/ch32v30x_rcc.o
 .debug_frame   0x0000000000002824      0x614 ./libraries/hal_libraries/ch32v307_hal/source/ch32v30x_tim.o
 .debug_frame   0x0000000000002e38      0x204 ./libraries/hal_libraries/ch32v307_hal/source/ch32v30x_usart.o
 .debug_frame   0x000000000000303c       0xb4 ./libraries/hal_libraries/bmsis/source/ch32v30x_it.o
 .debug_frame   0x00000000000030f0      0x260 ./libraries/hal_libraries/bmsis/source/core_riscv.o
 .debug_frame   0x0000000000003350       0x3c ./libraries/hal_libraries/bmsis/source/system_ch32v30x.o
 .debug_frame   0x000000000000338c      0x3b8 ./libraries/hal_drivers/drv_gpio.o
 .debug_frame   0x0000000000003744      0x134 ./libraries/hal_drivers/drv_usart.o
 .debug_frame   0x0000000000003878       0x98 ./libcpu/cpu/cpuport.o
 .debug_frame   0x0000000000003910       0xd8 ./board/board.o
 .debug_frame   0x00000000000039e8       0xd8 ./applications/HAL/ov2640/HAL_OV2640.o
 .debug_frame   0x0000000000003ac0      0x218 ./applications/HAL/ov2640/ov.o
 .debug_frame   0x0000000000003cd8       0x98 ./applications/HAL/ST7789/HAL_ST7789.o
 .debug_frame   0x0000000000003d70      0x444 ./applications/HAL/ST7789/lcd_st7789.o
 .debug_frame   0x00000000000041b4       0x50 ./applications/main.o
 .debug_frame   0x0000000000004204       0x7c d:/rt-threadstudio/repo/extract/toolchain_support_packages/wch/risc-v-gcc-wch/8.2.0/bin/../lib/gcc/riscv-none-embed/8.2.0/../../../../riscv-none-embed/lib/rv32imafc/ilp32f\libc_nano.a(lib_a-fflush.o)
 .debug_frame   0x0000000000004280       0x3c d:/rt-threadstudio/repo/extract/toolchain_support_packages/wch/risc-v-gcc-wch/8.2.0/bin/../lib/gcc/riscv-none-embed/8.2.0/../../../../riscv-none-embed/lib/rv32imafc/ilp32f\libc_nano.a(lib_a-fileno.o)
 .debug_frame   0x00000000000042bc      0x148 d:/rt-threadstudio/repo/extract/toolchain_support_packages/wch/risc-v-gcc-wch/8.2.0/bin/../lib/gcc/riscv-none-embed/8.2.0/../../../../riscv-none-embed/lib/rv32imafc/ilp32f\libc_nano.a(lib_a-findfp.o)
 .debug_frame   0x0000000000004404       0x88 d:/rt-threadstudio/repo/extract/toolchain_support_packages/wch/risc-v-gcc-wch/8.2.0/bin/../lib/gcc/riscv-none-embed/8.2.0/../../../../riscv-none-embed/lib/rv32imafc/ilp32f\libc_nano.a(lib_a-fwalk.o)
 .debug_frame   0x000000000000448c       0x64 d:/rt-threadstudio/repo/extract/toolchain_support_packages/wch/risc-v-gcc-wch/8.2.0/bin/../lib/gcc/riscv-none-embed/8.2.0/../../../../riscv-none-embed/lib/rv32imafc/ilp32f\libc_nano.a(lib_a-makebuf.o)
 .debug_frame   0x00000000000044f0       0x20 d:/rt-threadstudio/repo/extract/toolchain_support_packages/wch/risc-v-gcc-wch/8.2.0/bin/../lib/gcc/riscv-none-embed/8.2.0/../../../../riscv-none-embed/lib/rv32imafc/ilp32f\libc_nano.a(lib_a-memcmp.o)
 .debug_frame   0x0000000000004510       0x20 d:/rt-threadstudio/repo/extract/toolchain_support_packages/wch/risc-v-gcc-wch/8.2.0/bin/../lib/gcc/riscv-none-embed/8.2.0/../../../../riscv-none-embed/lib/rv32imafc/ilp32f\libc_nano.a(lib_a-memcpy.o)
 .debug_frame   0x0000000000004530       0x54 d:/rt-threadstudio/repo/extract/toolchain_support_packages/wch/risc-v-gcc-wch/8.2.0/bin/../lib/gcc/riscv-none-embed/8.2.0/../../../../riscv-none-embed/lib/rv32imafc/ilp32f\libc_nano.a(lib_a-printf.o)
 .debug_frame   0x0000000000004584       0xa4 d:/rt-threadstudio/repo/extract/toolchain_support_packages/wch/risc-v-gcc-wch/8.2.0/bin/../lib/gcc/riscv-none-embed/8.2.0/../../../../riscv-none-embed/lib/rv32imafc/ilp32f\libc_nano.a(lib_a-stdio.o)
 .debug_frame   0x0000000000004628       0x20 d:/rt-threadstudio/repo/extract/toolchain_support_packages/wch/risc-v-gcc-wch/8.2.0/bin/../lib/gcc/riscv-none-embed/8.2.0/../../../../riscv-none-embed/lib/rv32imafc/ilp32f\libc_nano.a(lib_a-strcat.o)
 .debug_frame   0x0000000000004648       0x20 d:/rt-threadstudio/repo/extract/toolchain_support_packages/wch/risc-v-gcc-wch/8.2.0/bin/../lib/gcc/riscv-none-embed/8.2.0/../../../../riscv-none-embed/lib/rv32imafc/ilp32f\libc_nano.a(lib_a-strcpy.o)
 .debug_frame   0x0000000000004668       0x20 d:/rt-threadstudio/repo/extract/toolchain_support_packages/wch/risc-v-gcc-wch/8.2.0/bin/../lib/gcc/riscv-none-embed/8.2.0/../../../../riscv-none-embed/lib/rv32imafc/ilp32f\libc_nano.a(lib_a-strlen.o)
 .debug_frame   0x0000000000004688       0x20 d:/rt-threadstudio/repo/extract/toolchain_support_packages/wch/risc-v-gcc-wch/8.2.0/bin/../lib/gcc/riscv-none-embed/8.2.0/../../../../riscv-none-embed/lib/rv32imafc/ilp32f\libc_nano.a(lib_a-strncmp.o)
 .debug_frame   0x00000000000046a8       0x20 d:/rt-threadstudio/repo/extract/toolchain_support_packages/wch/risc-v-gcc-wch/8.2.0/bin/../lib/gcc/riscv-none-embed/8.2.0/../../../../riscv-none-embed/lib/rv32imafc/ilp32f\libc_nano.a(lib_a-strncpy.o)
 .debug_frame   0x00000000000046c8       0x48 d:/rt-threadstudio/repo/extract/toolchain_support_packages/wch/risc-v-gcc-wch/8.2.0/bin/../lib/gcc/riscv-none-embed/8.2.0/../../../../riscv-none-embed/lib/rv32imafc/ilp32f\libc_nano.a(lib_a-vsnprintf.o)
 .debug_frame   0x0000000000004710       0xe0 d:/rt-threadstudio/repo/extract/toolchain_support_packages/wch/risc-v-gcc-wch/8.2.0/bin/../lib/gcc/riscv-none-embed/8.2.0/../../../../riscv-none-embed/lib/rv32imafc/ilp32f\libc_nano.a(lib_a-nano-svfprintf.o)
 .debug_frame   0x00000000000047f0       0xd0 d:/rt-threadstudio/repo/extract/toolchain_support_packages/wch/risc-v-gcc-wch/8.2.0/bin/../lib/gcc/riscv-none-embed/8.2.0/../../../../riscv-none-embed/lib/rv32imafc/ilp32f\libc_nano.a(lib_a-nano-vfprintf.o)
 .debug_frame   0x00000000000048c0       0x8c d:/rt-threadstudio/repo/extract/toolchain_support_packages/wch/risc-v-gcc-wch/8.2.0/bin/../lib/gcc/riscv-none-embed/8.2.0/../../../../riscv-none-embed/lib/rv32imafc/ilp32f\libc_nano.a(lib_a-nano-vfprintf_i.o)
 .debug_frame   0x000000000000494c       0x50 d:/rt-threadstudio/repo/extract/toolchain_support_packages/wch/risc-v-gcc-wch/8.2.0/bin/../lib/gcc/riscv-none-embed/8.2.0/../../../../riscv-none-embed/lib/rv32imafc/ilp32f\libc_nano.a(lib_a-wbuf.o)
 .debug_frame   0x000000000000499c       0x3c d:/rt-threadstudio/repo/extract/toolchain_support_packages/wch/risc-v-gcc-wch/8.2.0/bin/../lib/gcc/riscv-none-embed/8.2.0/../../../../riscv-none-embed/lib/rv32imafc/ilp32f\libc_nano.a(lib_a-wsetup.o)
 .debug_frame   0x00000000000049d8       0x20 d:/rt-threadstudio/repo/extract/toolchain_support_packages/wch/risc-v-gcc-wch/8.2.0/bin/../lib/gcc/riscv-none-embed/8.2.0/../../../../riscv-none-embed/lib/rv32imafc/ilp32f\libc_nano.a(lib_a-memchr.o)
 .debug_frame   0x00000000000049f8       0x20 d:/rt-threadstudio/repo/extract/toolchain_support_packages/wch/risc-v-gcc-wch/8.2.0/bin/../lib/gcc/riscv-none-embed/8.2.0/../../../../riscv-none-embed/lib/rv32imafc/ilp32f\libc_nano.a(lib_a-memmove.o)
